S02600006275696C642F64656275672F77656265725F333630735F76302F6D61696E2E7372656330
S214010000007000206D040100AD040100AD04010084
S214010010AD040100AD040100AD04010000000000C4
S214010020000000000000000000000000AD04010018
S214010030AD04010000000000AD040100192A020011
S214010040AD040100AD040100AD040100AD040100E2
S214010050AD040100AD040100AD040100AD040100D2
S214010060AD040100AD040100AD040100AD040100C2
S214010070AD040100AD040100AD040100AD040100B2
S214010080AD040100AD040100AD040100AD040100A2
S214010090AD040100AD040100AD040100AD04010092
S2140100A0AD040100AD040100AD040100AD04010082
S2140100B0AD040100AD040100AD040100AD04010072
S2140100C0AD040100AD040100AD040100AD04010062
S2140100D0AD040100AD040100AD040100AD04010052
S2140100E0AD040100AD040100AD040100AD04010042
S2140100F0AD040100AD040100AD040100AD04010032
S214010100AD040100AD040100AD040100AD04010021
S214010110AD040100AD040100AD040100AD04010011
S214010120AD040100AD040100AD040100AD04010001
S214010130AD040100AD040100AD040100AD040100F1
S214010140AD040100AD040100AD040100AD040100E1
S214010150AD040100AD040100AD040100AD040100D1
S214010160AD040100AD040100AD040100AD040100C1
S214010170AD040100AD040100AD040100AD040100B1
S214010180AD040100AD040100AD040100AD040100A1
S214010190AD040100AD040100AD040100AD04010091
S2140101A0AD040100AD040100AD040100AD04010081
S2140101B0AD040100AD040100AD040100AD04010071
S2140101C0AD040100AD040100AD0401002D050200DF
S2140101D0B50502003D060200C5060200AD04010099
S2140101E0AD0401004D070200D50702005D080200BC
S2140101F0E5080200AD040100AD0401006D0902002E
S214010200F50902007D0A0200050B0200AD0401009B
S214010210AD0401008D0B0200150C02009D0C0200BE
S214010220250D0200AD040100AD040100AD0401007E
S214010230AD040100AD040100AD040100AD040100F0
S214010240AD040100AD040100AD040100AD040100E0
S214010250AD040100AD040100AD040100AD040100D0
S214010260AD040100AD040100AD040100AD040100C0
S214010270AD040100AD040100AD040100AD040100B0
S214010280AD040100AD040100AD040100AD040100A0
S214010290AD040100AD040100AD040100AD04010090
S2140102A0AD040100AD040100AD040100AD04010080
S2140102B0AD040100AD040100AD040100AD04010070
S2140102C0AD040100AD040100AD040100AD04010060
S2140102D0AD040100AD040100AD040100AD04010050
S2140102E0AD040100AD040100AD040100AD04010040
S2140102F0AD040100AD040100AD040100AD04010030
S214010300AD040100AD040100AD040100AD0401001F
S214010310AD040100AD040100AD040100AD0401000F
S214010320AD040100AD040100AD040100AD040100FF
S214010330AD040100AD040100AD040100AD040100EF
S214010340AD040100AD040100AD040100AD040100DF
S214010350AD040100AD040100AD040100AD040100CF
S214010360AD040100AD040100AD040100AD040100BF
S214010370AD040100AD040100AD040100AD040100AF
S214010380AD040100AD040100AD040100AD0401009F
S214010390AD040100AD040100AD040100AD0401008F
S2140103A0AD040100AD040100AD040100AD0401007F
S2140103B0AD040100AD040100AD040100AD0401006F
S2140103C0AD040100AD040100AD040100AD0401005F
S2140103D0AD040100AD040100AD040100AD0401004F
S2140103E0AD040100AD040100AD040100AD0401003F
S2140103F0AD040100AD040100AD040100FFFFFFFFE5
S214010400FFFFFFFFFFFFFFFFFFFFFFFFFE7FFFFF77
S21401041010B5054C237833B9044B13B10448AFF338
S21401042000800123237010BD0000002000000000A2
S214010430B0DE0200084B10B51BB108480849AFF3FF
S21401044000800848036803B910BD074B002BFBD09A
S214010450BDE81040184700BF00000000B0DE0200F3
S2140104600400002034B8FF1F0000000072B60B49DC
S2140104700A4A0A4B094C094D084E084FB846B94678
S214010480BA46BB46BC4606488546064880470648E7
S214010490804762B60CF064FFFEE700000000000033
S2140104A000700020A9A101000DA20100FFF7FEBF08
S2140104B000238360C3608361C36143638363836492
S2140104C0C3640365704700BF2DE9F04F074687B048
S2140104D018468946164604A9AF4A109D00F0A4FFA7
S2140104E03A68059880FB02487968049BC3FB01487B
S2140104F0E40F88FA94F883FB0227524267EB47071A
S214010500C0FB0127D20F87FA92F7D9F8004080FB8B
S214010510041AD9F80420C3FB021AC90F8AFA91FA01
S21401052083FB04345B4264EB4404C0FB0234DB0F00
S21401053084FA93F4AB68EA680293039283FAA8F00C
S21401054082FAA7F905F1100100F052FE05F12C011F
S2140105508346484600F04CFECDF804B0C5F800B01E
S2140105606860EB6D86FB036E4FEA4E0E4EEAD67E52
S21401057087FB0E1388FB0EE8DEF1000E68EB4808D9
S2140105802A6ECBFB0213C0FB02E800261F4646EA92
S214010590010B46EA0E024346BC46D60F4FEADB780D
S2140105A046EA430648EA47084FEAEC79DF17AB6D9F
S2140105B08AFB03124FEA420242EAD17218EB020AA0
S2140105C049EBE27B84FB03434FEA430343EAD473DC
S2140105D0B5F9642016EB030847EBE379002A6ADDD8
S2140105E0A2F120030BFA02F11C460AFA03F319439F
S2140105F0C2F120032AFA03F308FA04F441EA030BD2
S21401060009FA02F1C2F120030AFA02F628FA03F304
S214010610214308FA02F2B246904641EA0309EC6C1D
S214010620A96CB5F95270B5F95030C5F84C80002266
S214010630164626430A4316EB080647EB090712EB54
S2140106400A08A5F85290A5F850B043EB0B09C5F877
S21401065048A0696D029C84FB01E44FEA440444EA25
S214010660DE74039B83FB01E14FEA410141EADE713F
S21401067018EB040249EBE473761847EBE177194669
S21401068013465B00494101F300038B421CBFDB4369
S2140106904FEA3302AA6033463A465B00524102F300
S2140106A0000393421CBFDB434FEA3306EE6048BBB0
S2140106B007B0BDE8F08FB2D0524212B2C2F12001AB
S2140106C0B2F120040BFA01F62AFA02F358BF4BFAEC
S2140106D004F443EA060358BF23434BFA02F409FA2B
S2140106E001F19A46A34628FA02F3B2F1200443EA3E
S2140106F001035CBF49FA04F4234349FA02F298461F
S21401070091468CE7019AB2F1004F13460BD0002AAE
S214010710B8BF5342B0F1004F18D080EAE072A2EBA6
S214010720E0729A4234DC019B93EA000F54BF6FF0EB
S21401073000404FF00040194900F082FC03464FF09C
S214010740000083FAA0F007B0BDE8F08F6FF000421A
S2140107509342E8D0020044BF5242013A4FEA4202B5
S214010760B2FA82F292B2019B90400014934093FB3E
S214010770F0F3C3F3C0706FF00042024400210F246F
S21401078003FA04F040FA04F1994218BF1046D2E782
S214010790431CDFD11F22E6E764520200F05102003B
S2140107A00023436083600361838203628384C362A0
S2140107B003634363704700BF2DE9F04F87B00446DB
S2140107C00F461846924605A9B14A109E00F0CAFE89
S2140107D0BDF914B0BDF81630246843EA0B434FF454
S2140107E0804223FB042585FA85F55FEA344443FB02
S2140107F0042484FA84F4D7F800B023FB0B2888FA83
S21401080088F85FEA3B4B43FB0B2B5B4683FA83F38B
S2140108107268B168009302924FF40043039183FA21
S21401082082F002142814D0FA12F000B200B283FA51
S21401083081F31A142314D3FA12F31BB206F10C0136
S2140108400FFA83F900F01CFD3146074621F81C7BA0
S214010850484600F015FDB6F93A30B6F93E20B6F82E
S2140108603CE070804FEA284803FB08F807FB028843
S2140108704FEAE87C240C18EB08081AFB0EFA4CEB3E
S2140108800C0924048AFA8AFA84FB0A4E4FEAD474C5
S2140108908EFA94F400994FEA214B03FB0BFB02FB03
S2140108A000B293464FEAE27C18EB040249EBE4738C
S2140108B0CDE900232D0C1BEB0B024FEA05454CEB53
S2140108C00C0385FB0A454FEAD47485FA94F4B6F90D
S2140108D04010B2EB040863EBE479002940F3828010
S2140108E0DDE900ABA1F12004A6460BFA01F50AFAF0
S2140108F004F42543C1F120042AFA04F445EA04036A
S21401090008FA0EFE09FA01F5C1F120040AFA01FC03
S21401091028FA04F445EA0E0508FA01F1CDF800C0FC
S2140109200193884645EA0409336BB6F93650F16AF5
S214010930B6F934B0BDF80420B2864FF0000A54462A
S21401094044EA030422464AEA010A12EB0802544624
S2140109509246DDE900122B46B6F938E0C6F830803B
S214010960A04643EB09035D4618EB0108A6F836904E
S2140109709B46F16245EB02094FEA0E41029B83FB5F
S21401098001CE4FEADC7C8EFA9CFC039B83FB011EA6
S2140109904FEAD1718EFA91F118EB0C0249EBEC7328
S2140109A01AEB01084BEBE1791D46114649006D41F2
S2140109B0144605F30001A9421CBFC9434FEA31049E
S2140109C07460494643465B004941424601F30003D1
S2140109D08B421CBFDB434FEA3302B26070BB07B0E9
S2140109E0BDE8F08FA0D0DDE900AB494209B2C1F104
S2140109F020050BFA05FC2AFA01F4B1F1200E44EAAF
S214010A000C0403D44BFA0EFE44EA0E04019B009438
S214010A1043FA01FE28FA01F409FA05F5CDF804E0D7
S214010A20B1F1200E44EA05045CBF49FA0EFE44EA21
S214010A300E0449FA01F1A046894675E74FF0000316
S214010A403A0448BF82FAA3F24FF00001030448BFFC
S214010A5083FAA1F31B14B3EB224F14DC474017F4BF
S214010A60004F47F6FF770B4808BF38460A4900F0A3
S214010A7015FB03464FF00000D0FA13F000B200B2A7
S214010A8007B0BDE8F08FFF0397FBF0F000B2EDE78B
S214010A905C5202000080FFFFC05102000023836009
S214010AA0C3608361C3610363436303644364704744
S214010AB070B52DED068B86B006460D46B0EE408A23
S214010AC06846B0EE600A3A49144600F0B9FD32466F
S214010AD0694602A801F0C6F92A46694604A801F04B
S214010AE0C1F994ED02AA9DED020AD4ED039ADDED5B
S214010AF0038A04F1100030EE4A0A00F003FC78EE97
S214010B00E98AB0EE409A04F12800B0EE680A00F0D7
S214010B10F9FB94ED147ADDED037A84ED009A28EE64
S214010B20077A84ED010A67EE277AD4ED156AE9EEB5
S214010B30267A9DED026A27EE067A90EE267AD4EDA5
S214010B40136A9DED046AE6EE267A9DED056AA6EE29
S214010B50267A94ED106AD4ED116AC4ED107A77EE18
S214010B60266A77EE867A84ED117A94ED126AEAEEB9
S214010B70067AB0EE667AA9EE867AB5EEC00AF1EE8E
S214010B8010FAC4ED027A84ED037A06DC05D49FEDF3
S214010B90090A06B0BDEC068B70BD89EE000A064850
S214010BA000F0AAFAB1EE400A06B0BDEC068B70BDA5
S214010BB05052020000000000A8510200002383608A
S214010BC0C360C3610362704770B50D4619461C4683
S214010BD0164600F00DFB04F11C01306000F0C2FB6C
S214010BE0286070BD002343600381036183827047E0
S214010BF070B50D4619461C46164600F041FB04F139
S214010C001001308000F0D4FB288070BD0023836083
S214010C10C3608361C361704770B5054610461446CC
S214010C200E4600F06FFB04F1180086ED000A00F096
S214010C30E7FBDFED107AB4EEE70AF1EE10FA0FDC0F
S214010C40DFED0D7AB4EEE70AF1EE10FA05D5DFED29
S214010C500B7A30EE270A84ED060A85ED000A70BD90
S214010C60DFED067A30EE670A84ED060A85ED000AA6
S214010C7070BD00BFDB0F4940DB0F49C0DB0FC94029
S214010C8070B5064608430CD066B90029D4BF6FF08C
S214010C900040002070BD00204B4900F0D1F980FAD9
S214010CA084F070BD69B3002E47DB002952DB4FF09C
S214010CB0005400258E4233D8EDD049B34B1C00F0CA
S214010CC081800B0044BF5B42013B4FEA43031A4657
S214010CD0B2FA82F293B29940091406FA03F393FB2F
S214010CE0F1F3C3F3C0706FF00042024400210F24F9
S214010CF003FA04F040FA04F1994218BF10462C4654
S214010D00CAE7002ED4BF4FF040404FF0804070BD80
S214010D10002E2C46D4BF4FF000406FF00040BBE7DA
S214010D20721A314449084FEA52021ED1002A0CBFFA
S214010D304FF000406FF00040AEE7002933DB4FF084
S214010D40000386FAA3F34FF060440E464FF0404589
S214010D501946AFE74FF0000381FAA3F34FF0C04402
S214010D6031464FF080451E46A4E70B0044BF5B4268
S214010D70013B4FEA4303B3FA83F39BB2994009144C
S214010D8002FA03F393FBF1F3C3F3C0706FF0004272
S214010D90024400210F2503FA05F040FA05F19942B5
S214010DA018BF104678E74FF0000386FAA3F34FF01A
S214010DB0000281FAA2F24FF0204411461E464FF07F
S214010DC0004577E71F2386E7F051020038B550EA61
S214010DD0010331D028B9002947F6FF70C8BF0020AB
S214010DE038BD59B300285DDB00296CDB4FF4005495
S214010DF0002283B28DB2AB4227D95A1912B2581BC0
S214010E00002A00B23BDC00239A409840C2F34E020F
S214010E10C0F34E00002A51D1A2F5004247F6FF73F7
S214010E2000280CBF10461846384900F037F994FAE6
S214010E3010F000B200B238BD184638BD344B002859
S214010E40D4BF18464FF4804038BD884247D001B31E
S214010E504B1C46D00B0444BF5B42013B4FEA4303A5
S214010E60B3FA83F39CB201FA04F3A0401BB200B2BA
S214010E707BB1C003144690FBF3F000B2D4E7130431
S214010E8044BF5B42013B4FEA4303B3FA83F39BB291
S214010E90BAE7204B47F6FF7114460028D4BF184620
S214010EA00846C1E7002920DB4FF00003D3FA10F310
S214010EB01BB2194C164A084619B29AE7C00390FBB2
S214010EC0F2F000B2B0E74FF00003D3FA11F31BB211
S214010ED04FF4C04401464FF4804218B289E700201F
S214010EE0A2E7C00300B20B4BC3E74FF00003D3FAEF
S214010EF010F31BB218B24FF00003D3FA11F31946E0
S214010F0009B2064C034A09B273E700BFC05102009A
S214010F1000C0FFFF0080FFFF00E0FFFF00A0FFFF13
S214010F20B5EE400AF1EE10FAF0EE407A04D1F5EE95
S214010F30400AF1EE10FA5BD008B5F5EEC00AF1EE04
S214010F4010FA2DED028B26D49FED2F6ADFED2F6A66
S214010F509FED2F0A9FED2F7A9FED2F8AF4EE607A90
S214010F60F1EE10FA14D0F1EE605AF4EE657AF1EE75
S214010F7010FA38D0F5EE400AF1EE10FA3BD1F5EE54
S214010F80C07AF1EE10FA54BFB0EE660AB0EE460A29
S214010F90BDEC028B08BDF5EEC07A9FED206ADFED51
S214010FA01B3ADFED196A9FED1E4A9FED1E0ADFED23
S214010FB01E4A9FED1E7A9FED1E5A9FED1E8ADFED9B
S214010FC01E5AF1EE10FA58BFB0EE636A58BFF0EE43
S214010FD0446A58BFB0EE640A58BFB0EE457A58BFAF
S214010FE0B0EE658ABAE7BDEC028BB0EE470A08BDE3
S214010FF09FED090A704787EEA00A104800F07CF8BA
S21401100038EE000AC4E700BFDB0FC9BFDB0FC93FDC
S214011010DB0F493FDB0F49BF00000000E4CB96C061
S214011020E4CB9640E4CB16C0D2537B40D2537BC070
S214011030E4CB1640DB0F49C0DB0F4940A851020044
S214011040B0F1004F10B424D080EAE072A2EBE07257
S214011050130103F100430233121702EB420292001E
S2140110608C188A5882FB03124FEA420242EAD17276
S21401107061680A4482FB03234FEA430343EAD273BF
S214011080A2685DF8044B13440028D8BF5B4218469B
S2140110907047014B0722E0E7F2FFFF7F70B44FF085
S2140110A00002030448BF83FAA2F31D1705EB4505AA
S2140110B06D00C3F30B444E19E400A4F57F54B6F952
S2140110C00230B6F904604A5B3F3C44F30E04640008
S2140110D012FB04F24FEA420202EB03431B1413FB1A
S2140110E004F34FEA430303EB06431B140028D8BF5F
S2140110F05B4218B270BC7047DFED357AB4EEE70A92
S214011100F1EE10FAB0EE407A06D5DFED327AB4EEA3
S214011110E70AF1EE10FA41DCB5EEC07AF1EE10FA0C
S2140111204CBFF1EE477AF0EE477AF7EE006AF4EE3E
S214011130E67AF1EE10FA45DDC6EEA77A0123DFED79
S214011140265ADFED264ADFED266AF4EEE67AF1EE60
S21401115010FA24DCD0ED006A90ED016A67EEA75A1A
S214011160E6EE256A90ED026AA5EEA66AD0ED036A60
S21401117090ED045A75EEA66AA5EEA65AD0ED056A5C
S214011180E5EE856A67EE867A87EEA60ABBB930EE8B
S214011190640AB5EEC07AF1EE10FA0DD47047F7EE98
S2140111A0006A9FED106AE6EE276A37EEC66AF0EE31
S2140111B0654AC6EE267ACDE7B1EE400A704734EEB0
S2140111C0C00AE6E7DFED085ADFED084A0023BAE772
S2140111D00000800000008080920A863FDB0FC93F36
S2140111E0A330893E3ACD133F920A06BF00000000A5
S2140111F0F0B4CA684B6882FB03234FEAD27283FAC3
S21401120092F2C8600D6880FB05504FEAD57580FAEA
S21401121095F58C68D317521943EBE573121943EB16
S214011220E473B2F1004F73F1FF300C8B24DB6FF0E7
S2140112300046964208694FF0000777EB030540FA2F
S21401124004F0B8BF32469042A8BF10464B6943FA35
S21401125004F28242B8BF02468A60C2F3C0706FF0E1
S21401126000430344002102FA04F040FA04F19142DB
S21401127018BF1846F0BC70474FF00040E6E700BFC5
S21401128030B40C89C0EA04440D884B88C5EA03458E
S214011290002308811A464868C2174310C4FBC532AA
S2140112A05B41524118464000524102F30000904211
S2140112B01CBFC0434FEA3003CC89B1F90A00B1F92B
S2140112C00C20C4F11005ADB2A8409842A8BF18463C
S2140112D002FA05F38342B8BF03464B60C3F3C070FE
S2140112E06FF000420244002103FA04F040FA04F1D0
S2140112F0994218BF10464FF4004383FA80F0001459
S21401130030BC704790ED005A90ED036AD0ED015A5B
S21401131060EE056A66EE257A36EEA77AD0EE056AA5
S214011320D6EE257A76EEA77A77EE277A90ED026AE0
S214011330D0ED046A80ED030A37EE860A90ED057A51
S214011340B4EE660AF1EE10FAA8BFB0EE660AB4EE85
S214011350470AF1EE10FA98BFB0EE470A80ED020A8E
S214011360704700BF30B48A6880FB02344FEAD373FB
S21401137084FA93F34C6884FB02244FEAD27284FA0F
S21401138092F20C684860134423440B60C3F3C070A8
S2140113906FF00042024400248D89214603FA05F0CD
S2140113A040FA05F1994218BF104630BC704700BF9D
S2140113B030B40D68B1F906208C8810FB02F314FBDB
S2140113C002F283FA83F382FA82F213442B44888072
S2140113D00B60C3F3C0706FF00042024400240D8915
S2140113E0214603FA05F040FA05F1994218BF104666
S2140113F04FF4004383FA80F0001430BC704700BFFE
S21401140090ED017AD0ED007A90ED026AF0EE406A36
S21401141030EE077AB0EE670AA7EE060A80ED000AFC
S214011420C0ED016A704700BF2DE9F04F4700002F5D
S2140114309346C8BF7F4287FB07434FEAD474A4464E
S21401144083FA9CFC00F1804E4FEA4E06002EC8BF80
S214011450764286FB06234FEAD272904683FA98F8C4
S214011460DBF80420DBF8003083FB0C454FEA45052A
S21401147045EAD47583FB08394FEA490949EAD37925
S2140114801544DBF808A085FB0C354FEA450444EA11
S214011490D3744A4482FB08924FEA420242EAD97266
S2140114A00AEB0405DBF80C9085FB0C434FEA43037B
S2140114B043EAD47392448AFB08A24FEA420242EA04
S2140114C0DA72DBF8105009EB030484FB0C344FEAA4
S2140114D0440444EAD3744A4482FB08824FEA420237
S2140114E042EAD8722C4484FB07474FEA470747EA8B
S2140114F0D477AB1883FB06634FEA430343EAD673FC
S214011500C7F3C0746FF00042224400254FF0010C6F
S21401151007FA0CF444FA0CF5BD4218BF1446C3F39F
S214011520C0726FF000451544002603FA0CF242FA29
S2140115300CF69E4218BF2A46BEF1000F10DD4FF092
S214011540000382FAA3F34B60002806DD4FF0000388
S21401155084FAA3F30B60BDE8F08F0C60BDE8F08F52
S2140115604A60F1E7F0B500F5804683B036B2C0EACE
S214011570064494FA04F424F3000394FA03F4634053
S214011580DB434FF001151C4694FA05F414FB04F5F1
S21401159014FB34F385FA85F583FA83F32D141B14B3
S2140115A0B2F902E0ADF80450ADF80630BDF80430EB
S2140115B0B2F900704FEACE3517FB0353BDF806E0CB
S2140115C017FB0E55B2F90470BDF804E0BF0333FBF8
S2140115D00E73BDF806E035FB0E75B2F90670BDF860
S2140115E004E07F031A4632FB0E722B46BDF8065006
S2140115F033FB0573114DC2F34F3205EAC3031A4399
S21401160012FB04F312FB34F21D4685FA85F51346E8
S21401161083FA83F3C3EA254393FA14F30022D2FA3A
S21401162013F2002ED4BF1C1414140028CCBF13B21E
S2140116301BB24C800B8003B0F0BD00BF0000FFFF63
S214011640B5EEC00AF1EE10FA6ED4DFED497AB4EECB
S214011650E70AF1EE10FA1ED5DFED467A9FED467ADF
S21401166077EEC07A77EEC77A91ED016AD1ED006A1E
S21401167027EEA77AA7EE266AD1ED026AE6EE076A9A
S21401168027EE267AE7EE877AB0EE407AC0ED017A49
S21401169080ED007A7047DFED377AB4EEE70AF1EEB7
S2140116A010FAB0EE407A36DCB5EEC00AF1EE10FA6A
S2140116B027EE074A4AD4DFED2F7ADFED2F6A77EE61
S2140116C0C07A77EEE67A91ED016AD1ED006AF0EE26
S2140116D0464A27EEA75AE4EE264AA5EE266AD1ED3B
S2140116E0026AF0EE665AE4EE845AE6EE056A66EEA3
S2140116F0856AE7EEA67A65EE845AA7EE257AB5EEF8
S214011700C00AF1EE10FA48BFB1EE477AC0ED017A91
S21401171080ED007A7047DFED196ADFED197A36EE53
S214011720C77A37EE677ABFE7DFED167AB4EEE70AD7
S214011730F1EE10FA13DCDFED147AB4EEE70AF1EEFF
S21401174010FAB1EE407AE6D420EE004ADFED097ACF
S214011750DFED096A70EE277A77EEE67AB3E7DFED1A
S214011760057A9FED057A70EE277A77EEC77A7BE7E2
S21401177000000039DB0FC93F2EBD3B33DB0F49406C
S2140117802EBDBB33000000B9DB0FC9BF00280CDD3E
S21401179007EE900AFAEEE07AF1EEE77AF0EE677A73
S2140117A0FEEEE07A17EE900A70470020704700BF01
S2140117B000280DDD07EE900AFAEE607AF1EEE77A80
S2140117C0F0EE677AFEEEE07A17EE900A00147047A4
S2140117D000207047B1EEC00A704700BF2DE9F843FC
S2140117E091E8C00086FB064587FB078989FA85F3E1
S2140117F0146884FB0445AB4204D880E8C00000208E
S214011800BDE8F883044618461546FFF7BFFF98B3B0
S214011810431C33D0030044BF5B42013B4FEA430302
S214011820B3FA83F39BB2DFF858E0296800FA03F2B3
S21401183086FB0E89121409FA03F595FBF2F5ED0302
S21401184085FB01054FEA450545EAD07585FA85F51C
S21401185087FB0E6707FA03F3256093FBF2F3DA03BF
S21401186082FB01324FEA420242EAD37282FA82F2E4
S21401187001206260BDE8F8830346D4E71F23D2E760
S2140118809A79825AF8B5B1F90240B1F9005004FBD1
S21401189004F305FB05F183FA81F1B2F9003003FB8D
S2140118A003F38B4203DB058044800020F8BD174616
S2140118B006460846FFF76AFFB7F90010224B0904EF
S2140118C081FB03134FEA430343EAD17390B3421CEF
S2140118D037D0010044BF494201394FEA4101B1FA0C
S2140118E081F189B200FA01F28B40121493FBF2F2F5
S2140118F0C2F3C0736FF00041194400200F2702FAAB
S21401190007F343FA07F0904218BF0B462A0482FBFE
S21401191003524FEA420242EAD5721214328024047C
S21401192084FB03434FEA430343EAD4731B147380D7
S2140119300120F8BD002BD4BF4FF000436FF00043E9
S214011940E4E71F21CEE700BF9A79825A91ED010A9A
S214011950D1ED007A20EE000A67EEA77A70B530EE78
S214011960270A16460C460546FFF734FF96ED007A21
S214011970B4EEC70AF1EE10FA09DC94ED007AD4ED64
S214011980017A85ED007A0020C5ED017A70BDC7EEBB
S214011990007A012094ED007AD4ED016A27EE877A69
S2140119A067EEA67A85ED007AC5ED017A70BD00BFB7
S2140119B00B68036010B44A68094B82FB03424FEA86
S2140119C0420242EAD472896881FB03134FEA430359
S2140119D043EAD17383FAA2F343605DF8044B704780
S2140119E0169DE6494B888A880988018044F6E711E6
S2140119F013FB01F312FB01F2DB13D213D3FA12F33A
S214011A001BB24380704700BFD1ED017AD1ED026A67
S214011A109FED057A0B68036077EEE67A67EE877AC4
S214011A20C0ED017A704700BF3ACD133F2DE9F04172
S214011A305468231457D064101268D1F800C082FB92
S214011A400C534FEA430343EAD5734D6882FB0526E0
S214011A504FEA460646EAD27686EAE677A7EBE677C7
S214011A6054B3621C43D0210044BF494201394FEAB6
S214011A704101B1FA81F18AB2C2F1100E83EAE3782C
S214011A801FFA8EFEA8EBE37844FA0EFE44450FFAE1
S214011A908EFE13DD934093FBFEF39B0383FA83F3E1
S214011AA0BC42036014DC002DACBF6FF000434FF066
S214011AB000434360BDE8F0812246A646BCF1000F14
S214011AC0ACBF6FF000434FF00043BC420360EADD59
S214011AD006FA02F292FBFEFE4FEA8E3E8EFA8EF276
S214011AE04260BDE8F08103604360BDE8F0814FF6D7
S214011AF0F17E44FA0EFE0FFA8EFE1F22DEE700BFCD
S214011B00B2F902305B102FD0F0B4B2F90020B1F96F
S214011B10006002FB06F444F3CF3585EAE574A4EBD6
S214011B20E5741BB224B2A34220DC2E4C47F6FF75A7
S214011B3014EA260438BF2C460480B1F9024002FBA1
S214011B4004F242F3CF3282EAE271A1EBE27109B20A
S214011B508B4224DC234B47F6FF7213EA240338BF7B
S214011B6013464380F0BC7047036070474FF0000493
S214011B702E0448BF86FAA4F64FF000071C0448BF9F
S214011B8084FAA7F42414B4EB264F21DC5D4015F447
S214011B90004F47F6FF75134C08BF2C46CCE74FF0B5
S214011BA00001140448BF84FAA1F44FF0000519049B
S214011BB048BF81FAA5F10914B1EB244F0DDC53405F
S214011BC0084913F4004F47F6FF7318BF0B46C8E7E2
S214011BD0EC0394FBF3F424B2AEE7D20392FBF3F3E7
S214011BE01BB2BEE70080FFFFD2ED017A9FED307A8F
S214011BF0F4EEC77AF1EE10FA06D89FED2E7AF4EEDF
S214011C00C77AF1EE10FA4EDA92ED007AD1ED005A6B
S214011C1091ED016A67EE256AB6EE005AF5EEC06AE6
S214011C20F1EE10FA67EE857A4CBFB1EE665AB0EE69
S214011C30665AF4EEC57AF1EE10FA27EE067A28DC3B
S214011C40F5EEC05AF1EE10FAFFEE006AF7EE005A12
S214011C5058BFF0EE656AC0ED006AB5EEC07AF1EEE7
S214011C6010FA4CBFF1EE476AF0EE476AF4EEE67AF8
S214011C70F1EE10FA12DCB5EEC06AF1EE10FAFFEEE4
S214011C80007AB7EE007A58BFF0EE477AC0ED017AD7
S214011C907047C6EEA75AC0ED005ADEE7C7EE276AC0
S214011CA0C0ED016A7047002303604360704700BFC0
S214011CB0FFFF7F00FFFF7F80F0B492E818000D68F9
S214011CC04A685B1061106D10521082FB01744FEA76
S214011CD04404264646EAD77685FB03744FEA440455
S214011CE044EAD774344482FB03634FEA43031A463B
S214011CF042EAD6726B4283FB01134FEA430343EA7F
S214011D00D1731344C3F3C0726FF000411144002530
S214011D10022603FA06F242FA06F59D4218BF0A4663
S214011D200260C4F3C0736FF000421A44002104FA43
S214011D3006F343FA06F1A14218BF13464360F0BC0E
S214011D40704700BF70B4B1F90230B2F90060B2F961
S214011D500250B1F9001013FB05F211FB06F483B033
S214011D6082FA82F284FA84F484FA82F212140192DC
S214011D70019C13FB06F311FB05F283FA83F382FA47
S214011D8082F2448082FAA3F31B14038003B070BC72
S214011D90704700BFD2ED014A92ED006AD1ED005ABC
S214011DA0D1ED016AB1EE644A66EE267A24EE257A12
S214011DB037EE875AD6EE267A94EE257A77EE877A2C
S214011DC075EE277AC0ED007A66EE257A24EEA67ABD
S214011DD037EE875AD6EE257A94EEA67A77EE877A8C
S214011DE075EE277AC0ED017A704700BF70B44B6874
S214011DF0146883FB04340D685668C5FB0634DB0F94
S214011E0084FA93F303600B68146883FB04345B4223
S214011E1064EB4404556849682246C1FB0532DB0F72
S214011E2082FA93F3436070BC704700BF4B88098801
S214011E3010B4C3EA014113885288C3EA02434FF43F
S214011E40804421FB034282FA82F2121402805FEA86
S214011E50334341FB034383FA83F31B1443805DF84A
S214011E60044B704792ED007AD2ED015A91ED006A6B
S214011E7091ED015A67EE057A65EE866A77EEA64A17
S214011E80D7EE057AD5EE866A77EEA67A74EEA77A4D
S214011E90C0ED007AF1EE476A65EE857A26EE867A1F
S214011EA077EE874AD5EE857A96EE867A77EE877A4A
S214011EB074EEA77AC0ED017A704700BFF0B40B68E4
S214011EC0454A82FB03234FEA430343EAD2734E6833
S214011ED05B10B210D71AB7F1404F13446FF040426F
S214011EE03C46B8BF4FF0404493421D46A8BF154636
S214011EF09442A8BF1446B5F1404FB8BF4FF04045D5
S214011F006D004FEA440410D4002C34DB87FA83F3C7
S214011F1083FAA2F2826085FA82F2026084FA82F281
S214011F20022342601846F0BC7047002C13DB002EDB
S214011F3041DD711081FAA3F383FA82F323EAE37297
S214011F40026085FAA3F2826086FA82F20323426077
S214011F50F0BC18467047711081FA82F222EAE273E9
S214011F60436084FAA2F2026085FAA2F20523826037
S214011F70F0BC18467047002E0DDD83FAA2F121EA67
S214011F80E173836086FA81F141607B0083FAA1F1F7
S214011F9001230160C6E7711083FAA1F383FA82F286
S214011FA022EAE273436086FAA2F2826085FA82F23E
S214011FB006230260B6E7731087FAA3F383FA82F268
S214011FC022EAE273036084FA82F2426086FAA2F29F
S214011FD004238260A6E700BFA1EBD96E0B8846F604
S214011FE0DA62F0B513FB02F3B1F902508A4F23F41B
S214011FF0FF4222F07F02AC0316196910BE4283B07D
S2140120004FEAE3330FFA81FE28DCDFF814C2664597
S214012010A4EB02024EDABA424FEA264600F38D805E
S214012020624580F2B1807D4C21464FF4804292FA9F
S2140120301EFE0FFA8EFEADF806E0BDF806304380B0
S214012040BDF80630D3FA11F109B20180D1FA14F3C2
S2140120501BB205268380304603B0F0BDA21ABA42F1
S2140120604FEA264635DD43F6FF710C4694FA11F227
S21401207013461BB247F6FF72D2FA13F212B242F3BC
S2140120804E02ADF80620BDF8063001331BB2ADF89E
S2140120900630BDF806308380BDF8063093FA14F397
S2140120A01BB2038093FA11F31BB20226438030461B
S2140120B003B0F0BD5C18BA424FEA264624B216DDDC
S2140120C0002CA8BF43F6FF71D0DA121443F6FF7155
S2140120D037E0B2F1404F43F6FF740EDDCB1A002C09
S2140120E019B24FEA224253DB0029BFDA06E0624505
S2140120F0F4DA002C01DA494997E71214002D4CDD79
S21401210043F6FF7EDEFA16F636B2ADF80660BDF887
S2140121100630190456BFBDF8063000231BB2838073
S214012120BDF8063093FA15F52DB245805200D5FA62
S21401213012F52DB201260580B9E7384C121443F684
S214012140FF71002D49DDD6FA1EF636B24FF48043F4
S21401215093FA16F636B2ADF80660BDF806301E04E0
S21401216056BFBDF8063000231BB20380BDF806300B
S214012170D3FA14F31BB2838093FA15F31BB203262A
S2140121804380304603B0F0BDCB1A244C19B212146A
S2140121900029A8BF12B2D4DA47E7DEFA16F31A46C8
S2140121A012B243F6FF7393FA12F31BB2ADF8063080
S2140121B0BDF806301B0456BFBDF8063000231BB21F
S2140121C04380BDF80630D3FA15F52DB2858095FA11
S2140121D014F31BB20626038069E7DEFA12F212B286
S2140121E04FF4804393FA12F212B2ADF80620BDF80E
S2140121F006301C0456BFBDF8063000231BB2038010
S214012200BDF8063093FA11F31BB24380D3FA15F5E5
S2140122102DB2042685804AE7FEFFFF3F00C0FFFF80
S214012220010000C091ED007A9FED6D6AD1ED014A83
S214012230DFED6C6AF5EE007A27EE066A64EEA77AA1
S214012240034636EE275A77EEC65AB4EEE65AF1EE54
S21401225010FA35EE054A75EEA53A58D4F5EEC05A91
S214012260F1EE10FA00F18280F6EE007AB0EE677AAF
S214012270FEEE007AA4EEA77A74EE077A022073EED9
S214012280A76AB7EE006AF4EEC67AF1EE10FA34DD0C
S214012290F0EE467AB7EE006AF4EEC66AF1EE10FA90
S2140122A021DDF0EE466AB7EE006AB4EEC67AF1EECC
S2140122B010FA08DDB0EE467AC3ED007AC3ED016A86
S2140122C083ED027A7047B5EE407A9FED466AC3ED1C
S2140122D0007AF1EE10FA48BFB0EE467AC3ED016A15
S2140122E083ED027A7047F5EE406A9FED3E6AF1EEA5
S2140122F010FA48BFF0EE466AD5E7F5EE407A9FED54
S214012300396AF1EE10FA48BFF0EE467AC2E7F4EE0B
S214012310E65AF1EE10FA1DD4334A82ED006A92EDC8
S214012320006AF6EE005A36EE256A27EE267A82ED28
S214012330006AF5EEC04AD2ED006AF1EE10FA37EE09
S214012340267A45DD77EE677A032037EEC47A74EE97
S214012350876A96E7F6EE007AF0EE676AE7EEA46A19
S21401236076EEE37A052037EEC47A8AE7DFED1F5A68
S2140123701D4A67EE255AF5EEC04AC2ED005A92EDA7
S214012380006AB6EE005AF1EE10FA36EE056A0FDD77
S21401239082ED006A67EE266A92ED007A37EE667A7B
S2140123A0012037EE677A74EE876A76EEE37A68E79D
S2140123B082ED006A27EE267AD2ED006A76EEC76ACB
S2140123C0062076EEA76A36EEE47A77EE047A58E7C8
S2140123D077EE277A042077EEA36A36EEE47A50E7A2
S2140123E0D7B3DD3E000000001C000020D7B3DDBEE1
S2140123F081F0004102E000BF83F0004330B54FEAB0
S21401240041044FEA430594EA050F08BF90EA020F1C
S2140124101FBF54EA000C55EA020C7FEA645C7FEAAF
S214012420655C00F0E2804FEA5454D4EB5555B8BFD2
S2140124306D420CDD2C4480EA020281EA030382EA43
S214012440000083EA010180EA020281EA0303362DD5
S21401245088BF30BD11F0004F4FEA01314FF4801CA8
S2140124604CEA113102D0404261EB410113F0004FBA
S2140124704FEA03334CEA133302D0524263EB430371
S21401248094EA050F00F0A780A4F10104D5F1200E0F
S2140124900DDB02FA0EFC22FA05F2801841F100016A
S2140124A003FA0EF2801843FA05F359410EE0A5F13E
S2140124B020050EF1200E012A03FA0EFC28BF4CF06F
S2140124C0020C43FA05F3C01851EBE37101F0004525
S2140124D007D54FF0000EDCF1000C7EEB00006EEB32
S2140124E00101B1F5801F1BD3B1F5001F0CD34908BC
S2140124F05FEA30004FEA3C0C04F101044FEA445213
S21401250012F5800F80F09A80BCF1004F08BF5FEA99
S214012510500C50F1000041EB045141EA050130BD79
S2140125205FEA4C0C404141EB010111F4801FA4F11C
S2140125300104E9D191F0000F04BF01460020B1FA71
S21401254081F308BF2033A3F10B03B3F120020CDAA9
S2140125500C3208DD02F1140CC2F10C0201FA0CF087
S21401256021FA02F10CE002F11402D8BFC2F1200CEC
S21401257001FA02F120FA0CFCDCBF41EA0C019040A2
S214012580E41AA2BF01EB0451294330BD6FEA0404EB
S2140125901F3C1CDA0C340EDC04F11404C4F12002D6
S2140125A020FA04F001FA02F340EA030021FA04F3E8
S2140125B045EA030130BDC4F10C04C4F1200220FA3F
S2140125C002F001FA04F340EA0300294630BD21FA7D
S2140125D004F0294630BD94F0000F83F4801306BF43
S2140125E081F480110134013D4EE77FEA645C18BF37
S2140125F07FEA655C29D094EA050F08BF90EA020FCE
S21401260005D054EA000C04BF1946104630BD91EAC5
S214012610030F1EBF0021002030BD5FEA545C05D1C8
S2140126204000494128BF41F0004130BD14F5800407
S2140126303CBF01F5801130BD01F0004545F0FE417B
S21401264041F470014FF0000030BD7FEA645C1ABFB0
S214012650194610467FEA655C1CBF0B46024650EAE7
S214012660013406BF52EA033591EA030F41F4002113
S21401267030BD00BF90F0000F04BF0021704730B599
S2140126804FF4806404F132044FF000054FF000016E
S21401269050E700BF90F0000F04BF0021704730B52F
S2140126A04FF4806404F1320410F0004548BF404204
S2140126B04FF000013EE700BF42004FEAE2014FEA59
S2140126C031014FEA02701FBF12F07F4393F07F4F34
S2140126D081F06051704792F0000F14BF93F07F4F66
S2140126E0704730B54FF4607401F0004521F00041A9
S2140126F020E700BF50EA010208BF704730B54FF02F
S21401270000050AE050EA010208BF704730B511F033
S214012710004502D5404261EB41014FF4806404F16B
S21401272032045FEA915C3FF4DCAE4FF003025FEAED
S214012730DC0C18BF03325FEADC0C18BF033202EB75
S214012740DC02C2F1200300FA03FC20FA02F001FACF
S21401275003FE40EA0E0021FA02F11444C1E600BF6E
S21401276070B54FF0FF0C4CF4E06C1CEA11541DBF21
S2140127701CEA135594EA0C0F95EA0C0F00F0DEF8EC
S2140127802C4481EA030621EA4C5123EA4C5350EAD1
S214012790013518BF52EA033541F4801143F4801322
S2140127A038D0A0FB02CE4FF00005E1FB02E506F0B3
S2140127B00042E0FB03E54FF00006E1FB03569CF008
S2140127C0000F18BF4EF0010EA4F1FF04B6F5007F0E
S2140127D064F5407404D25FEA4E0E6D4146EB060680
S2140127E042EAC62141EA55514FEAC52040EA5E5009
S2140127F04FEACE2EB4F1FD0C88BFBCF5E06F1ED8B3
S214012800BEF1004F08BF5FEA500E50F1000041EBE9
S214012810045170BD06F0004646EA010140EA020096
S21401282081EA0301B4EB5C04C2BFD4EB0C0541EAB8
S214012830045170BD41F480114FF0000E013C00F3CD
S214012840AB8014F1360FDEBF002001F0004170BDF1
S214012850C4F10004203C35DA0C341BDC04F114040A
S214012860C4F1200500FA05F320FA04F001FA05F296
S21401287040EA020001F0004221F0004110EBD37063
S21401288021FA04F642EB06015EEA430E08BF20EA8F
S214012890D37070BDC4F10C04C4F1200500FA04F332
S2140128A020FA05F001FA04F240EA020001F00041C4
S2140128B010EBD37041F100015EEA430E08BF20EA37
S2140128C0D37070BDC4F1200500FA05F24EEA020E7F
S2140128D020FA04F301FA05F243EA020321FA04F0AE
S2140128E001F0004121FA04F220EA020000EBD37065
S2140128F05EEA430E08BF20EAD37070BD94F0000F65
S2140129000FD101F00046400041EB010111F4801F98
S21401291008BF013CF7D041EA060195F0000F18BF49
S214012920704703F00046520043EB030313F4801F85
S21401293008BF013DF7D043EA0603704794EA0C0F3F
S2140129400CEA135518BF95EA0C0F0CD050EA410655
S21401295018BF52EA4306D1D181EA030101F00041D2
S2140129604FF0000070BD50EA410606BF10461946FA
S21401297052EA430619D094EA0C0F02D150EA013606
S21401298013D195EA0C0F05D152EA03361CBF104647
S21401299019460AD181EA030101F0004141F0FE41E6
S2140129A041F470014FF0000070BD41F0FE4141F46A
S2140129B0780170BD70B54FF0FF0C4CF4E06C1CEA6A
S2140129C011541DBF1CEA135594EA0C0F95EA0C0F1F
S2140129D000F0A7F8A4EB050481EA030E52EA0335DA
S2140129E04FEA013100F088804FEA03334FF08055FB
S2140129F045EA131343EA12634FEA022245EA111528
S214012A0045EA10654FEA00260EF000419D4208BFD8
S214012A10964244F1FD0404F5407402D25B084FEA85
S214012A203202B61A65EB03055B084FEA32024FF431
S214012A3080104FF4002CB6EB020E75EB030E22BF8E
S214012A40B61A754640EA0C005B084FEA3202B6EB4E
S214012A50020E75EB030E22BFB61A754640EA5C00FD
S214012A605B084FEA3202B6EB020E75EB030E22BF8D
S214012A70B61A754640EA9C005B084FEA3202B6EB8E
S214012A80020E75EB030E22BFB61A754640EADC004D
S214012A9055EA060E18D04FEA051545EA16754FEAAF
S214012AA006164FEAC30343EA52734FEAC2025FEACD
S214012AB01C1CC0D111F4801F0BD141EA00014FF05C
S214012AC000004FF0004CB6E711F4801F04BF01432D
S214012AD00020B4F1FD0C88BFBCF5E06F3FF6AFAE49
S214012AE0B5EB030C04BFB6EB020C5FEA500C50F1D9
S214012AF0000041EB045170BD0EF0004E4EEA11315C
S214012B0014EB5C04C2BFD4EB0C0541EA045170BD62
S214012B1041F480114FF0000E013C90E645EA060EA6
S214012B208DE60CEA135594EA0C0F08BF95EA0C0FD4
S214012B303FF43BAF94EA0C0F0AD150EA01347FF41C
S214012B4034AF95EA0C0F7FF425AF104619462CE7F3
S214012B5095EA0C0F06D152EA03353FF4FDAE104656
S214012B60194622E750EA410618BF52EA43067FF4A7
S214012B70C5AE50EA41047FF40DAF52EA43057FF437
S214012B80EBAE12E74FF0FF3C06E000BF4FF0010C42
S214012B9002E000BF4FF0010C4DF804CD4FEA410CA6
S214012BA07FEA6C5C4FEA430C18BF7FEA6C5C1BD073
S214012BB001B050EA410C0CBF52EA430C91EA030FF4
S214012BC002BF90EA020F0020704710F1000F91EA51
S214012BD0030F58BF994208BF90422CBFD8176FEA1F
S214012BE0E37040F0010070474FEA410C7FEA6C5CED
S214012BF002D150EA013C07D14FEA430C7FEA6C5CF4
S214012C00D6D152EA033CD3D05DF8040B704700BF1F
S214012C108446104662468C461946634600E000BF6D
S214012C2001B5FFF7B7FF002848BF10F1000F01BD3F
S214012C304DF808EDFFF7F4FF0CBF012000205DF80A
S214012C4008FB00BF4DF808EDFFF7EAFF34BF01208F
S214012C5000205DF808FB00BF4DF808EDFFF7E0FF28
S214012C6094BF012000205DF808FB00BF4DF808ED79
S214012C70FFF7CEFF94BF012000205DF808FB00BFE0
S214012C804DF808EDFFF7C4FF34BF012000205DF8C2
S214012C9008FB00BF4FEA410212F5001215D211D50A
S214012CA06FF47873B3EB625212D94FEAC12343F043
S214012CB0004343EA505311F0004F23FA02F018BFC5
S214012CC0404270474FF00000704750EA013005D18E
S214012CD011F0004008BF6FF0004070474FF0000051
S214012CE0704700BF4A0011D212F5001211D20DD55D
S214012CF06FF47873B3EB62520ED44FEAC12343F0FC
S214012D00004343EA505323FA02F070474FF00000A5
S214012D10704750EA013002D14FF0FF3070474FF054
S214012D20000070474FEA4102B2F1E04324BFB3F519
S214012D30001CDCF1FE5C0DD901F0004C4FEAC0022C
S214012D404CEA5070B2F1004F40EB830008BF20F010
S214012D500100704711F0804F21D113F13872BCBFCA
S214012D6001F00040704741F480114FEA5252C2F11F
S214012D701802C2F1200C10FA0CF320FA02F018BF68
S214012D8040F001004FEAC1234FEAD32303FA0CFCBB
S214012D9040EA0C0023FA02F34FEA4303CCE77FEA4A
S214012DA0625307D150EA01331EBF4FF0FE4040F494
S214012DB04000704701F0004040F0FE4040F4000043
S214012DC0704700BF53B94AB9002908BF00281CBF85
S214012DD04FF0FF314FF0FF3000F03CB882B0EC46C8
S214012DE02DE9005000F01EF8DDF804E002B00CBC3E
S214012DF0704700BF2DE9F041069C154606460F4672
S214012E00984600F029F805FB01F300FB0838A5FBFE
S214012E100023B21A434467EB0303C4E90023BDE869
S214012E20F08100BF2DE9F041069C904606460F460C
S214012E301D4600F05FF900FB05F5A0FB082308FB23
S214012E400155B21A2B4467EB0303C4E90023BDE81E
S214012E50F08100BF704700BF00292DE9F043C0F2A2
S214012E60A6800026002BC0F29C80884694469E468B
S214012E70154604460F46002B3DD18A4259D9B2FA6F
S214012E8082F33BB1C3F120029F4020FA02F29D403B
S214012E9017439C40290C220CB7FBF1FEA8B201FB9C
S214012EA01E7742EA074700FB0EF3BB420AD97F1999
S214012EB00EF1FF3280F00581BB4240F20281AEF195
S214012EC0020E2F44FF1AA4B2B7FBF1F301FB1377EE
S214012ED044EA074700FB03F0B84208D97F1903F11B
S214012EE0FF3280F0F080B84240F2ED80023B43EAC8
S214012EF00E43002203E08B420FD900221346341CF6
S214012F0018BF012460424FF0000565EB45015840AB
S214012F10514000196941BDE8F083B3FA83F2002AF3
S214012F2040F086808B4202D3844500F2DB80012389
S214012F30E5E712B90123B3FBF2F5B5FA85F00028EF
S214012F403BD1781B4FEA154E1FFA85FC0122B0FBD8
S214012F50FEF8210C0EFB180741EA07470CFB08F3A5
S214012F60BB4207D97F1908F1FF3102D2BB4200F2FA
S214012F70BD808846FF1AA4B2B7FBFEF30EFB13779B
S214012F8044EA07470CFB03FCBC4507D97F1903F14C
S214012F90FF3102D2BC4500F2A7800B4643EA084344
S214012FA0ADE752426FEA060663EB43035DE7404234
S214012FB061EB41014FF0FF3654E7C0F1200224FADD
S214012FC002F107FA00F385404FEA154ED740194340
S214012FD0B7FBFEF20B0C0EFB12771FFA85FC43EAD9
S214012FE007430CFB02F79F4204FA00F407D95B196A
S214012FF002F1FF3074D29F4272D9023A2B44DF1B92
S21401300089B2B7FBFEF80EFB187341EA03430CFBCB
S21401301008F79F4208D95B1908F1FF315CD29F423D
S2140130205AD9A8F102082B44D81B48EA02428EE777
S214013030C2F120032CFA03F10EFA02FE20FA03F77E
S21401304041EA0E0E08FA02F028FA03F14FEA1E458D
S2140130503843B1FBF5F8030C05FB18111FFA8EF780
S21401306043EA014107FB08F38B420CFA02FC09D93B
S21401307011EB0E0108F1FF3930D28B422ED9A8F19F
S21401308002087144C91A80B2B1FBF5F305FB1311AE
S21401309040EA014107FB03F78F4208D911EB0E0105
S2140130A003F1FF3016D28F4214D9023B714443EA32
S2140130B00843C91BA3FB0C89494509D305D0002247
S2140130C01DE79646FEE6134611E794404445F6D2C0
S2140130D0013BF4E70346EAE78846A5E7C846D1E799
S2140130E002468CE713460AE7023B57E7A8F10208B7
S2140130F02F443FE72DE9F041002B44D18A42154683
S21401310004464FD9B2FA82F70E464FB1C7F12003F3
S214013110B94020FA03F602FA07F50E4300FA07F45F
S2140131204FEA154E230CB6FBFEF0AFB20EFB106154
S21401313043EA014307FB00F1994209D95B1900F103
S214013140FF3280F0EC80994240F2E98002382B444D
S2140131505A1AA4B2B2FBFEF30EFB132244EA024251
S21401316007FB03F7974208D9521903F1FF3180F0A4
S214013170D880974240F2D580023B43EA00400026C1
S2140131803146BDE8F0818B4247D8B3FA83F6002E6C
S21401319048D18B4202D3824200F2CD8001203146D3
S2140131A0BDE8F08112B90125B5FBF2F5B5FA85F84F
S2140131B0B8F1000F77D14A1B4FEA154EAFB2012680
S2140131C0B2FBFEF0230C0EFB102143EA014107FB84
S2140131D000F38B4207D9491900F1FF3202D28B4224
S2140131E000F2BA801046C91AA4B2B1FBFEF30EFB78
S2140131F0131144EA014407FB03F7A74208D96419EF
S21401320003F1FF3280F08F80A74240F28C80023BB0
S21401321043EA00403146BDE8F0810026304631469B
S214013220BDE8F081C6F1200422FA04F5B3402B4331
S21401323020FA04FC01FA06F721FA04F54FEA134EC8
S2140132404CEA0707B5FBFEF8390C0EFB18551FFABA
S21401325083FC41EA05450CFB08F1A94202FA06F295
S21401326004D9ED1808F1FF3467D3A0466D1ABFB232
S214013270B5FBFEF40EFB145547EA05410CFB04FCB6
S2140132808C4504D9C91804F1FF355CD32C4644EAB1
S2140132900844CCEB0101A4FB0223994248D344D055
S2140132A0204600266CE7C8F1200401FA08F305FA67
S2140132B008F520FA04F7E1404FEA154E1F43B1FB2B
S2140132C0FEF63A0C0EFB16111FFA85FC42EA014384
S2140132D00CFB06F29A4200FA08F407D95B1906F1CC
S2140132E0FF3137D29A4235D9023E2B449B1ABFB2E0
S2140132F0B3FBFEF00EFB103347EA03430CFB00F171
S214013300994207D95B1900F1FF3221D299421FD9A0
S21401331002382B445A1A40EA0646674650E71046DA
S21401332016E70B4629E7134672E7B0409042B7D23C
S214013330601E002624E7304622E7A94295D9A8F167
S21401334002081D4492E78C45A0D9023C19449EE729
S2140133501046DFE70E46C9E70238294443E700BFB7
S214013360844641EA000313F003036DD1403A41D38A
S21401337051F8043B40F8043B51F8043B40F8043B49
S21401338051F8043B40F8043B51F8043B40F8043B39
S21401339051F8043B40F8043B51F8043B40F8043B29
S2140133A051F8043B40F8043B51F8043B40F8043B19
S2140133B051F8043B40F8043B51F8043B40F8043B09
S2140133C051F8043B40F8043B51F8043B40F8043BF9
S2140133D051F8043B40F8043B51F8043B40F8043BE9
S2140133E051F8043B40F8043B51F8043B40F8043BD9
S2140133F0403ABDD2303211D351F8043B40F8043B79
S21401340051F8043B40F8043B51F8043B40F8043BB8
S21401341051F8043B40F8043B103AEDD20C3205D388
S21401342051F8043B40F8043B043AF9D2043208D080
S214013430D2071CBF11F8013B00F8013B01D30B88F2
S21401344003806046704700BF082A13D38B078DD0D0
S21401345010F003038AD0C3F10403D21ADB071CBFA2
S21401346011F8013B00F8013B80D331F8023B20F80C
S214013470023B7BE7043AD9D3013A11F8013B00F845
S214013480013BF9D20B7803704B7843708B788370CD
S214013490604670472DE9F04F1448DFF864800178E4
S2140134A0DFF860C0DFF860E0114F124E124D134C8A
S2140134B0DFF85890DFF858B0002300224FF0000ADA
S2140134C0C8E90023CCE90023CEE90023C7E900239D
S2140134D0C6E90023C5E90023C4E9002341F004033B
S2140134E0C9E900AB0370BDE8F08F00BFAC01002056
S2140134F068020020500100206801002070010020B1
S214013500E80000205802002060020020A0000020F1
S21401351000000840000000002DE9F04FDFF8ACA3E2
S214013520CB4EBAF800302DED088BB1B09BB20093AC
S21401353006F0E4FE14A80021B0EE40BA06F0F4FE50
S214013540347814F0010300F00A82C24B0293B3F9F7
S2140135500030DFF87CB3002B40F05C83BBF9003011
S214013560B3F5167F40F35B833378BB4ABB4DBC4F44
S214013570DFF86093BB4901924FF00008002003F08A
S214013580FE0343F002033370C5E90089C2E9000176
S214013590C7E900019DED148ADDED168AB24C78EE7E
S2140135A0286AF1EE66AA1AA8012106F0BDFED5E941
S2140135B00001FFF76FFB033880B2022800F2858313
S2140135C0DDED1A6A9DED1C7A76EE877AF1EE677A62
S2140135D0A64EB6F90030022B40F366838DED2A8A9B
S2140135E0CDED2BAACDED2C8ACDED2D6ACDED2E7A23
S2140135F08DED2F7AB0EE681AF0EE6A0AB0EE480A40
S21401360006A806F0BFFED7E90001FFF743FB00B2AC
S2140136100028DFF8C482DFF8C4921CDDD9ED007AF9
S2140136209349944B98ED007A934A9FED940A944FF0
S214013630B1F90000069911606BEE277A2BEE077A36
S214013640C3ED007A8F4B079A87ED007AF0EE400AB9
S2140136501A6004F097F88C4B8C4AD3ED007A92ED01
S214013660009A69EE277AF5EEC07AF1EE10FA40F28A
S214013670A1850027019A83ED009AD2E90001FFF7A0
S21401368009FB00B2002840F3F283B6F90030052B9F
S21401369000F05B84D5E90001FFF7FCFA00B20528CB
S2140136A000F081850020DFF838C2014609B2B0EE8D
S2140136B0496A3A469DED2A0ADDED2B0A9DED2C1A44
S2140136C0DDED2D1A9DED2E2ADDED2F2A94ED003A23
S2140136D0D4ED013A94ED024A98ED005AD9ED005A1C
S2140136E0CDF804C0F0EE4B4A03F0FAFCDDF804C056
S2140136F0674A684BD2ED007A93ED009A664FFDEE6D
S214013700E77A97ED007ACDED017AFDEEC96AFDEE16
S214013710C77A16EE902ABDF80430ABF80030AAF846
S2140137200030ACF8002017EE903A029AD5E9000175
S2140137301380FFF7AFFA00B2032800F0A58305282F
S21401374000F00183022800F0FE82DFED4C7A534B35
S214013750B0EE67AAC3ED007A514B1B78002B00F040
S214013760FE82504BDFF87CB11B68CBF800304E4B25
S2140137701B78002B00F0E0824C4BDFF86CA11B6835
S214013780CAF800304A489BED000A04F0BDF99AEDEC
S214013790009ADBED007A474820EE099AB0EE670AF8
S2140137A004F0B2F9DAED009ADFED437A60EE299A79
S2140137B029EE277A69EEA77A08A9B0EE4A0A0EA87A
S2140137C08DED0E7ACDED0F7A06F014FED5E90001E7
S2140137D0FFF760FA00B2032800F04483BDF800C08A
S2140137E0B2EE080A8BEE000ABCF1000F40F06483CB
S2140137F0F6EE000A08A820A906F034FE209A219BBE
S2140138000C920D9304A99FED2D0A0CA806F00AFF51
S214013810059A049BC9F80020D5E90001C8F80030D4
S214013820FFF738FA00B2032800F0AA82B6F9003092
S214013830DFED127A224A032BC2ED007A00F0B48241
S214013840204E214A002333607360B36013604DE05D
S2140138503002002034020020F80000201802002068
S214013860D00100200000F03FD000002038010020E9
S21401387028A4FF1F680A00206C0A00200000000030
S214013880600A0020640A00202C0200203400002078
S214013890DC020020D4020020BC020020140100201B
S2140138A00080FF1F5080FF1F0180FF1F5480FF1FF5
S2140138B07C550200385702000AD7233C3333733F46
S2140138C05800002088000020FC010020AA020020E9
S2140138D05000002000001440E000002010020020EC
S2140138E078010020A402002094020020BDF90030D7
S2140138F0DFF80C8307EE903AA94BF8EEE77AB0EEC4
S2140139004A0A06A80AA9C3ED007AB0EEC8AA06F0CC
S21401391051FDF0EEEA7AB4EEE7AAF1EE10FAD8BF5E
S214013920B0EE67AAF0EEE87AB4EE67AAF1EE10FA06
S214013930D5E9000148BFB0EE67AAFFF7ABF9B8F8C2
S214013940002080B2824203B25DD0023B042B56D8DF
S214013950DFE813F0A503780355003603550004F09D
S21401396002020AB3DFF89CB2BBF90020B2F5FA7F77
S21401397080F2CF838B4F019763F3410439468A481F
S214013980DFF88492894B8A4D8A4F02904FF00008E7
S2140139900022E4B244F001043470C5E90089C1E9AB
S2140139A00023C7E90023F5E504F00403002B00F02B
S2140139B0D083814F814BD7E9008900224046494692
S2140139C0FFF75EF9002800F093847849754ADFF81E
S2140139D03892774D774F019204F0FB0300204FF0A9
S2140139E00008714C029443F001033370DFF814B2FF
S2140139F0C5E90089C2E90001C7E90001CAE5704BC3
S214013A00704919600246DFED707AA8F80020B4EE1E
S214013A10E7AAF1EE10FA00F3AC819DED077A9DED71
S214013A20066ADFED6A7AD4ED016AD4ED002A94EDD8
S214013A30023A97ED005A33686549664ADFED663A01
S214013A40236027EE077A26EE066A87EE277A634812
S214013A50DFF8B8E1DFF8B8C1614D7768B66867602E
S214013A60A66086EE276A87EE277AC6EE277A6AEE82
S214013A70A66A77EE277AB0EE667AA8EE227AFDEE8F
S214013A80C56AA8EE837A16EE903AFDEEE96ADFED96
S214013A90554A91ED004A138027EE237A16EE902AB6
S214013AA0FDEEC96AA4EE247AACF8002016EE903A30
S214013AB0FDEEE86AD0ED005AAEF80030F5EEC07AB9
S214013AC016EE903AF1EE10FA81ED007A65EEA46AF0
S214013AD02B8040F24B81B7EE007AF4EEC77AF1EE16
S214013AE010FA80F2E681404E64240021A3B25A18EF
S214013AF0C2F34F0206EB820595ED007A3A4DF4EEDD
S214013B00C77AF1EE10FA48BF134603F1FF33D2B27B
S214013B101BB254BF114614469942E7DB09B2334B38
S214013B209FED2A4ADFED2C4A89000D44194491ED98
S214013B30007A95ED005A91ED016AD5ED015A36EEFF
S214013B40476A77EEC57A75EEC55A26EE276A86EE7F
S214013B50256A37EE067A27EE047A67EE247A244B36
S214013B60244E93ED007A244C244A76EEA77ABDEED5
S214013B70C77AFDEEE76A8DED007A16EE905AFDEEF5
S214013B80C86A9DF80030C0ED007A16EE901A3370C0
S214013B902580118031B0BDEC088BBDE8F08F00BFE9
S214013BA004010020F8000020340200200000F03F4D
S214013BB018020020D0010020D801002000407F40DC
S214013BC088A4FF1F49102E390000344300004843E3
S214013BD08C020020060200200AD7233CB0000020F9
S214013BE020010020A4707D3F88550200BC520200CF
S214013BF0D8020020AC02002002020020180100209A
S214013C00F00000205000002000000840980100202D
S214013C10C8010020D04B1B78022B7FF49FACCF4D00
S214013C20D5E90001FFF736F8033880B2CC4B019393
S214013C300228CC4F7FF6AEACCB4CDFEDCC7A94EDC0
S214013C40027AB4EEE77AF1EE10FA40F31681DDED72
S214013C50147ADDED158A77EEA88AF1EE688ADFED33
S214013C60C47A94ED017AB4EEE77AF1EE10FA40F3F5
S214013C700181DDED167ADDED146A77EEA66AF1EEC6
S214013C8066AADFEDBA7A94ED007AB4EEE77AF1EE41
S214013C9010FA40F3F580DDED157A9DED168A37EEC4
S214013CA0888AB1EE488A7EE49FEDB20A0023F0EEE0
S214013CB0400AB0EE401A2793289329932A932B9310
S214013CC02C932D932E932F939AE4DFEDA87A94EDFF
S214013CD0027AB4EEE77AF1EE10FA40F3E380DDED16
S214013CE01A7A9DED1B7A37EE877AB1EE477ADFEDC9
S214013CF0A07AD4ED016AF4EEE76AF1EE10FA40F329
S214013D00CE80DDED1C7ADDED1A6A77EEA67AF1EE4D
S214013D10677ADFED966A94ED006AB4EEE66AF1EE34
S214013D2010FA40F3C280DDED1B6A9DED1C6A76EE4B
S214013D30866AF1EE666A4BE48F4BDFF878A21B6861
S214013D40CAF800301EE58D4B9FED8DAA83ED009AD3
S214013D508C4B1B7829EE0AAA002B7FF402AD8A4B06
S214013D60DFF854B21B68CBF8003000E5DFED817A4E
S214013D70F5E6002006F0E0FA844B01221A704CE6C4
S214013D80D7ED007A824AFDEEE77ACDED017ABDF9EC
S214013D90043007EE903AB6F90030F8EEE77A032BD6
S214013DA0C2ED007A7FF44CAD20A904A806F042FBD0
S214013DB007EE900A774BF8EE677AD5E90001C3ED76
S214013DC0007AFEF767FF033880B20128DDED206A2E
S214013DD09DED217ADDED227A40F2BF829FED646A85
S214013DE0F4EEC66AF1EE10FA40F322826A4EB0EEA5
S214013DF0460A86ED006ADFED5E0AB4EEE07AF1EE81
S214013E0010FA00F30F82DFED5B0AB4EEE07AF1EE12
S214013E1010FA00F10782F0EE470A86ED017A9FED6F
S214013E20541AF4EEC17AF1EE10FA00F3F8819FED20
S214013E30511AF4EEC17AF1EE10FA00F1F081B0EE0B
S214013E40671AC6ED027A06F039FAD6ED007A9FEDCA
S214013E50537A534A67EE877AFDEEE77A17EE903A81
S214013E60137043E5089A099B0C920D93CAE4DFF898
S214013E704CC13DE4DDED15AA03E7DDED168AEEE65D
S214013E809DED148AFFF78FBB464A3C4BD2ED007A74
S214013E909FED3BAAC3ED007A27EE8AAA5CE4DDED2E
S214013EA01B7A36E79DED1C7A21E7DDED1A6AFFF7EE
S214013EB08FBBF0EE007A52E642F20F739C4500F299
S214013EC06E81DFF8E4B0032000211FFA80FE0EEBBE
S214013ED00102C2F34F03DAB23BF813A0D44528BF60
S214013EE0734603F1FF3328BF11461BB238BF104695
S214013EF099422D4AE9DB09B22C4802EB410332F81C
S214013F0011205B8800EB8101D1ED000AD1ED017A29
S214013F10F4EEE70A9B1AC2EB0C0CF1EE10FA9BB218
S214013F201FFA8CFC00F2958137EEE07A07EE90CA14
S214013F3006EE903AF8EE677AF8EE666A67EE277A4A
S214013F40C7EEA67A70EEA70A54E4194BDFF86CC0E8
S214013F5019880120FFF7AABBF801002018020020EB
S214013F60F8000020D0010020D00000209A99593F87
S214013F7048E17A3F000000002C01002014010020D7
S214013F8035FA8E3C0080FF1F3400002048010020D7
S214013F9058000020FC010020880000200000C842D4
S214013FA04C020020B4020020505402007852020055
S214013FB0B800002094020020A4020020780100200E
S214013FC0AF4BB048B04A1968B04BD0F800E0DFF804
S214013FD0F8921268119110A80021CDF848E01392CA
S214013FE0C3F80090CDF8409006F0E6FADFF8ECC290
S214013FF0DFF8D8E2A648A749A74AA84BDCF800B0E4
S214014000DEF800A0D0F800C0D1F800E012681B6806
S214014010CDF88C9020A80021CDF880B0CDF884A0F2
S214014020CDF888C0CDF890E02592269306F036FAB2
S2140140300020014606F044F9D5E90001FEF72AFE04
S21401404082B2E0E4964B97488F4A19688F4BD0F8B6
S21401405000E0DFF874921268119110A80121CDF8E2
S21401406048E01392C3F80090CDF8409006F0A4FA09
S214014070DFF868C2DFF854E285488B498B4A874BE4
S214014080DCF800B0CDF88C90DEF800A0D0F800C0C7
S214014090D1F800E012681B6820A80121BCE7784B24
S2140140A07848794A1968794BD0F800E0DFF8309201
S2140140B01268119110A80021CDF848E01392C3F8B8
S2140140C00090CDF8409006F077FADFF810C2DFF8DE
S2140140D0FCE16F486F49704A704BDCF800B0DEF8BF
S2140140E000A0D0F800C0D1F800E012681B68CDF837
S2140140F08C9020A80021CDF880B0CDF884A0CDF812
S21401410088C0CDF890E02592269306F0C7F90120E5
S2140141108FE7B2F57A7F40F3888063F34104644BFE
S2140141206449654D01939FED547BE4B21A46634F93
S21401413044F008034FF000084FF0000900203370E8
S2140141405F4B029385ED007BC2E90089C7E9000158
S21401415072E5230740F1E080DFF888B1BBF9003053
S214014160B3F52F7FC0F2E98043F2C82293425CDDAB
S21401417004F0F703DFF87091514C4F4D514A029409
S2140141804FF0000800200021494C019443F004033D
S2140141904A4F3370C5E90089C2E900014CE5F7EEE4
S2140141A0000AFFF727BBDFF844C10120BCF8001066
S2140141B0FFF77CBA3A483B49334A076808681168F2
S2140141C0324A11971290404F139110A80121039380
S2140141D01760109706F0F0F9DFF800E13B482C492C
S2140141E0314ADEF800C0D0F800E0086811682F4AAE
S2140141F023971768294A22901268249120A8012142
S2140142002597CDF880C0CDF884E026920F4606F0BB
S21401421045F92F4B93ED009A039BFFF72BBA86EDDA
S214014220021A10E6C6ED010AF9E5254B0293F6E4FB
S2140142309FED286A284EF4EEC66AF1EE10FA47BFE3
S214014240B0EE460A86ED006AB0EE660AC6ED006A72
S214014250D1E530EEE77A07EE90CA06EE903AF8EE30
S214014260677AF8EE666A67EE277AC7EEA67A70EE88
S214014270E70AFFF7BFBA00BF0000000000000040D9
S2140142803C80FF1F4480FF1F4880FF1F88A4FF1F3C
S2140142904C80FF1FC880FF1FD080FF1FD480FF1FE8
S2140142A03880FF1F4080FF1FC480FF1FCC80FF1F88
S2140142B0F80000200000F03F18020020D001002086
S2140142C034020020D801002049102E395880FF1FE3
S2140142D03400002000000000880000205C80FF1FE2
S2140142E017B7D13850000020000018407801002090
S2140142F00022254B254DDFF8A4B040464946FEF77F
S2140143007DF8234B0293C7E90001D5E90001FEF7CA
S214014310C1FC033880B289E41E4F1D480197394617
S2140143204FF00008DFF87890174B184D1A4F02909F
S2140143300022DFF868B0FFF72DBB04F0F703154A3B
S214014340134CDFF860901049104D01924FF00008B1
S2140143500020114F0294FFF714B9F4EEC76AF1EE8C
S21401436010FA54BFB0EE476AB0EE666AB4EE676AFA
S214014370F1EE10FAC8BFB0EE676A76EEC66A37EE9F
S214014380467A77EEC67A29E50000F03F180200204B
S21401439034020020F8000020D00100205000002048
S2140143A0000008400000144008B5032005F0DCFFBB
S2140143B0BDE8084004F066BE08B5042005F0D4FF49
S2140143C0BDE8084004F04ABF704700BFF8B50020BA
S2140143D005F0CAFF084C094B094A19682768136893
S2140143E0084E094D2060CB1AC01B00EB034000238A
S2140143F0116030602B60F8BD700200203000002094
S21401440074020020A8000020A8010020704700BF09
S214014410F8B5022005F0A8FF084C094B094A1968AF
S21401442027681368084E094D2060CB1AC01B00EBA5
S21401443003400023116030602B60F8BDF0010020BE
S2140144403000002028020020B4000020C001002017
S214014450024A13680133136004F0E2BF3000002003
S214014460704700BF10B5002186B0022005F060FF3E
S2140144704FF4006302A8ADF80830ADF80A30ADF885
S2140144800C3005F039FF9FED130ADFED130A9FED9F
S214014490131A05F073FF002005F04EFF03F094FE9B
S2140144A003F08CFE0120014605F00AFF072204A84E
S2140144B0012110F077FD012404A801A98DF804401C
S2140144C08DF8054006F0D2F82046072105F0F4FEE7
S2140144D006B010BDA69B443B00C0284500409C4644
S2140144E000B587B003A801A90DF1020203F0E0FEB2
S2140144F002A804A90DF1010205F0DCFE28B1029B19
S214014500812B02D19DF8123013B907B05DF804FB78
S21401451005F032FF07B05DF804FB00BF2DE9F04758
S214014520A148A24AA24BA34CA349D0F80090D2F8C6
S21401453000C0DFF830E3A148A14ADFF82C83A14F81
S214014540A14EA24D1B78247809883B7084B0337045
S2140145500480C8F80090CEF800C01180FEF7DCFF9A
S2140145602B8801339BB21CB2282C00F0C88040F384
S2140145708B803C2C52D0502C40F0BF8005F0E0FEE2
S214014580934B944ADFF8E4E21278934F1C88934EDB
S2140145909349B3F800808DF80B009EF800C08DF8A3
S2140145A00820B7F800E037780E788DF80A800123E6
S2140145B0C4F30724C42002A908228DF809408DF807
S2140145C00CC08DF80DE08DF80E708DF80F6005F0BB
S2140145D06FFE00232B80834A834C8448844B854995
S2140145E01F681568844BD4F80090D0F800C0D2F844
S2140145F00480D2F808E0814C8148824E0968824ADC
S214014600C4F80090C0F800C037601D60C3F804808D
S214014610C3F808E0116004B0BDE8F0877B4A7C4926
S214014620D2ED007A7B4B7C4A1B88B1F800C0B2F809
S21401463000E08DF80930B2EE047A67EE877AB2F8B8
S21401464000808DF80DC0FCEEE77A1F0ACDED017AE9
S214014650BDF804608DF80B604FEA1C29CEF3072ED7
S2140146604FEA162AC32002A9082201238DF80AA0C0
S2140146708DF808708DF80C908DF80EE08DF80F808F
S21401468005F016FE2C80A6E7142C36D1634F644E37
S21401469064486549654A664B1B7897F800A096ED15
S2140146A0007A90F8009091F80080D2ED007A614986
S2140146B0614AB1F800C0B2F800E08DF80830BCEEEF
S2140146C0C77AFCEEE77A17EE107A17EE906AC120E9
S2140146D002A9082201238DF809A08DF80B908DF808
S2140146E00E808DF80A708DF80F608DF80CC08DF86D
S2140146F00DE005F0DDFD2C806DE72B806BE7337850
S214014700042B42D0052B45D0062B48D0072B0ABFD9
S2140147104A4B00231B888DF80A30494B4949D3ED93
S214014720007A494B494AB3F90060494BB1F900E0B8
S214014730B2F90070474A1B78B2F800C08DF809300C
S214014740B2EE047A67EE877A4FEA6E0EFDEEE77AEE
S2140147500123CDED017ABDF804408DF80F407F109E
S2140147604FEA14287610C22002A908228DF80E807E
S2140147708DF808E08DF80C708DF80D608DF80BC083
S21401478005F096FD28232B8025E7334B1B888DF8F3
S2140147900A30C2E7314B1B888DF80A30BDE7304B33
S2140147A01B888DF80A30B8E7E400002008020020D4
S2140147B078000020DC00002088020020380100205C
S2140147C0B8000020F8010020220000200C01002083
S2140147D0A0020020AC020020980200209C020020CB
S2140147E09D020020880000205800002004010020BF
S2140147F0FC01002014010020BC0000201001002054
S21401480078020020CC000020300100209400002017
S21401481006020020F6010020AA020020A8020020BD
S21401482094020020910200209E020020A402002093
S2140148309002002098010020C8010020C800002036
S2140148408C02002018010020200100200202002016
S2140148504C020020360200200C020020B00100208D
S21401486090010020340000202C010020A902002025
S2140148702DE9F04FBD492DED028B0B68B3F5C87FCE
S214014880A1B03CD2BA4A1268002A3DD0B94890FB82
S214014890F2F207EE902A9FEDB87AF8EEE77A013346
S2140148A067EE877A42F20F70FDEEE77A9BB2CDEDA6
S2140148B0037ABDF80C200B6014B28442C8BF0023F3
S2140148C000DC1346AD4AAE4E1380002005F036FDDF
S2140148D00390012005F032FD834605F00FFD337885
S2140148E003F00703013BF0EE408A042B00F22E850D
S2140148F0DFE813F024033403500374030E0001337E
S2140149001BB20B600022DCE701339BB20B60D8E7D9
S214014910F1EE087AB4EEE70AF1EE10FA04DD337828
S214014920042262F302033370DFF8A4829FED958AB6
S214014930B8F80030944F01331BB243EAE373652B9A
S214014940A8BF6523A8F8003005F0FAFC07EE900A28
S2140149508E4B9FED8F7AD3ED006A3E78F8EEE77ABC
S21401496016F0010927EE888AA6EE878A83ED008A6B
S21401497000F04C84DFED877AB4EEE78AF1EE10FAA8
S21401498004DD06F0FE0646F002063E70002005F045
S214014990DBFC07EE900A9FED807AF8EE677AC7EEA9
S2140149A0877AF5EEC07AF1EE10FA40F24F8417EEF0
S2140149B0900AFDF781FE41EC100B10F02DF851EC3A
S2140149C0100BFEF7AFF907EE900AF5EE407AF1EE1E
S2140149D010FA41F0D1819FED718A714DDFED6C7A4D
S2140149E095ED007A6F4CA7EE278A237803F007032C
S2140149F0013B85ED008A042B00F29984DFE813F071
S214014A00E3012100D80205000902DFF8C891664BD0
S214014A10D9E90067002230463946FEF731F9002809
S214014A2000F0C983614A624F2378002600200021E6
S214014A304FF0050EC2E90067C9E900016EF30203F3
S214014A402370DFF894A19AF8009019F0010C00F099
S214014A50F581BBF1010F00F08884564C237803F0F2
S214014A600F03013B0A2B00F20085DFE813F02A034F
S214014A700E033E03F1020B00680368030B000B00F4
S214014A800B000B004C4BD3E90001FEF703F983B290
S214014A902278DFF84881DFF848A1DFF8489107213E
S214014AA061F303020421227088F800100220AAF89C
S214014AB0003005F043FC8246002005F043FC3F4BE6
S214014AC03F49404A188012880F88DFED327A1B88EA
S214014AD009883D4C9FED2B4AD4ED004A9FED2C5A98
S214014AE098F80000394E92B2BFB207EE102A06EED1
S214014AF0907AB8EE477AF8EE666A9BB277EE666A07
S214014B0089B286EEA76A013807EE903AF8EE676A30
S214014B1007EE901AF7EE005AB8EE677AB4EE656AB9
S214014B20F1EE10FA36EEC77A48BFB0EE656AC7EE08
S214014B30067A67EE847AE4EE857ABDEEE77AC4ED0E
S214014B40007A8DED047ABDF9103023EAE373642B05
S214014B50A8BF64239BB23380042800F2DC83DFE81D
S214014B6010F02601FC00E100CE004300A801002061
S214014B70A80000200087930349926440F6010020B4
S214014B8074000020CDCC4C3DE80100202801002017
S214014B903333733F0000C842FA4BF43D00004842ED
S214014BA0600100203C02002000002440B8010020E3
S214014BB00000F03F4C000020E00100209A02002097
S214014BC00480FF1F0280FF1F24010020980200209E
S214014BD0000100204000002050020020DC000020E0
S214014BE0360100207C000020B048B149B14A0023BC
S214014BF0036000200870136005211EAE1DAFAE4B8A
S214014C001A788A4202D0032A00F08183AB4A1970CF
S214014C101368B3F5C87F80F0F182A94909680029B5
S214014C2000F04A8307EE901ADFEDA66A9FEDA66AAA
S214014C309FEDA67AF8EEE77A0133C6EEA77A9BB225
S214014C401360F4EEC67AF1EE10FAA8BFF0EE477ADA
S214014C509F49A04B99F800409F4AC1ED007A304623
S214014C6039461C7002F064FBBDF978109B4C00318C
S214014C7018BF0121012005F05BFBB4F9003098F85C
S214014C8000209A420ED0013A042A06D8DFE812F034
S214014C9005000500CB010500D101002005F04CFB05
S214014CA098F800209FED8E0AD5ED007A8D4B228074
S214014CB028EE800AFDEEE77ABCEEC00A17EE904AAF
S214014CC0DFF868C28DED040A1C80BDF81030ACF820
S214014CD00030854F854E864D8648874999F800E015
S214014CE09DF80C3087F800E0327085F800A080F857
S214014CF000B00B7021B0BDEC028BBDE8F08F012136
S214014D00022005F015FB002005F016FB67486849F0
S214014D10684A0023036000200870136004211EAE59
S214014D201DAF6CE7754932880B7812B203F00F039A
S214014D30132A03F1FF33D4BF00220122092B00F20C
S214014D40FD85DFE813F00D06E70582057B05700695
S214014D505706AD0495043F04D003694E694C6A4F6B
S214014D60002005F0CDFA336803440120336005F0D6
S214014D70C7FA236803440A20236005F0C1FA634991
S214014D803A680B8801339BB21044B3F5FA7F38605A
S214014D900B8001F033801EAE44484549454A002346
S214014DA0036000200870136002211DAF27E73F480B
S214014DB03F49404A00230360002008701360012128
S214014DC01EAE1DAF1BE7DFED527ADFF86491B4EE3D
S214014DD0E78AF1EE10FA00F30B83D9E900670022A7
S214014DE04C4B30463946FDF74BFF002800F0EB816F
S214014DF02378494A4FF0020E00264FF080470020E4
S214014E0000216EF302032370C2E90067C9E90001BD
S214014E1017E6DFED427AB4EEE78AF1EE10FA7FF597
S214014E2010AEDFF810A123789AF80090042262F3FE
S214014E30020319F0010C23707FF40BAE09F0020394
S214014E40002B00F03F82364C364BCDF810C0D4E92B
S214014E500067002230463946FDF7EAFEDDF810C04D
S214014E60002800F0BB826CF341095FFA89F9DFF88C
S214014E70C8C00022002349F004098AF80090CCE952
S214014E800023294C237803F00F03013B0A2B01F280
S214014E90E286DFE813F01801FC006101DF00B901CA
S214014EA00D030D03B901B901B901B901E4000020F0
S214014EB0780000200802002079000020C0010020B0
S214014EC0B40000200064164800401C4600000000A4
S214014ED094000020240A002030A4FF1F5200002066
S214014EE000007A4436020020A90200209002002029
S214014EF09E0200209C0200209D0200204802002005
S214014F0094010020AC00002008010020F4010020DC
S214014F10000034C200002440B80100200000BE4258
S214014F208002002000408F404C000020A00200209C
S214014F304000002050020020E0010020F3EE007A3D
S214014F40B4EEE70AF1EE10FA2CDCF1EE087AB4EED4
S214014F50E70AF1EE10FA7FF5E7ACE0E4C44FC54B83
S214014F60D7E90045002220462946FDF789FE00289C
S214014F7000F032813378C04AC04D4FF0030E002452
S214014F80002000216EF302033370C2E90045C7E931
S214014F900001C9E4F1EE087AB4EEE70AF1EE10FA80
S214014FA07FF5C2AC3378022262F302033370BBE4AE
S214014FB0DFEDB37AB4EEE78AF1EE10FA3FF731AFE0
S214014FC0DFEDB07AB4EEE78AF1EE10FA7FF539AD8F
S214014FD02378012262F30203237032E5F1EE087AA8
S214014FE0B4EEE70AF1EE10FAA14F00F33082D7E9EA
S214014FF0004500229F4B20462946FDF741FE00282A
S21401500000F0F28033789C4A4FF0050E00244FF0F2
S2140150108045002000216EF302033370C2E900458B
S214015020C7E9000180E4012005F086F998F8002020
S21401503038E64FF4FA71032005F088F9012005F0EF
S2140150407BF90320FF2105F03BF998F8002029E6BB
S214015050DFF838C28C4B1A8840F225218A4236D9AD
S2140150602678DFF84082DFF840A2DFF8409203227C
S21401507062F3030600271F80DCE90001267088F82A
S2140150800020FDF707FE83B210E5DFF800C27E4B75
S2140150901A88312A1BD92278DFF80882DFF808A29D
S2140150A0DFF80892042161F30302022700261E801E
S2140150B0DCE90001227088F80070FDF7EBFD83B291
S2140150C0F4E4DFF8C8C1704B1A88132AC8D8013235
S2140150D01A80DCE90001FDF7DDFDDFF8C881DFF8A5
S2140150E0C8A1DFF8C89183B2E0E4DFF8A0C1634B42
S2140150F0CDF810C0DCE90067002230463946FDF7DE
S21401510097FDDDF810C048B3DFF89CA1BAF900306E
S214015110002B40F08B865C4922780B80DFF8848177
S214015120DFF88891012363F30302052388F8003032
S214015130DCE900012270FDF7ADFD83B2B6E4534B06
S214015140DFF86081DFF860A1DFF86091D3E9000144
S214015150FDF7A0FD83B2A9E400260027DFF848A1E9
S2140151604B4B1B78012B00F0AC81B8F90030CDF821
S21401517010C0632B40F31C863F4BD3E90001FDF7BB
S21401518089FD5FFA80F8B8F1010FDDF810C040F034
S214015190D2852378DFF81491DFF808810A2262F3BA
S2140151A0030305222370DCE9000189F80020FDF7DE
S2140151B071FD83B27AE4DFED377AB4EEE78AF1EE79
S2140151C010FA00F115813046394600222B4BFDF7C7
S2140151D015F9C9E9000134E4F3EE007AF4EEE78A42
S2140151E0F1EE10FA00F13381204629460022234BC6
S2140151F0FDF704F9C7E90001FFF796BB01331BB2BF
S2140152001360DFED2C7A23E5002341E4B5076ED564
S214015210DFF89CA0174BDAE9004500222046294614
S214015220FDF72EFD002800F0FC8069F34106134DC2
S2140152301949F6B200240022002346F004063E7007
S214015240C1E90045CAE90023FFF7A0BBDFED137AE9
S2140152509FED138AFDEEE77ACDED047ABDF91030A5
S21401526007EE903AF8EEE77A27EE888AFFF7B5BBA5
S2140152702800002000005940580100200000F03F9F
S2140152800000C842000048C200020020E0010020E1
S214015290480100200000BE4220020020339388C34C
S2140152A0CDCC4C3DDC000020360100207C000020E7
S2140152B0600000200000000001339BB213605FED28
S2140152C0037AC5E419F0040F00F0A080BBF1010FCA
S2140152D03FF4C3AB09F0FB09DFF8C8C20022002384
S2140152E049F001098AF80090CCE90023C9E5740762
S2140152F03FF54CAB9C489D490022002346F0010631
S214015300C0E90023C1E900233E70FFF73FBB984A7E
S214015310002010707AE497489749984A0023036062
S21401532000200870136006211EAE1DAF67E42378C7
S214015330934F944E03220020002162F30203C7E933
S2140153400001C6E900012370FFF77BBB33788E4D61
S2140153508E4C01220020002162F30203C5E9000100
S214015360C4E900013370FFF7DFBA894CB4F90030A5
S214015370B3F5487FBFF671AB864C874A2378DFF8D2
S21401538024C2864909F0FE0903F00F030026002710
S214015390002049F00209013B8AF80090C2E9006743
S2140153A0CCE900010A2B01F2538401A252F823F042
S2140153B0C75001008F5001000951010055500100EE
S2140153C0AB5401005B5B01005B5B0100AB54010069
S2140153D0AB540100AB540100AB54010030463946D2
S2140153E000226E4BFDF70AF8C4E90001FFF735BB52
S2140153F02178634803260022002366F30201217008
S214015400C9E90023C0E90023FFF71BBBDFF894C1FD
S2140154100022002349F001098AF80090CCE9002314
S2140154202FE5DFED5F7AB4EEE78AF1EE10FA32D5BA
S21401543060F34106F6B24C490022002346F001060D
S2140154403E70CAE90023C1E90023FFF79FBA31780D
S2140154504D4801240022002364F302013170C7E99C
S2140154600023C0E90023FFF75FBA4E4BD3E90001E2
S214015470FDF710FC83B22278DFF83C81DFF83CA10F
S214015480DFF83C91022161F303020121227088F8C2
S2140154900010FFF70BBB2046294600223F4BFCF7C6
S2140154A0ADFFCAE90001FFF771BA0123FFF7F0BAB1
S2140154B0DFF80481DFF804A1DFF804910023FFF789
S2140154C0F5BADFF8FC90227889F80030052363F3FB
S2140154D00302304639462270FDF7DCFBDFF8D88040
S2140154E083B2FFF7E3BAFCEEE87ACDED047ABDF8B5
S2140154F01030072B40F2A681254CB4F90030B3F5E5
S214015500FA6F00F35585BAF1000F00F05185039B41
S214015510012B00F04D85244A106840F6B8339842B6
S21401552000F0C88021490B680130632B106041F2FE
S2140155303581C82B01F090811D4A059210461D4AFF
S21401554004921446013301220B60237802705A1E1E
S214015550062A00F27F84DFE812F090014F03780BF1
S214015560FE02DF037202CC0220020020600000204F
S21401557098000020E40000207800002008020020A7
S214015580B80100204000002058010020280000201B
S214015590340100204C000020800200200000F03F73
S2140155A00000C842E0010020CC01002038020020A3
S2140155B07A01002038000020DC000020360100209F
S2140155C07C000020B64C238818B2B0F5167FC0F2D6
S2140155D0B581BBF1010F40F09887002A00F095874E
S2140155E0B04B0A7804931F46AF4B0593042363F32D
S2140155F00302AE480A7000223B7002603188B4F99B
S2140156000000AB4BAB4C00931BAAAB4B089409B202
S214015610B0EE680AA94C069402F0BCFAA84B328890
S2140156201A80049BDDED1B7A1B7804221EAE1DAF8B
S2140156309FEDA47A0899F4EEC77A0A70069AF1EEFD
S21401564010FA138040F36C839F4B83ED007A059B21
S21401565019780020091A18BF012104F069FE049B7D
S2140156609A499B4A1B780B7013700321FFF7C7BA40
S214015670984A1378012B00F0AF82894CB4F90030B8
S214015680B3F5487F00F3D683BBF1010F01F0BE806E
S214015690844B854905910021049311701B7856E7C8
S2140156A0824A1368B3F57A7F03D00398012800F085
S2140156B0A9877B4C7B480B78049007467A4805906F
S2140156C0062060F30303032600200B703E70106073
S2140156D0784B08931B78032B784B069300F0C08316
S2140156E01B887D4A0021032B118000F0C283002114
S2140156F009917A4813807A4F7A4B006818607A4984
S2140157003B88B4F800C077480968784A4160634529
S2140157108260C0F0DA84764B93ED007A754FDFED48
S214015720767A3B886F4A77EEC77A6345C2ED037A8D
S214015730C0F08784714BD3ED006A714BDFED6E7A52
S2140157401A6893ED007A674B77EEE67AB1EE477A00
S2140157505A6183ED067AC3ED047ABCF1000F40F07E
S2140157602A84B2EE090A674B00931EAE1DAF1CAB2E
S21401577009989FED651A31463A46F0EE680A02F03E
S2140157804DF9624BB4F800E01B88734580F0F7834F
S2140157905E4BDB88734540F269860320002109963B
S2140157A084B26218C2F34F03584E36F813C0E6456A
S2140157B0DAB228BF234603F1FF3328BF11461BB2D6
S2140157C038BF104699423246EADB09B25048099E74
S2140157D002EB410332F811205B8800EB8101D1ED29
S2140157E0007A91ED017AF4EEC77A9B1AC2EB0E0E9F
S2140157F0F1EE10FA9BB21FFA8EFE00F2718677EE7A
S214015800676A07EE10EA06EE103AB8EE477AB8EE87
S214015810466A26EE877A87EE067A77EE877A9FEDD6
S214015820367ADDED1E6A244A049BCDED1B7A37EEEF
S214015830667A1B7882ED007A0322F9E6BBF1010F46
S21401584000F02586164C194A34E7154B0A781B8852
S21401585018B2B0F5487F00F38383124B04931E46BB
S214015860114B124805931F46052363F303020124D7
S21401587000230A70347003603B700F490022012335
S2140158801B920A6018460B490C4ADFED1F7A087016
S21401589013801EAE1DAF0C4BC3ED007AD7E600BFDA
S2140158A034010020380000207A010020CC010020BD
S2140158B004A4FF1F980000200802002020000020FA
S2140158C00C0200200000C842E400002091020020E3
S2140158D0780000205402002092010020B880FF1FAB
S2140158E01C80FF1F280A0020BC80FF1F6F12833A0E
S2140158F08480FF1F0880FF1F0000B4426080FF1FE6
S214015900C080FF1F1CA4FF1F000000003080FF1F87
S214015910A880FF1F954CB4F90030B3F5966F00F3DD
S2140159208982002A00F08682914AB3F5617F106869
S214015930BFF6F8ADB0F5FA7F7FF6F4AD8D4B049364
S2140159401E468D4B0A7805931F468C48082363F341
S2140159500302012400230A7034703B7003708CE745
S214015960834F3A6840F698039A4200F084857F4C4C
S214015970238818B2B0F5966F40F3FA837D4C0A7807
S214015980049426467C4C0594022464F303020A70B0
S2140159900524002234703A60C3F596631BB223EAED
S2140159A0E37307EE903A9FED767A764B764E009348
S2140159B0FAEECF7A1BAAF4EEC77AF1EE10FA97BF89
S2140159C0FDEEE77A3224CDED067ABDF818406F4B2E
S2140159D0089621B26E4E0696B0EE680A02F0DAF824
S2140159E06C4A049B14801B78DDED1B7A05221EAEE3
S2140159F01DAF1DE65E4A5D4C136840F6B830834223
S214015A0000F01882B4F90000B0F5167F96DB5A490B
S214015A1005910846574904910C460133002113604D
S214015A200170237893E552480268C82A86D0514B04
S214015A3051490493013205911B78026087E5544B66
S214015A4006931B88544A062B00F08C830020534E85
S214015A50464CB6F900605249DFF86CE1DFED517A49
S214015A600968138000EE106AB4F90060CEF80810D9
S214015A7000EE906A4C4A4D4B4D4900911EAE1DAF4B
S214015A80B0EE671ACEF80020CEF80C30CEED017AD3
S214015A90CEED047ACEED057ACEED067AF8EEE00A82
S214015AA0B8EEC00A31463A461CAB01F0B7FFDDED51
S214015AB01E7A404BB4F900000093FDEEE77A1BAA6C
S214015AC0CDED087ABDF92010304B2F4C0894B0EE7E
S214015AD0680A02F05FF89DED1E7A3748049BDDEDFB
S214015AE01B7A1B78BDEEC77A062217EE101A0180C4
S214015AF09EE51E4C20889FED317A234E0896C0F510
S214015B00BB6304331BB223EAE37307EE903AFAEE63
S214015B10CF7A2B4B0093F4EEC77AF1EE10FA97BFCB
S214015B20FDEEE77A6424CDED067ABDF81840174BF2
S214015B30174E06961BAA00B221B2B0EE680A02F012
S214015B4029F8204A049B14801B78DDED1B7A072276
S214015B501EAE1DAF6CE5054C50E50123DFF86C80E9
S214015B60DFF86CA0DFF86C90FEF7A0BF34010020D0
S214015B70CC010020380000207A01002054020020C9
S214015B80000048428CA4FF1F980000200802002055
S214015B9020000020B00100207A000020F60100203D
S214015BA088A4FF1F00000000CDCCCC3E0000C842F8
S214015BB07CA4FF1FA4A4FF1F900100200000C84280
S214015BC064A4FF1FC8000020440A0020DC00002057
S214015BD0360100207C000020B74805900646B748ED
S214015BE00A78B74C0490074663F3030202200023A9
S214015BF00A70236033703870B24B08931B78022BFF
S214015C0000F0A782DFF8F4C2AF4A9CF80030AF4834
S214015C1009929FEDA77B002203F0F80362F3C3030A
S214015C20AB490E9180ED007BAA49A7488CF800305D
S214015C30A94B028081ED007B83ED007BA749A84B31
S214015C40A348A84FA84EA94C028081ED007B83EDA6
S214015C50007BA74AA749A84B0A9287ED007B86EDF1
S214015C60007B84ED007B81ED007B83ED007B82ED84
S214015C70007B9CF80070A14EF80740F10B819A4C0E
S214015C809F4B94ED007B002251EC170B8DED067BAC
S214015C90FCF7CEFF002840F0FB829A4BDDE90601B7
S214015CA00022FCF7ABFB0A9BC4E90001D3E90067BD
S214015CB039463046FCF7EEFF394604463046FDF7D6
S214015CC011F8914B914F1E880693C0B2D7ED007A1A
S214015CD00E9B099A1E80FCEEE77A022CCDED0E7A19
S214015CE09DF83830138000F00683032C00F075828F
S214015CF0012C00F06A829FED867A864B8DED1B7A29
S214015D00F0EE477A83ED007A834A049B10701B7885
S214015D1002221EAE1DAF8BE4804B1B8818B23BE6F9
S214015D20F5EEC07AF1EE10FA4FF000037FF5B3AD51
S214015D307B4A13608BE47B49724BCDF810C000227E
S214015D40D1E90001FCF774FFDDF810C0002800F06F
S214015D5093802378DFF8F091DFF8F081082262F370
S214015D600303092223703046394689F80020FCF7E0
S214015D7091FF83B2FEF79ABE9FED6B7A9FED6B6A39
S214015D80DFED6B6AC7EE277A77EEC67AF4EEE67A2F
S214015D90F1EE10FA3EF71FAE9FED667AF4EEC77A83
S214015DA0F1EE10FA7FF554AA9FED638AFEF715BE51
S214015DB05C49544B0022D1E90001FCF739FFDDF8BC
S214015DC010C00028C5D15D4BCDF810C0D3E90089BD
S214015DD000224C4B40464946FCF72AFFDDF810C02E
S214015DE0002800F0D0802378DFF85C91DFF85C8132
S214015DF0092262F303030722FFF7D4B92368504A46
S214015E003168A2FB0343A2FB01411EAEA2FB0002C6
S214015E1049095B0952093046ADF87810ADF87A3079
S214015E20ADF87C2004F068FAFEF7B6BF0026354FC1
S214015E30FFF796B9214A049216461F4A0B78059237
S214015E401746092262F30303032001220B70307008
S214015E503A703DE42F4900221B920A60082012E5A1
S214015E601B88384A032B7FF442AC1188032900F0C3
S214015E70CA84012109913CE4B8F1020FA3D1237829
S214015E80DFF8C490DFF8C4800B2262F30303062216
S214015E90FFF788B907F0020303F0FF02002B00F0BA
S214015EA04F820A9BD3E9006702E700BFAFF3008089
S214015EB000000000000000007A01002038000020E9
S214015EC0CC01002098000020040200208001002060
S214015ED04800002070010020E8000020500100204A
S214015EE0580200206801002040020020A001002086
S214015EF0A00000206002002068020020AC01002003
S214015F00000034400000F03F20000020EC0100209B
S214015F100000000008020020A80200203401002032
S214015F20E4000020200200200040534533938843BC
S214015F3000007A4400007AC4000048C2B80100207C
S214015F40D34D6210920100207C000020DC0000206E
S214015F50B0F57A7F80F25084002A00F04D840A78EA
S214015F60AF4E04963746AF4E0596022666F30302F9
S214015F70AD4C0A700026052226603A700CE5AB4B44
S214015F80D3ED007A4BE44046494600224FF0804369
S214015F90FCF74EFE002840F0DD8230463946FCF71D
S214015FA079FEDFF8E082DFF8E09283B2FEF77EBD8D
S214015FB09D4AFFF77FBBBCF5166F80F0D983DFF8EB
S214015FC070E20C20002186B27218C2F34F03DAB2D7
S214015FD03EF81370BC4528BF334603F1FF3328BF94
S214015FE011461BB238BF10469942914AEBDB09B203
S214015FF0904802EB410332F811205B8800EB8101E7
S21401600091ED000AD1ED017AB4EEE70A9B1AF1EEA2
S21401601010FAC2EB0C029BB292B200F2C98377EE81
S214016020C06A07EE902A07EE103AF8EE677AB8EEE5
S214016030477A66EEA77A87EE877A30EE070AFFF789
S21401604092BB3B8A634540F28E830820002186B2CC
S2140160507218C2F34F03DAB237F813E0F44528BFDB
S214016060334603F1FF3328BF11461BB238BF104633
S2140160709942714AEBDB09B2704802EB410332F8F0
S21401608011205B8800EB8101D1ED007A91ED017A58
S214016090F4EEC77A9B1AF1EE10FAC2EB0C029BB231
S2140160A092B200F2978337EE676A07EE102A06EE81
S2140160B0903AB8EE477AF8EE666A26EE077AC7EEA9
S2140160C0266A77EEA66AFFF738BB3B8A634540F23D
S2140160D045830820002186B27218C2F34F03DAB254
S2140160E037F813E0F44528BF334603F1FF3328BFE2
S2140160F011461BB238BF10469942514AEBDB09B232
S214016100504802EB410332F811205B8800EB810115
S214016110D1ED007A91ED017AF4EEC77A9B1AF1EE91
S21401612010FAC2EB0C029BB292B200F2258377EE14
S214016130676A07EE102A06EE103AB8EE477AB8EE0E
S214016140466A26EE877A87EE067A37EE877AFFF773
S214016150E5BA3D4B09933D4B0E933D4B0A93DFF851
S2140161602CC186E5B2F90000063818BF01206EE49E
S2140161702B4B2C490493013205911B783A60FFF7AB
S214016180E6B99CF80030334C3348344943F00103F8
S21401619000228CF800309FED207B0023C4E9002309
S2140161A0C0E90023C1E900230A9B83ED007B2C4B49
S2140161B00E9AD3ED007A1680FCEEE77A099ACDEDB9
S2140161C00E7A9DF8383013800120DFED267A264BB3
S2140161D0CDED1B7AC3ED007A96E5244BDFED247AEC
S2140161E0D3ED005A9FED236A9FED237ADFED236AF4
S2140161F077EEE57AA7EE867AB4EEE67AF1EE10FA55
S21401620000F3698100F16781F0EE477A8DED1B7A24
S214016210154B1B4A1A6077E5000000000000F03FAE
S214016220380000207A010020CC010020A880FF1F42
S2140162301C570200885202000880FF1F6080FF1F63
S2140162401C80FF1F8480FF1F0402002048000020DE
S214016250A00000204002002080010020A0010020B4
S214016260EC0100200000000008020020540000207D
S21401627000806D44CDCC4C3E00005C420000A04244
S2140162800000B442DC0000207C000020AC010020AD
S21401629007F0FE0343F00803BB4A337000270026CD
S2140162A00A9BC2E9006700204FF08041B74AC3E964
S2140162B00001B749B74BB848C2E90067C1E90067B2
S2140162C0C3E90067B54AB649B64B0692C0E900670E
S2140162D0C1E90067C3E900671688B34B0E9AD3ED90
S2140162E0007A1680FCEEE77A099ACDED0E7A9DF8D3
S2140162F0383013800220AD4BDFEDAD6AD3ED005A86
S2140163009FEDAC6A9FEDAC7ADFEDAC7A76EEE56A8E
S214016310A6EEC67AB4EEE77AF1EE10FA00F3F28052
S214016320DFEDA77AB4EEE77AF1EE10FA00F1EA8033
S214016330F0EE477A8DED1B7AA24BA34A1A60E3E48E
S214016340964B06931E88022E00F06F820C9207F081
S214016350040303F0FF04002B00F06A81914B0F93B6
S21401636019460022994BCDF850C0D1E90001FCF73F
S2140163705FFCDDF850C00446002840F076820C9B96
S214016380012B00F09B82884F099BD7ED007AB3F969
S2140163900020FCEEE77ACDED0C7A9DF83030934282
S2140163A000F0D68278497B48794E784C874B91ED40
S2140163B0006B90ED007B80ED006B774896ED006BEF
S2140163C080ED007B9FED6E7B81ED006B0022D4E9B2
S2140163D0000186ED007BFCF711F8C4E900017C4C56
S2140163E07C4B94ED007B002251EC170B8DED0C7B62
S2140163F0FCF73CFC002840F05E82DDE90C0100223F
S214016400724BFBF7FBFF744BB3F90030B3F5966F95
S214016410C4E90001714CC0F28A8194ED007B002230
S2140164206F4B51EC170B8DED0C7BFCF71FFC002816
S21401643040F07D81DDE90C010022644BFBF7DEFFB5
S2140164400A9BD3E90023C4E9000119461046CDE9A9
S2140164500A23FCF71FFCDDE90A2304461946104609
S214016460FCF740FC069BC0B21E882FE45D4BD3EDC3
S214016470037AFFF7D4B90A785B485C4B0590032092
S21401648060F3030204930A701B78FFF760B8584A5A
S2140164901068B0F57A6F3FF40CA9FCEEE87ACDED02
S2140164A0047ABDF81030072B7FF603A951490B6813
S2140164B00130632B106040F27181C82B00F0CC8153
S2140164C0494A4A48059201330B60049082F800B0AD
S2140164D00378FFF73CB8DFED487ACDED1B7A97E6F7
S2140164E077EEC76A07EE10EA06EE103AB8EE477A7C
S2140164F0B8EE466A26EE877A87EE067A77EEC77A90
S214016500FFF78DB9CDED1B7A16E7039FB0F5966FB1
S214016510ACBF4FF0000E02F0010E012F0CBF00279A
S2140165200EF00107002F3FF413ADBAF1000F3FF450
S2140165300FAD2E4A0B782C480492174605902C4A2C
S2140165400A2060F30303072600200B703E701060DC
S214016550FFF7D0BA2378DFF8A490DFF8A4800622EC
S21401656062F30303022223703046394689F800207D
S214016570FCF790FB83B2FEF799BA00BFAFF3008039
S2140165800000000000000000580200206801002002
S214016590E8000020600200206802002020000020A1
S2140165A05001002070010020EC0100205400002062
S2140165B0008009C4CDCC4C3E00005C420000704215
S2140165C000004842080200200000B4C20000F03F6C
S2140165D08001002000409F4034010020A0010020DF
S2140165E000001440A880FF1F7A0100203800002018
S2140165F0CC010020380200200000A0427C000020D0
S214016600DC000020BE49086801336328136040F2AD
S2140166101681C82800F02081BA4BBB4A9DF80C4071
S214016620059301301C70049208601378FEF78FBF43
S2140166303A077FF5A6AD0C9B012B00F0FE81B34B0C
S2140166400F9319460022B24BCDF830C0D1E90001B4
S214016650FCF7EEFADDF830C0002840F00882AD4BBA
S214016660AD4C149393ED007B0022AC4BCDF848C0A3
S21401667051EC170B8DED0C7BFCF702FB94ED007BC8
S2140166804FF001038DED107BDDF848C000B90346DD
S21401669013F0FF0FCDF848C010D04FF08043DDE96E
S2140166A010010022FCF7D8FA4FF00103DDF848C0CC
S2140166B000B9034613F0FF0F40F0F581984F099B90
S2140166C0D7ED007AB3F90020FCEEE77ACDED127A29
S2140166D09DF84830934200F00B82924B924A934EBB
S2140166E093ED006B92ED007B9DED0C5B82ED006BF4
S2140166F09FED7F6B86ED007B149E83ED005BDDE9ED
S21401670010010022824B86ED006BFBF777FEC4E991
S2140167100001874C874B94ED007B002251EC170B50
S2140167208DED0C7BFCF7A2FA00283FF483AE0A9BA2
S21401673093ED007B002200238DED0A7B51EC170BB5
S214016740C4E90023FCF7A6FA0446DDE90A01FCF7D2
S214016750C9FA069BC0B21E88FFF7B8BA764B93ED0E
S214016760087AFEF7DBBF754BD3ED086AFEF7E5BF87
S2140167709FED730AFEF7F7BF77EEC76A07EE102A9A
S21401678006EE103AB8EE477AB8EE466A26EE877AF3
S21401679087EE067A37EEC77AFEF7C0BF594A0592EA
S2140167A01046594A0492144601330022FEF7CCBE25
S2140167B070EE676A07EE902A07EE103AF8EE677AEF
S2140167C0B8EE477A66EEA77A87EE877A30EE470A02
S2140167D0FEF7C9BF37EEC76A07EE102A06EE903AF3
S2140167E0B8EE477AF8EE666A26EE077AC7EE266AAC
S2140167F077EEE66AFEF7A1BF434B424A0493059241
S2140168001B78FEF7A4BE0B46FEF771BFBAF1000F68
S21401681002D0039B012BEFD13B4B3A490591012155
S214016820049311701B78FEF792BE0E9BB3F90030ED
S214016830A3F10103B3FA83F35B090C9387E5314BAC
S21401684005931A46304B04931C46013000231370FF
S21401685008602378FEF77BBE2B4B2A4A059200225E
S21401686004930A601B78FEF772BE9CF800300A9902
S214016870284C2C4803F0FB0343F008039FED1C7BD8
S21401688000228CF800304FF08043C1E900230F9BB3
S2140168902549264A83ED007B81ED007B294B1E4965
S2140168A084ED007B80ED007B82ED007B83ED007B39
S2140168B081ED007B11E500200021A4E59CF8003065
S2140168C00A9A214C60F382039FED0B7BDBB243F007
S2140168D0010382ED007B8CF80030154A1B4B00202B
S2140168E00021C4E90001C2E90001C3E900015EE438
S2140168F00000000000000000000000000000F03F63
S214016900380200207A0100203800002070010020A3
S2140169100000F03FE8000020680100200000594018
S214016920EC010020580200206002002068020020CE
S2140169308001002000409F408480FF1F6080FF1F71
S214016940CDCC64415001002040020020A00100206F
S214016950A14B14931A4692ED007BA04BA04EDFF894
S214016960A8E28DED0C7B93ED007B8DED107B53EC57
S214016970172B96ED007B8DED127B9EED007BDDE9FE
S2140169800C018DED167B4FF00106FCF76FF900B98F
S2140169902646944B159319460022934BD1E90001E4
S2140169A0FCF764F94FF0010400B90446DDE90C0177
S2140169B0DDE9122326404FF00104FCF757F908B928
S2140169C04FF00004DDE90C01DDE9162326404FF007
S2140169D00104FCF74BF908B94FF00004DDE90C019E
S2140169E00022002326404FF00104FCF721F908B1EC
S2140169F04FF00004DDE910010022002326404FF08D
S214016A000104FCF715F908B14FF000043440E10722
S214016A104FD57649764B0022D1E90001FCF726F9DD
S214016A204FF0010300B9034613F0FF0F41D0714B3D
S214016A300F990022C1E90023D1E49CF800306E4989
S214016A406E486F4A9FED627B03F0F70343F0010344
S214016A508CF8003081ED007B0A9B664980ED007B57
S214016A60002082ED007BC3E90001FFF7A0BB9CF884
S214016A700030644F64F3C3038CF80030FCF70AFD62
S214016A800A9BD3E9002319461046CDE90A23FCF7F1
S214016A9001F9DDE90A23044619461046FCF722F9F6
S214016AA0C0B2FFF713B99CF80030564F6FF3C3031B
S214016AB0E2E7DDE91023DDE90C01FBF79FFC024666
S214016AC00B46DDE91201FBF799FC02460B46DDE9B0
S214016AD01601FBF793FC159C464BC4E90001002206
S214016AE0DDE90C01FBF78AFC149BC3E9000176E49F
S214016AF03A4B3B4C444E93ED007B8DED127B53ECB1
S214016B00172B94ED007B8DED167B96ED007BDDE972
S214016B100C018DED187B4FF00104FCF7A7F808B9BE
S214016B204FF000042F4B1593194600222E4BD1E946
S214016B300001FCF79BF84FF0010600B90646DDE9B7
S214016B400C01DDE9162326404FF00104FCF78EF810
S214016B5008B94FF00004DDE90C01DDE918232640F1
S214016B604FF00104FCF782F808B94FF00004DDE9A4
S214016B700C010022002326404FF00104FCF758F8D0
S214016B8008B14FF00004DDE912010022002326407F
S214016B904FF00104FCF74CF808B14FF00004344004
S214016BA0E30733D5124BDDE910010022FCF75EF84E
S214016BB04FF0010300B9034613F0FF0F26D00D4B2B
S214016BC00F990022C1E90023A3E500BFAFF30080BF
S214016BD00000000000000000E8000020580200202D
S214016BE060020020500100200000394068010020AA
S214016BF0000010400000F03F80010020400200200D
S214016C00A0010020EC01002068020020DDE912232B
S214016C10DDE90C01FBF7F2FB02460B46DDE9160146
S214016C20FBF7ECFB02460B46DDE91801FBF7E6FB3A
S214016C30159C0A4BC4E900010022DDE90C01FBF7B3
S214016C40DDFB149BC3E9000163E5054CFEF740BD7F
S214016C500123FEF710BC0023FEF70DBC0000F03F39
S214016C6034010020704700BF704700BF02F07AB9B8
S214016C7002F05EB9704700BF2DE9F047C04CC14D28
S214016C802378C14A2988118003F00703013B88B0A5
S214016C90042B06D8DFE813F029000A0123011700A8
S214016CA005002378B94A002000210225C2E9000127
S214016CB065F3020303204FF4FA61237003F046FBE9
S214016CC008B0BDE8F0872378052262F302030120AD
S214016CD0237003F031FBAE4BAE4A1A60002001462A
S214016CE003F0EEFA08B0BDE8F087A84EAA4BD6E945
S214016CF00089002240464946FBF79AFF002800F02B
S214016D002C81DFF8A8E2A54BBEF80070B3F900901D
S214016D1094F800C03EB206F1FF3893E8070033F955
S214016D201880C145C8BF01274FF0040AC8BF3E46B8
S214016D306AF3020C0DF1200A0AE90700721EB3F984
S214016D40021033F91220B3F90A0084F800C0914208
S214016D50C4BF02273E46721EB3F9041033F912204F
S214016D609142C4BF03273E46721EB3F9061033F99B
S214016D7012209142C4BF04273E46721EB3F9081082
S214016D8033F912209142C4BF05273E46721E33F9DD
S214016D901210884200F3EF80814CAEF80070218813
S214016DA008A800EB420008AF0AB207EB42074FF013
S214016DB0000E20F80CEC37F90E0CBDF91470874262
S214016DC0C4BF01210A4608A800EB4200BDF91670AF
S214016DD030F90E0C8742C4BF02210A4608A800EB10
S214016DE04200BDF9187030F90E0CB842BCBF032141
S214016DF00A4608A800EB4200BDF91A7030F90E0CDD
S214016E008742C4BF04210A4608A800EB4200BDF928
S214016E101C7030F90E0C8742C4BF05210A4608A82B
S214016E2000EB4202BDF91E0032F90E2C9042C8BF9B
S214016E300621012E218000F0FE80022E00F007813F
S214016E40032E00F00A81042E00F0F180052E00F0DA
S214016E500A81062E0CBF3C2446242C800022B3F85F
S214016E600080B3F802C0B3F804E0DF881E895D89AC
S214016E708DF80E20C02002A9082201238DF80F40AC
S214016E808DF808808DF809C08DF80AE08DF80B7032
S214016E908DF80C608DF80D5003F00AFA03204FF4BC
S214016EA0FA7103F053FA08B0BDE8F0872678374D3B
S214016EB0032363F30206D5E900010022394B26704D
S214016EC0FBF79CFAC5E90001FBF7E4FE013805284B
S214016ED000F2B580DFE800F0A8A5A2907E6C2378CA
S214016EE0314D2E4E012262F302034FF4FA61032064
S214016EF0237003F02BFA02A803F018FA95E80700AE
S214016F00224B05AC84E80700D3E90001FBF7C2FE7B
S214016F109DED027ADDED037ADDED046A77EE277AE0
S214016F2008AB77EEA67A03EB4000F1EE677AFDEE4A
S214016F30E77A002717EE903A20F80E3C94E807000F
S214016F4086E8070085E807006846ADF804700097F4
S214016F5003F016FA08B0BDE8F0872578032363F33B
S214016F6002054046494600220E4B2570FBF746FABD
S214016F70C6E90001A8E706273E4605220CE700BF42
S214016F80C40100208400002088020020880100201F
S214016F9088A4FF1F49102E39000018403C0100202C
S214016FA060A4FF1F0000F03F6800002000A4FF1F40
S214016FB00122002305A88DF814208DF816208DF8DF
S214016FC019208DF815308DF817308DF8183003F02C
S214016FD0D7F963E70022012305A88DF814208DF860
S214016FE017208DF818208DF815308DF816308DF88D
S214016FF0193003F0C5F951E70022012305A88DF8E1
S21401700014208DF817208DF819208DF815308DF87D
S21401701016308DF8183003F0B3F93FE7002201234C
S214017020C8E701220023D7E701220023E6E7B424BC
S2140170302C80002213E7002214462A800FE7002343
S21401704005A8ADF81830059303F09AF926E74FF630
S214017050C4722A80C424FF2201E74FF688722A8070
S2140170608824FF22FBE678242C800022F7E600BF66
S214017070704700BF114B1249D3ED007A114B1248ED
S214017080124A2DE9F041FDEEE77A114C114DB1F8A7
S21401709000802668104F114CA3F8008017EE903A36
S2140170A0D0F800E0D5F800C01568C0F800C00B8025
S2140170B0C7F800E016602560BDE8F0817802002080
S2140170C07E00002034010020800000201C010020EA
S2140170D010010020CC000020EC010020540000200C
S2140170E030B585B0064D074C074B039202930095C9
S2140170F00194064A064B02F06DFB05B030BD00BF99
S214017100B4020020B8020020B0020020C002002015
S214017110BC020020B5EE400A00EB8101F1EE10FA48
S214017120D1ED007A05D091ED017A37EE677AE7EE78
S214017130007AB0EE670A704702FB01339BB2F5EEA8
S214017140400A00EB8300F1EE10FAD0ED007A0FD181
S214017150B5EE400AF1EE10FA07D000EB810090ED93
S214017160007A37EE677AE7EE007AB0EE670A704784
S21401717090ED017AB5EE400A37EE677AF1EE10FA35
S214017180E7EE207AF1D000EB810090ED007AD0EDA9
S214017190016A76EEC76AA6EEA07A37EE677AE7EE60
S2140171A0007AB0EE670A7047F0B40478049D944202
S2140171B02FD20139C9B2445C944225D900268C19D4
S2140171C0C4F34F04E7B2045DA24238BF394601F169
S2140171D0FF3428BF3E46E4B2A642F0D384191E709F
S2140171E0815D6378521A5B1AD2B2DBB207EE903A2F
S2140171F007EE102AF8EE677AB8EE477AC7EE277AD6
S214017200C5ED007AF0BC7047197000222A60F0BC08
S21401721070470021197000222A60F0BC704700BF39
S214017220F0B40488049D944234D20139C9B230F8CE
S2140172301140944229D900268C19C4F34F04E7B2B1
S21401724030F81440A24238BF394601F1FF3428BF56
S2140172503E46E4B2A642EFD331B200EB41041E70C3
S214017260638830F811105B1A9BB207EE903A521AF7
S21401727092B2B8EE677A07EE902AF8EE677AC7EE12
S214017280877AC5ED007AF0BC7047197000222A6033
S214017290F0BC70470021197000222A60F0BC7047CC
S2140172A0D0ED007AF4EEC07AF1EE10FA38DA013950
S2140172B0C9B270B400EB8104D4ED007AB4EEE70AEB
S2140172C0F1EE10FA27DA00254C19C4F34F0400EB4F
S2140172D08406D6ED007AB4EEE70AE4B2F1EE10FACF
S2140172E048BF214601F1FF3658BF2546F4B2A542F4
S2140172F0EAD329B2157000EB810090ED007AD0ED4B
S214017300017A30EE470A77EEC77A70BC80EE270A1C
S21401731083ED000A70470020117070BC186070473A
S2140173200021002010701960704700BF00000000A7
S2140173302DE9F04F936A93F8008083B0B8F1000FFF
S21401734010D092F82C3003F00F03013B8A46054615
S2140173501446062B00F20381DFE803F00B4A9E1663
S2140173603280BC00A1F80080A0F8008003B0BDE820
S214017370F08FD4E904670022914B30463946FBF77B
S21401738075FC002800F03081DFF858928D4994F89A
S2140173902C204FF0000800200223C4E90289C4E92A
S2140173A006010026002763F30302C4E9046784F894
S2140173B02C200526AAF800602B8003B0BDE8F08FCC
S2140173C094F82C207F490623002663F303024FF02E
S2140173D000084FF08049002700200223C4E9046713
S2140173E084F82C20C4E90289C4E906011E46E1E7B7
S2140173F0D4E904670022744B30463946FBF736FC65
S214017400002840F0C98000226E4B30463946FAF714
S214017410F5FFC4E90401D4E908016A4B0022FAF732
S214017420EDFFC4E90801D4E90201FBF77BFC07EE96
S214017430900AFDEEE77AD4E90601CDED007AFBF776
S21401744071FC07EE900A77EEA77ABDF80060FDEEB4
S214017450E77ACDED007ABDF80030ABE7D4E90467F2
S21401746000225A4B30463946FBF700FC0028CAD0AA
S21401747094F82C10564F072000230026002260F3B4
S2140174800301C4E90267C4E90423C4E9062384F8B6
S2140174902C10002303268DE7D4E9006700224D4B0C
S2140174A030463946FBF7E2FB00286CD094F82C10E6
S2140174B0444B052000220026002760F30301C4E99F
S2140174C00223C4E90623C4E9086784F82C100223C2
S2140174D001266FE7A8F102030D2BD4E9086700F235
S2140174E0EE803D494FF00F0E00201FFA8EFC0CEB8C
S2140174F00002C2F34F03DAB211F803B0DFF8D890F6
S214017500D84528BF634603F1FF331BB22CBF104694
S21401751096469842E9DB09EB000330495B7819F897
S21401752000E00A5C0844C8EB03034178DBB2CEEB0B
S21401753008085FFA88F812FB03F201FB08224344AD
S21401754092B2DBB24FF4BE6092FBF3F3DBB200FB08
S21401755003F00138FBF79EF802460B46B2E094F8BA
S2140175602C30184905220020002662F30303002769
S214017570C4E9086784F82C30C4E90201C4E90601AD
S2140175800223012616E73046394600220D4BFAF74C
S21401759035FFC4E9000146E794F82C10104F01208E
S2140175A000230026002260F30301C4E90267C4E950
S2140175B00423C4E9062384F82C1000230626F9E6E2
S2140175C0000074400000F03F0000644000C092409C
S2140175D00000084000209C40C05A0200B05A020039
S2140175E0000018400000144094ED087BB8F1010F2C
S2140175F08DED007B40F2A780B8F10F0F00F2A68058
S21401760059494FF00F0E1FFA8EFC0CEB0002C2F325
S2140176104E03DAB211F80390C84524BF10466346FC
S21401762003F1FF33C0B238BF964698424E4AEADBB2
S2140176301318DFF84CC15B78115C1CF800E060445D
S214017640C8EB0302D2B24378C1EB0801C9B21EFBF4
S21401765002FE03FB01E30A44D2B29BB293FBF2F3B0
S214017660DBB2C3EB03135801A0F5A070FBF712F8C9
S21401767002460B46DDE90001FBF7F8FA002855D073
S21401768094F82C30394F032262F3030300260020BE
S214017690002184F82C30C4E90267C4E90001D4E96A
S2140176A00601FBF73FFB07EE900A77EEA77A07265F
S2140176B0FDEEE77ACDED007ABDF800307AE626A336
S2140176C0D3E9002330463946FBF7D0FAB0B194F837
S2140176D02C3027499FED227B042666F303034FF0E7
S2140176E000084FF00009002084F82C3084ED027B5E
S2140176F0C4E90889C4E9060102235BE6D4E90489E2
S21401770000221C4B40464946FBF7B0FA00287FF49E
S21401771057AE0022164B40464946FAF76FFE002246
S214017720C4E90401124B3046394678E60022104B74
S21401773030463946FAF762FE0022C4E904010C4BD2
S214017740DDE900016BE600220B4B93E700220B4BB1
S21401775090E700BFAFF300800000000000BC974038
S2140177600000000000001040C05A020000001C404B
S2140177700000F03F000074400000644000009940A3
S214017780D05A02002DE9F04F8D4E2DED028BB6F941
S214017790003091B008EE100A002B40F08880894A2C
S2140177A0894B92ED007AD3ED007ADFED886AF0EE30
S2140177B0C75AB0EE086AF4EEC65AF0EEE75AF1EE92
S2140177C010FAF4EEC65AB8BFB0EE667AF1EE10FAC9
S2140177D0B8BFF0EE667A8DED0D7ACDED0C7A7C4A67
S2140177E07C4B7D4D7D4C11681F682A6823680A9181
S2140177F00AA804A90E920F930B9702F0A7FE9DED1F
S214017800050ADFED777A774B60EE277A02A8C3ED9B
S214017810007A02F001FF9DED037A734BDFED737A78
S21401782093ED006ADFED726ADDED028A85ED007A7E
S21401783067EE277ABAEEEF8AE6EE267AB5EE408A4A
S214017840F1EE10FAC4ED008AC3ED007A5BD0C7EE04
S214017850887A684D2C7814F001039FED678A27EE2D
S214017860888A2BD0FDEEC87ACDED017ABDF90430B9
S214017870B3F5167F63DA0022002304F0FE045F48A6
S2140178805F4944F00204C0E90023C1E90023002354
S2140178902C7033805B4B9FED4D8A83ED008A5A4BEB
S2140178A083ED008A11B0BDEC028BBDE8F08F464A2D
S2140178B0444B12681B680C920D9390E704F0020289
S2140178C06AB3FDEEC87ACDED017ABDF90420B2F5B2
S2140178D0167F4BDC494BD3E9008940464946FBF706
S2140178E0D9F984B240464946002200233480FBF78A
S2140178F09FF90028CED1DFED3A7A424B68EEA77A9F
S214017900C3ED007ACBE7F5EEC07A9FED408ADFED56
S214017910407AF1EE10FA58BFF0EE487A99E763071D
S2140179203AD5FDEEC87ACDED017ABDF90430B3F54E
S214017930167FCFDA0022002304F0FB049FE7304FC6
S214017940344BD7E90089002240464946FBF770F9D7
S21401795028B33149294A04F0FE04002044F0040407
S21401796001232C70C2E900013380C4E72349244A6D
S214017970D1E9008963F34104E4B244F001044FF015
S214017980000A4FF0000B2C7040464946C2E900AB96
S214017990FBF780F984B2A5E7002200236FE7404693
S2140179A0494600221C4BFAF729FD144BD3E90089FE
S2140179B0C7E9000140464946FBF76CF984B291E7F6
S2140179C0C4020020640A00206C0A002000000000A7
S2140179D0600A0020680A0020CC020020C8020020AD
S2140179E0E12E6542D8020020D00200200AD7A33B30
S2140179F052B87E3FE8020020EBC91841E0020020A1
S214017A00F0020020D4020020DC020020FFFF7F7F6E
S214017A10FFFF7FFF000059400000F03F30EE600A94
S214017A2030B4029DB5EEC00AF1EE10FA2C6849DDBD
S214017A3095ED017AD4ED037AB4EEE77AF1EE10FA19
S214017A4040DBDFED307A28B994ED027A95ED021A23
S214017A50A7EE271AD4ED057AB4EEE71AF1EE10FA7E
S214017A6038DCD4ED067AB4EEE71AF1EE10FA31D42A
S214017A70F0EE417A85ED021A94ED017A67EE277AE7
S214017A80C3ED007AD4ED000A20EE200A82ED000A4A
S214017A90D3ED000AD4ED037A30EE200AB4EEE70AFD
S214017AA0F1EE10FA19DCD4ED047AB4EEE70AF1EE41
S214017AB010FA12D4F0EE407A85ED010AC1ED007A93
S214017AC030BC7047B5EEC00AF1EE10FA0BD4F0EEFA
S214017AD0407AB8E7C5ED027ACEE7C5ED017AC1ED89
S214017AE0007A30BC7047D5ED016A94ED047ADFED7B
S214017AF0057AF4EEC76AF1EE10FA88BFF0EE407A26
S214017B00A1E700BF0000000070B4037844688568F0
S214017B10581EC0B2002183B25A18C2F34F0204EBBA
S214017B208206D6ED007AF4EEC07AF1EE10FAC8BFFE
S214017B30134603F1FF33D2B21BB2D4BF114610462F
S214017B409942E8DB0BB299000C44D4ED007AD4EDEF
S214017B50016A76EEE76A2944F5EE406AF1EE10FA1C
S214017B6091ED006A0DD091ED017A70EE677A37EEED
S214017B70467A70BC67EE277A87EEA60A36EE000ACA
S214017B8070479FED030A70BC36EE000A704700BFCF
S214017B90000000002DE9F04FDFF810E3AA4EAB4DD0
S214017BA09BB00027249C049783468A4690469EF8FD
S214017BB000100597994632462B460027A4488DF8B3
S214017BC00E708DF80F70FFF76BFB04AB2178A148A0
S214017BD000931FFA8BF20DF10E03FFF721FB05ABA5
S214017BE061789D4800935FFA8AF20DF10F03FFF763
S214017BF0DBFAA17C9DF80E209DF80F30DDED050A1D
S214017C0096489DED040AFFF797FAE17C9DF80E2051
S214017C109DF80F308DED060ADDED050A90489DEDC5
S214017C20040AFFF789FA217D9DF80E209DF80F3092
S214017C308DED070ADDED050A8A489DED040AFFF77A
S214017C407BFA617D9DF80E209DF80F308DED080AB8
S214017C50DDED050A84489DED040AFFF76DFA217BE8
S214017C609DF80E209DF80F308DED090ADDED050A11
S214017C707E489DED040AFFF75FFA617B9DF80E20B2
S214017C809DF80F308DED0A0ADDED050A78489DED69
S214017C90040AFFF751FAA17B9DF80E209DF80F30DC
S214017CA08DED0B0ADDED050A72489DED040AFFF71E
S214017CB043FAE17B9DF80E209DF80F308DED0C0AFE
S214017CC0DDED050A6C489DED040AFFF735FA217CC7
S214017CD09DF80E209DF80F308DED0D0ADDED050A9D
S214017CE066489DED040AFFF727FA9DF80E209DF8D9
S214017CF00F30DDED050A617C8DED0E0A60489DEDC5
S214017D00040AFFF719FA31788DED0F0A06A895EDEA
S214017D10000AFFF7FFF989ED000A217A9DF80E2087
S214017D209DF80F30DDED050A56489DED040AFFF774
S214017D3003FA617A9DF80E209DF80F308DED100A3A
S214017D40DDED050A50489DED040AFFF7F5F9A17A25
S214017D509DF80E209DF80F308DED110ADDED050A18
S214017D604A489DED040AFFF7E7F9E17A9DF80E20EF
S214017D709DF80F308DED120ADDED050A44489DEDA4
S214017D80040AFFF7D9F9A1789DF80E209DF80F3067
S214017D908DED130ADDED050A3E489DED040AFFF759
S214017DA0CBF9E1789DF80E209DF80F308DED140A81
S214017DB0DDED050A38489DED040AFFF7BDF9217986
S214017DC09DF80E209DF80F308DED150ADDED050AA4
S214017DD032489DED040AFFF7AFF961799DF80E2050
S214017DE09DF80F308DED160ADDED050A2C489DED48
S214017DF0040AFFF7A1F9A1799DF80E209DF80F302E
S214017E008DED170ADDED050A26489DED040AFFF7FC
S214017E1093F9E1799DF80E209DF80F308DED180A43
S214017E20DDED050A20489DED040AFFF785F9317856
S214017E308DED190A10A895ED000AFFF76BF988ED8C
S214017E40000A1BB0BDE8F08FFC020020F8020020FB
S214017E50BCA4FF1F005F0200908C02007CA90200F8
S214017E6050840200F0770200E05A020030800200DF
S214017E70BC9002005CA5020070670200107C020044
S214017E80FC9802003CA10200906B02007088020080
S214017E90B06F0200D07302001C9D0200DC94020049
S214017EA0506302009C8C0200305F0200E4A4FF1FB6
S214017EB010B414782CB10023962013705DF8044B8F
S214017EC0704708444008044A5DF8044B92FBF3F3FC
S214017ED0B3FBF0F080B270470087930310B41478B8
S214017EE084B988420B4902D30C780134E4B29C422F
S214017EF00C70084903D30120002310700B705DF845
S214017F00044B704788423CBF002313705DF8044B56
S214017F10704700BFFD02002030B41C789DF8085061
S214017F206CB9884213D90D490A780132D2B2AA42F5
S214017F3011D3013501220D701A7030BC7047904282
S214017F40FBD2064900220A701A7030BC7047034BF8
S214017F501C7030BC70470A7030BC7047FE020020AF
S214017F6010B4094B094C1B88248823441B1A01FBB7
S214017F7003F1B1FBF4F189B29142104684BF881A2D
S214017F8080B25DF8044B7047F0A6FF1F08A8FF1FDC
S214017F9010B4BDF8044060B9091B0A44D31A4FF661
S214017FA0FE72934294BF98B24FF6FF705DF8044B91
S214017FB07047131BF3E700BF284B814230B41A7891
S214017FC012D9002A36D02648264C01780131C9B28A
S214017FD0002513290170257010D82349097891B915
S214017FE000221A7030BC704792B91D481D4C0178AA
S214017FF022700131C9B21329017013D91A4C012517
S21401800014212570017082F001021A7030BC70478D
S2140180101448134D01780131C9B2002409290170B1
S2140180202C7015D8104909780029ECD101221A7054
S21401803030BC70470B480A4C017822700131C9B236
S21401804009290170C9D9084C0A2122700170C7E7B5
S21401805005490A220C700270E8E700BF0B030020F6
S214018060160300201C0300201D030020114B10B432
S2140180701A78114C23689AB1104A127818444008AD
S21401808042B1884212D80E4B0020186021605DF87C
S214018090044B70478842F6D2094B081A1860F5E778
S2140180A0074B5DF8044B1A6010467047044B401AA4
S2140180B01860EBE71D030020180300200B030020C7
S2140180C010030020814201D964207047642303FB1A
S2140180D001F1B1FBF0F080B2704700BF03480449DC
S2140180E0044A002303700B701370704716030020B8
S2140180F01C0300201D03002010B488429DF8044094
S21401810013D9401A904210DD0D490A780132D2B2D5
S214018110A24210D30B4C0C4A002003EB83030870D9
S214018120238013805DF8044B7047054B00221A70BC
S2140181305DF8044B70470A705DF8044B704700BF4A
S2140181400C030020140300200E030020F0B4174F88
S214018150174E3B88174C184DC1EB81729BB203FB3F
S21401816001F3C1EB8202323302F5FA7200FB0230F0
S214018170A6FB0003C3F34F133B803888238880B2E5
S2140181809BB203FB01F1A5FB00039B08323103FB05
S2140181900212A6FB0232C2F34F122280208880B25E
S2140181A0A5FB00308008F0BC704700BF1403002018
S2140181B01F85EB510E030020CDCCCCCC014B012208
S2140181C01A717047740A00202DE9F04F2A4E2B4B86
S2140181D0DFF8C4E037782A4DBEF800E09F80294ECC
S2140181E0294CDFF8B8C0DE600B27C8261F81A5F82A
S2140181F000E04FF47A774FF0000E2D2523482449EE
S214018200244AA3F800E0DFF898B05F80DE805D8145
S21401821042F21073ACF800E08CF802E08CF803E050
S214018220C4F808B027806680A580E380DFF874A0D4
S214018230DFF87490DFF8748007804FF4167C4FF0F7
S214018240320E4FF0450B4FF47A6446808580C3802A
S214018250C0F808A00F804E808D80CB80C1F80890B2
S214018260A2F800C0A2F802E0A2F804B0D480C2F8D6
S2140182700880BDE8F08F00BFE6A6FF1F880A002031
S21401828072030020E8A4FF1FB00A0020980A00200D
S214018290A40A00207C0A0020A0A7FF1F740A002061
S2140182A0A4A7FF1F9CAD02001CA8FF1F08A7FF1F65
S2140182B02DE9F04FB84DB94FDFF8B493B84C95F8A7
S2140182C000A0B84EDFF8ACC3DFF8AC83B64D87F834
S2140182D000A099F800B0B4F800A0DFF8A0E3B34B13
S2140182E086F800B0ACF800A0B8F800B0B5F800A069
S2140182F0AEF800B0A3F800A0BCF800C0DFF880A379
S214018300A0F800C0BEF800C09AF800E0A0F802C0CD
S21401831081F800E038784870A548077830781B88DF
S214018320887087B01380002F00F07C82A14B1E78E6
S214018330002E40F07782A04BDFF848B31B78002B65
S21401834040F073829D4B02939D4B0393029BDBF897
S2140183500000994A19680123FFF7AAFD994B20806E
S2140183601B88834240F29882974B1B88834200F217
S2140183705184964A964913780978DFF80CE301335D
S214018380DBB24FF0000C8B428EF800C01370DFF8A2
S214018390FCC280F000859CF80030002B00F0908530
S2140183A08C4A8D4B92F800E08C491A884FF47A7308
S2140183B003FB0EF3A1FB0331B2EB911FC0F0508417
S2140183C000238CF80030864B1E701B7803F0FF02EA
S2140183D023B1844B1A78003218BF0122DFF820C27D
S2140183E08149BCF800300A709BB2984240F2738211
S2140183F07E4F7F4A3B780026012B16700DD07D4AB2
S2140184007D49137809783E700133DBB28B421370D5
S214018410C0F03182012311703B70784B00221A7034
S214018420BCF80030764A9BB2984240F2E182754E23
S214018430754A33784FF0000E012B82F800E00ED01B
S214018440724A73491378097886F800E00133DBB283
S2140184508B421370C0F0FB810123117033706D4B9A
S21401846000221A706C4B6D4A1B78CDF810C0013390
S214018470DBB29621FFF732FD694B029D1B68DBF8E4
S21401848000104FF4B47202FB03F3B3FBF1F3DBB25B
S2140184908AF80030DBF800002968DFF8F4A1FFF75E
S2140184A08BFDDBF800002968FFF7E0FD5D4B2288B5
S2140184B01B885D49DDF810C00860934224BF002385
S2140184C08AF80030594B1B88934224BF002389F851
S2140184D00030434B1B78002B00F01882544B1B785E
S2140184E0002B40F07982534B0493534B1B783BB1DE
S2140184F09AF8003023B1514900230B7004990B7090
S2140185004F49504B0988CDF814C04FF0020E104663
S214018510CDF800E00A46FFF7FFFC3B78DDF814C013
S214018520012B00F04D83484B484905931846228895
S214018530002303700B703378012B00F01E83444830
S21401854000210170144801703978022900F0DB829D
S2140185504049414E088800219042317098BF8AF800
S2140185600010022B00F094823C4B3D4819880023F2
S2140185709142037098BF89F800303A4BACF800205E
S2140185801B88934240F2538211B23748374E06F0A9
S2140185907FFB254A7EE000BF500300200A0300202F
S2140185A0740A00200203002052A8FF1F08030020BF
S2140185B077030020220300208303002060030020AD
S2140185C034030020E4A6FF1F16A8FF1F7E03002029
S2140185D0000300204EA8FF1F3A030020FDC00FFC39
S2140185E0A0030020F8A6FF1F64030020710A0020E4
S2140185F07D03002038030020EAA6FF1F8203002027
S21401860098030020700A00207F03002074030020D6
S21401861095A7FF1F890300200103002066030020A1
S2140186208C030020F6A6FF1F2403002002A8FF1FCC
S2140186309B03002055A8FF1FEEA6FF1F50A8FF1F93
S2140186409CA7FF1F28030020840300206503002049
S2140186506E030020E8A6FF1F4A03002002A7FF1FA3
S21401866055030020FAA6FF1F980A002020030020C9
S2140186701E030020060300204E03002004030020F2
S214018680FF02002078030020570300205803002033
S21401869056030020A54B11681860FFF713FD3080C4
S2140186A03088A34BB8F800101B78022280B20092E3
S2140186B02822FFF721FD9F4B3088198880B2FFF7EB
S2140186C045FDB4F90020034601B29B48A8F80030E6
S2140186D006F06AFB994B1880994B1B7803F0FF0252
S2140186E0002B40F0B581974923880A709AF800203C
S2140186F0002A40F0C581059A1278002A40F0B3821C
S2140187008E4A1088904F914E3A88318800B20A44BA
S214018710904203DB90B2894A108000B2039941F27D
S2140187206F72934294BF28224122894B09681A70BE
S214018730FFF716FC814B35881988864E0BB2AB4283
S2140187403080238800F0BC8040F3C18041F287323C
S214018750934244D8804A1278002A40D07848784C10
S2140187600078002800F020837C48007808B3DFF802
S2140187706482039CB8F80000D4F800E0DFF808C271
S21401878080B270452BD2DCF80000B8F80040001B20
S21401879080B2132800F29183714814240480714C2E
S2140187A001202070049C20706F48008898421FD2D8
S2140187B029E0DFF820E23488BEF80000DFF894C133
S2140187C0A4B280B284420AD9BCF80000BEF800E028
S2140187D0634CCEEB000080B214282080DFD8624ABA
S2140187E06048128800249A42047052D3049B1A7877
S2140187F03B885E481D44691A018022B95C4B1B7890
S214018800002B00F09982029ADBF800305949136078
S214018810594A5A4B096803981B681160584A036005
S2140188200023137007B0BDE8F08F564B02931A462B
S214018830554B03931946554BCBF8003013600B602C
S21401884084E55349534A002333700B701370524A20
S2140188505249137809780133DBB28B421370FFF467
S21401886001AE032311703370FCE54D494D4A0023D8
S2140188703B700B7013704C4A4C49137809780133DE
S214018880DBB28B421370FFF4CBAD032311703B7048
S214018890C6E5049B1A78B0E7454B46491B78464F18
S2140188A04FF47A7202FB03F3A1FB03239B09013306
S2140188B04249434A3B8000230B700123137082E533
S2140188C041F28732934202D8244A012010701D4893
S2140188D0002202703AE7BCF800303A4F9BB2984249
S2140188E0C3D23B782E4A0026022B16703FF495AD74
S2140188F02C4A3549137809783E700133DBB28B4236
S2140189001370B8D3022311703B7086E52F4B1B887A
S214018910934265D8104B1B78002B61D02C4B0F4926
S21401892004931846002303700B70DEE54003002015
S21401893000A7FF1FF2A6FF1F880A002052A8FF1FEC
S214018940A00300206403002008A8FF1FF0A6FF1F55
S21401895054A8FF1F860300206603002050A8FF1FAF
S2140189604C0300209003002014A8FF1F480300209A
S214018970280300209C0300205C0300208C030020B9
S214018980770300206003002034030020801A0600CD
S214018990740300207F0300208903002098A7FF1F8F
S2140189A0380300207D030020820300200BA8FF1F50
S2140189B04EA8FF1FFDC00FFC3A03002058030020FD
S2140189C04B030020710A002092A7FF1F0EA8FF1F6D
S2140189D055A8FF1F72030020A74B1B88934299D905
S2140189E0A64BA74904931846012303700B707CE538
S2140189F01388A44E9BB29842BFF423AF3378A24AA1
S214018A004FF0000E022B82F800E03FF428AD9F4A9B
S214018A109F491378097886F800E00133DBB28B4270
S214018A201370FFF414AF02231170337017E564233B
S214018A3012B219469748A8F8003006F0B5F9964BD9
S214018A401880964B1B7803F0FF02002B3FF44BAEC9
S214018A50B4F900109248934E06F060F9924A934991
S214018A6013780870012B338800F0DE81B3F5FA6FB6
S214018A70C0F0D181884A12881044874A108035E6B2
S214018A8019B28B4806F004F9834B1880238839E61F
S214018A90884B1B78002B3FF467AD99F80010BCF8A3
S214018AA00030DFF878929BB2002940F0AF8182480F
S214018AB09B1A00889BB29842BFF45FAD7F4F8048F7
S214018AC03B7800780133DBB298423B703FF655ADF8
S214018AD07C4BDFF84CE21B887B484FF47A7606FB2A
S214018AE003F3BEF80060A0FB03039B09B6B29E42E7
S214018AF07FF643AD01339BB20120AEF800303970EA
S214018B0089F8000039E57149097800293FF420AD5C
S214018B10BCF800109AF8007089B2002F7FF421ADDE
S214018B206B48891A008889B2884280F0AA81DFF8EA
S214018B30F4E168489EF8001000780131C9B2884215
S214018B408EF800103FF60DAD6349644D09885E4806
S214018B504FF47A7606FB01F12E88A0FB0101890904
S214018B60B6B28E427FF6FDAC013189B229805C49EE
S214018B708EF8007001200870F3E45A49097800293C
S214018B803FF4DDAC5849BCF800000978101A80B2F1
S214018B90002940F02781554E3688864280F07E8136
S214018BA0534EDFF884E130789EF800E00130C0B221
S214018BB0864530703FF6C8AC4B4831700370C3E44D
S214018BC04C4A1278002A3FF4AEAC4B4A0592114645
S214018BD0BCF8000022880978101A80B2002940F0FB
S214018BE0ED80DFF848E1BEF800E0864580F052816E
S214018BF0DFF83CE1414D9EF800002D780130C0B20F
S214018C0085428EF800003FF696AC3B488EF8001081
S214018C10037090E43A4A3B49137891F800E0DFF894
S214018C2014C1394D0133DBB200217345137029702D
S214018C308CF80010C0F0AB8001238CF80030334B69
S214018C40334F1B7839700EF1010E82F800E003F005
S214018C50FF02002B7FF4B7AB2E4B1A80FFF7B3BB96
S214018C603E46FFF7B0BB19B22B4806F011F80A4A88
S214018C702388108046E500BF16A8FF1F55A8FF1FD2
S214018C8050A8FF1F700A0020740300207F030020F5
S214018C9010A8FF1F880A002052A8FF1FA00300206B
S214018CA0A40A0020740A00204FA8FF1F3C030020DE
S214018CB07C0A002011A8FF1F04A7FF1F55030020F0
S214018CC093A7FF1F12A8FF1FFDC00FFC06A8FF1FDA
S214018CD09AA7FF1F06A7FF1FFEA6FF1F5A03002025
S214018CE05603002000A8FF1F5003002018A8FF1FEE
S214018CF06E03002094A7FF1F8403002007A8FF1F10
S214018D00570300200CA8FF1F7E0300204B03002002
S214018D10580300203A030020B00A00201E0300205A
S214018D203E0300204A0300204AA8FF1F4CA8FF1F4D
S214018D30650300209B030020634C644B3188DBF8FD
S214018D4000201B6824886248A4B20078009489B287
S214018D50FFF71EF95F4A604B108060485B68048825
S214018D605F499BB2A3420B808BBF1088118814FA0F
S214018D7080F114FA81F1CB1A9BB21380118800207E
S214018D8089B201F0E3FA574B01221A703BE5DFF88E
S214018D909CC1FFF700BB544B0131117001228CF8C6
S214018DA000201A70FFF7FCBA504800889842BFF4BA
S214018DB016AD207800287FF412ADD5E44C4B1B8805
S214018DC083426FD34B494C480B7800780133DBB2B2
S214018DD098420B703FF6AFAB0598002303700B70FB
S214018DE0FFF7A9BB4549098881424ED34448454E01
S214018DF0017836780131C9B28E4201703FF6A4ABD4
S214018E00414D002129700170FFF79EBB3F4B0021A9
S214018E101970FFF7B2BB3E4A3E49128809880A44D8
S214018E2010443C4A108061E4B3F5966F14D83A4971
S214018E303A4E0A783778DFF8E8E00132D2B20026F7
S214018E4097420A708EF80060314A30D91188042999
S214018E50E2D905211180DFE7314E304F31783F7876
S214018E60DFF8B4C00131C9B24FF0000EB94231701B
S214018E708CF800E0FFF4FAAD0137377082F800E0B5
S214018E80F4E528490F70FFF76CBB1D4900200870F8
S214018E90FFF75ABB174B1970FFF74DBB1848017007
S214018EA0FFF752BB134B00211970FFF744BB0E703E
S214018EB01188013189B21180C9E71B4C20806EE40C
S214018EC01E46FFF780BA00BF720300208C03002005
S214018ED050A8FF1F96030020009003409203002035
S214018EE080030020710300209B0300200EA8FF1FB3
S214018EF04CA8FF1F6503002007A8FF1F18A8FF1F27
S214018F006E0300204AA8FF1F5003002055030020CF
S214018F106C03002052A8FF1F7C030020E5A4FF1F5E
S214018F209A0300204A0300204C0300205803002027
S214018F3010B5094C237813B1084B1B7803B110BD4B
S214018F40074B1A7922B1987810B9012101F0F2F98C
S214018F500023237010BD00BF3D030020280300201E
S214018F60740A002010B53C4C2378002B2ED13B4CC4
S214018F70237823B13A4B1B78002B41D010BD394CD6
S214018F802378D3B1364B1B78002BF7D1364B1B78A1
S214018F90002B45D0354C2378002BEFD0344B1B7972
S214018FA0002B53D1334A117821B118461946137054
S214018FB001F0C0F90023237010BD2C4C2378002B40
S214018FC0DCD0274B1B78002BE8D010BD284B1B7933
S214018FD00BBB284A117869B9274B1B7800202070F3
S214018FE0002BCBD0254B198801F0B0F91D4B01227F
S214018FF01A7010BD18461946137001F09BF9EBE77D
S2140190001B4B1A79002AD5D098780028D2D1012195
S21401901001F090F9CEE70020014601F08BF9DBE77D
S214019020134B1A7922B1987810B9012101F082F90F
S214019030114B1B7800202070002B9FD0104B1988F5
S21401904001F084F9094B01221A7010BD0020014677
S21401905001F070F9AEE700BF220300207103002083
S214019060280300203203002031030020750300206E
S214019070740A00208803002064030020ECA6FF1F6A
S2140190809EA7FF1FF8B5584D2B78012B72D0574A73
S214019090574B1168574F1A68DFF8B8C1564BDFF8BF
S2140190A0B8E1FC7801448E1A00221A70CCF8001040
S2140190B0CEF80060514B002C5DD01978504B3A88A1
S2140190C01B88504C4FF0000C9A4284F800C078D8A8
S2140190D04D4C4E4A4E4B94F800C012881B884D4C9E
S2140190E002FB06F2C3F5B473B2FBF3F3CCEB030356
S2140190F09BB22380484B1A68DEF800309A424BD95F
S214019100002949D1454A13780133DBB2142B137079
S21401911059D8434B1B780646002B45D041493D485C
S2140191200B8822889BB2133392B2934227DA0388C4
S2140191303D4A09883D481278591A89B2018022B3FE
S2140191403B4A3C4B5168228818783B4FDFF8C4E015
S21401915089B2731A13FA82F39BB22380398018B945
S214019160364B1B78002B32D1354A00210123117072
S2140191702B70F8BDF8BD01211970F9709EE72A4BD6
S2140191801B78002BDCD1294B1988012001F0DEF871
S2140191902C4B01221A70D3E7204B00221A70204B69
S2140191A01B780646002BB9D11F4B1B78002BC7D165
S2140191B03B79104A0BB1907890B1234B00221A707C
S2140191C0BEE7144C96E7214B01221A70A1E7BEF8C0
S2140191D0001089B201F0BAF81D4B01221A70C3E7DC
S2140191E0012101F0A7F8E8E76F0300202C03002017
S2140191F09C030020740A00207003002083030020D3
S21401920014A8FF1F3103002054A8FF1F48030020A5
S21401921008A8FF1F860300208C030020940300206B
S2140192209003002072030020280300204C03002036
S2140192300090034050A8FF1F520300206603002041
S214019240760300203D030020710300205403002014
S214019250220300204403002068030020F8B5564C82
S2140192602378022B74D0554B5549564A1B68564DE8
S21401927009681268DFF8A0C1544F554EDFF89CE12B
S2140192802D78AEF800000344591A9A1A3960CCF8C2
S21401929000303260BDB14F4D4F4B2A881B889A4231
S2140192A012D24E4A336812889A4208D84C4B3A6812
S2140192B01B689A4203D94B4B1B78002B6DD04A4B47
S2140192C000221A7000E0434D484AEB7841480021DD
S2140192D011701BB9434A01231370C370444B1B78AA
S2140192E0002B36D0404B1B78002B4DD12B79002B11
S2140192F05BD1404A117821B118461946137001F026
S21401930019F83D4E002333703C4E3378B3B13C4AD6
S2140193103C4BB2F900201B889A420FDB324B18787F
S21401932060B92B79002B3CD1324A117821B118460D
S2140193301946137000F0FEFF00233370324D334898
S21401934033490123002602222E7003700B7022700F
S214019350F8BD294E3378002BD6D0294A294BB2F9CD
S21401936000201B889A42E9DB1F4B1B78002BE5D1B6
S2140193702B79DBB91F4A11780029C3D01846194644
S214019380137000F0D7FFBDE7224B1B4E1988002053
S21401939000F0DCFF01233370DFE7134B01221A7064
S2140193A092E7014600F0C6FFC6E7134E00200146CD
S2140193B000F0C0FFA6E700BF6F0300202C030020CB
S2140193C05C030020440300200AA8FF1F7803002046
S2140193D08C030020740A002004A8FF1FF4A6FF1FB8
S2140193E06003002083030020300300207003002068
S2140193F050A8FF1F880300202203002075030020C9
S21401940052A8FF1FF0A6FF1F3D0300207703002090
S21401941031030020E2A6FF1F9C03002092030020D8
S2140194202DE9F84F6B496C480B7802680133DBB2C3
S21401943002F580320A2B0B70026000F0B98050D81A
S214019440664C674F674D3B78298813B1013189B265
S2140194502980654B65481B78654E4FF47A7202FB8E
S21401946003F3A0FB03239B09994241D30133012255
S2140194702B8032705F4B21881B888B4214D85E4B41
S214019480DFF868E11B885D484FF47A7202FB03F34C
S214019490AEFB032302889B09013392B29A4203D2A0
S2140194A0038801339BB20380554B1B888B4213D82C
S2140194B0544B4E481B8854494FF47A7202FB03F30F
S2140194C0A0FB03230A889B09013392B29A4203D276
S2140194D00B8801339BB20B80E078404B58B1BDE856
S2140194E0F88F4A4A3D4C00200C2310700B70A8E7F9
S2140194F000233370BEE71B79002B66D1444A1178EE
S21401950000295CD1FEF7EAFD424ADFF840B1DFF8F8
S214019510ECA0DFF83C91DFF83C81DFF83CE1DFF8B6
S2140195203CC13D483D49002313803D4A2B803D4DBB
S2140195308BF800302380AAF8003013803B703A4C39
S2140195403A4F3B4A89F8003088F8003033708EF87D
S21401955000302B70DFF80891364EDFF80881DFF80F
S21401956008E1354D8CF8003003700B7013702370D2
S214019570DFF8F8C031483249DFF88CA0DFF8F0B0E8
S214019580304C3B70304A89F800300127337088F838
S21401959000308EF800302F70ACF8003003700B707E
S2140195A01370AAF800308BF800702770BDE8F88FAA
S2140195B0164A0A4C012100231170E37041E7184650
S2140195C01946137000F0B6FE9CE7014600F0B2FEA5
S2140195D098E700BF700300202C030020740A0020C7
S2140195E0A00300203A0300204EA8FF1FFDC00FFC79
S2140195F04B030020FCA6FF1FFEA6FF1F5A030020F8
S21401960096A7FF1F12A8FF1F3E0300206F0300202E
S214019610880300204E0300205403002094030020FA
S21401962052A8FF1F710A0020840300205603002061
S21401963090030020570300204FA8FF1F500300206F
S214019640700A002050A8FF1F1E03002031030020CF
S2140196509B030020660300202203002071030020E4
S2140196607E0300207C0300209A0300206C03002068
S21401967055A8FF1FD2ED006A0138C0B2F0B5F4EE6E
S214019680406A02EB8004F1EE10FAD4ED007A059DF3
S214019690B0EE407AC8BFB0EE667AB4EE677AF1EE05
S2140196A010FAC8BFB0EE677A4FF0000E84B21FFA08
S2140196B08EF7E619C6F34F0602EB860CDCED007A50
S2140196C0B4EEE77AF1EE10FA48BF34465FFA86FC4C
S2140196D004F1FF3424B252BFE6463E466046A64534
S2140196E0E4DBD3ED006A4F1EFFB2F4EE606A03EBD3
S2140196F08700F1EE10FAD0ED007AC8BFF0EE660AE8
S214019700F4EE670A16FB01F60FFA8EFEB6B2F1EE1C
S21401971010FA02EB8E024FEA8606C8BFF0EE670A21
S2140197204FF0000EB8B200EB0E04C4F34F0403EB87
S214019730840CDCED007AF4EEE70AF1EE10FA48BF8D
S214019740204600F1FF30E4B200B254BFA6462746D9
S2140197508645E7DB0FFA8EFE4FEA8E0E7344D3ED95
S214019760006AD3ED017A70EEE60A77EEE67AB64441
S214019770C0EEA70A754405EB8101D1ED006AF5EE4E
S214019780400AF1EE10FA15D195ED000A92ED006A45
S214019790D2ED017A77EEC67AF5EE407AF1EE10FA5E
S2140197A007D037EE467A76EEC06A87EE277AA6EEBF
S2140197B0870AF0BD95ED000A91ED016AD5ED017AB3
S2140197C036EE666A77EEC07AE6EE206AA7EEA00A63
S2140197D0DCE700BF2DE9F04F65EEA57A2DED0C8B89
S2140197E0E5EE057A87B08246B0EE65AAF5EEC07A58
S2140197F0F1EE10FAF0EE459A8B46F0EE438AF0EE63
S21401980063BAB0EE44CAB0EE64BAF0EE46AA914628
S2140198101C469DF87C8040F27482B7EE009AF4EE06
S214019820C97AF1EE10FAF0EE61CAB0EE42DAF0EE65
S21401983062DA80F25B81DA4FB0EE405AF0EE605A9F
S214019840B0EE416A6420002183B25A18C2F34F0277
S21401985007EB820595ED007AD14DF4EEC77AF1EE6D
S21401986010FA48BF134603F1FF33D2B21BB254BFFE
S214019870114610469942E7DB09B2CA4B9FEDCA4A28
S21401988089000D441944D1ED004A95ED009A91EDF9
S214019890017AD5ED016A77EEC97A37EE647A36EE4B
S2140198A0C99A67EE277AC7EE897A34EEA79AB4EE9C
S2140198B0C49AF1EE10FA40F109839FEDBC7AB0EE3E
S2140198C0478AF0EE475ABA4ABA4B92ED006AD3ED90
S2140198D0004A82ED008A76EE247AB5EE000A77EE2B
S2140198E0887A1E9AB44F77EEA57AF4EEEB8A27EEC5
S2140198F0800AF1EE10FA82ED000AD8BFF0EE6B8A0C
S21401990097ED005AF4EE4C8AF1EE10FAB5EE405A95
S21401991048BFF0EE4C8AF1EE10FA34EEC66A00F05B
S214019920C98186EE056ADFEDA56A87EE057A86EEC1
S214019930266AF1EE687A77EEE67AB7EE004A77EEB7
S214019940847AB6EE004A67EE847ADFED9C6AC3ED50
S214019950005A87EE267A65EE065A27EE457AF0EE2D
S214019960646AE5EEA76AA7EE278AF5EE408AF1EE6D
S21401997010FA38EE668AF7EE007AB5EE405A18BF4E
S214019980F0EE687AF1EE10FA88EE278A00F042814E
S2140199908B4DB5F90060002E88EE058A40F34B81A9
S2140199A0DFF860E29FED878A874B00933D21874A67
S2140199B0874B8EED008A2920F0EE480AFFF75AFE03
S2140199C0DFED847A844A1D99137820EE270A81ED0B
S2140199D0000A13F0010100F0C480BAF1010F00F093
S2140199E05A821E9991ED007AF1EE007AB4EEE77A8A
S2140199F0F1EE10FA00F19881002E40F3D182774EF5
S214019A00DFF804B23068DFF804A2F8F755FE744BAD
S214019A10C3E90001F9F786F9724A3060B2F90030FD
S214019A20CAF8000007EE103A07EE900AB8EEC77AB9
S214019A301C9BF4EE477AF1EE10FA186040F0F781BD
S214019A40B8F1000F40F0FF81674BDFED686A93EDD8
S214019A50007A27EE267A664B97ED006AD3ED006A08
S214019A6076EE866AC3ED006A624BB3F9003006EE05
S214019A70903ABDEEE76AFAEEEF6A8DED036AF5EE0F
S214019A80406ABDF80CE0A2F800E0F1EE10FA00F032
S214019A90C48187EE267A84ED007ADFF874C189EDF9
S214019AA0008ABCF9003007EE103AB8EEC77AF4EE39
S214019AB0477AF1EE10FA40F06681B8F1010F00F036
S214019AC062814D4A138819B20029C6BF03F1FF33DC
S214019AD09BB200232B802168ACF800E0CBF8001085
S214019AE0138007B0BDEC0C8BBDE8F08F04AD2846A3
S214019AF000F048FC9DED058ADDED047A2AEE088A21
S214019B00A7EEA98A88EE098ADFED277AB4EEE79AEE
S214019B10F1EE10FA00F1F980B0EE6C0AF0EE4D0AA3
S214019B20B0EE6D1A284600F02DFCDDED055ADDED90
S214019B30047A6AEE255AB5EE409AF1EE10FAE7EE8F
S214019B40A95A40F0FF80F5EEC05ADFED2C7ADFED22
S214019B502C5AF1EE10FA58BFF0EE675A35EEC87A75
S214019B60B1E6980740F1D6801E9890ED007AF1EEA6
S214019B70007AB4EEE77AF1EE10FA00F3F580BAF166
S214019B80010F00F0D881DFF884A0144EDAF8000047
S214019B90DFF874B0F8F790FD114BC3E9000139E71F
S214019BA028D502009CD802006F12833A00000000FC
S214019BB0DC030020E003002088A4FF1F8FC2F53DD0
S214019BC0CC030020FFFFFB4214AE0200BCD602000D
S214019BD078D70200E12E6542B8030020C4030020B6
S214019BE0A8030020B0030020D0030020000070422C
S214019BF0D403002028A4FF1FD8030020FFFF7F7F87
S214019C00FFFF7FFFB4030020C8030020C00300202D
S214019C10BC030020CA4DDFEDCB7AB5F90060B5EE86
S214019C20C08A9FEDC98AF1EE10FA48BFB0EE678A86
S214019C30002E3FF7B5AEF5EE408AF1EE10FAF7EEDC
S214019C40007A2BEE099A08BFF0EE678AC9EE288AD9
S214019C5038EE468ADFEDBD6A9FEDBD7ADFEDBD7A4F
S214019C60B5EE408AF1EE10FA08BFB0EE668A88EECD
S214019C70888A68EE078AF4EEE78AF1EE10FA64DC69
S214019C80F5EE408ADFEDB47AF1EE10FA48BFF0EE59
S214019C90678ADFF800E39EED008AF4EEC88AF1EEEB
S214019CA010FA40F14D82F6EE007A28EE278AA8EEE9
S214019CB0A78A79E6B5EEC06ADFEDA83ADFEDA16ABC
S214019CC09FEDA14AF1EE10FAF1EE687A54BFB0EEBC
S214019CD0446AB0EE666A77EEE37A86EE236AF7EEBA
S214019CE0003AB5EEC07A77EEA37AB6EE007AF1EED8
S214019CF010FA67EE877A54BFB0EE447AB0EE667A11
S214019D0023E69FED959AB0EE498ADFED935A35EE3C
S214019D10C87AD8E559071BD5BAF1000F40F0FA808A
S214019D206AF38203DBB201E003F0FE038C498D4E39
S214019D30DFF864B2DFF864A243F002031370D1E9DE
S214019D40000167E6C5EE895A08E7F0EE678AA0E7E4
S214019D508349844EDFF840B2DFF840A243F00203A5
S214019D60D1E90001137055E661F34103DBB27C498A
S214019D707C4EDFF824B2DFF824A243F0010313700F
S214019D80D1E9000146E6DBED007AFDEEE77A40F226
S214019D90E632CDED037ABDF80C701FFA87F909F1AA
S214019DA0FF339BB2934274D8DFF8BC813FB20520E3
S214019DB0002186B27218C2F34F03DAB238F913A043
S214019DC05745A8BF334603F1FF331BB2ACBF11465C
S214019DD010469942644EECDB09B2644B36F81170BA
S214019DE033F8110049000E44194472884988D21B81
S214019DF0C7EB09090BB207B29F4296B21FFA89F95F
S214019E0083B259DCC91A89B201FB09F2B2FBF6F238
S214019E1013449BB22B80564A5DE6B5EEC07AF1EE4E
S214019E2010FA4CBF6FF40003524B236035E6B8F1CD
S214019E30000F10D050499FED487A504B81ED007AC3
S214019E400021196010E6DFED446A4B4BB0EE667AEE
S214019E50C3ED006AFFE5494B93ED006AB5EE406A33
S214019E60F1EE10FA25D09FED467ADFED466A87EED1
S214019E70067A67EE266A40499FED436AD1ED005A9D
S214019E809FED427AE5EE866A26EE877AC1ED006A94
S214019E90D6E70523BEE703F0FE033149314EDFF86E
S214019EA0F8B0DFF8F8A043F004031370D1E900011D
S214019EB0B0E5DFED376ADEE7591A89B201FB09F929
S214019EC0B9FBF6F9C9EB03039BB2A3E704ADB0EE09
S214019ED0450AF0EE650AB0EE461A284600F052FA38
S214019EE09DED058ADDED047A2AEE088AB5EE409AE4
S214019EF0F1EE10FAA7EEA98A7FF404AEB5EEC08A99
S214019F00DFED117A9FED0F8AF1EE10FA58BFB0EE31
S214019F10678AF9E507EE90BAF8EEE77A114EDFF8B0
S214019F2078B0DFF878A017EE900AF8F7C5FB0C4B6F
S214019F30C3E900016EE561F34103DBB2ADE700BFA3
S214019F40CC030020FFFF7FFFFFFF7F7F6F12833A66
S214019F50002474490000FC42000000008FC2F53D59
S214019F60A8030020C40300206CD7020060D70200BB
S214019F70D8030020FFFF7F7FD0030020D4030020FA
S214019F80ABAA2A3ECDCCCC3D6666663F0000704249
S214019F90CCCCCC7DB4030020C8030020C003002035
S214019FA0DFF8FCB1DBED007AF0EEE77AFDEEE77A5A
S214019FB0CDED037ABDF80C20002A66D0B2F57A7F83
S214019FC080F08780642A40F2B380624E624800E0E7
S214019FD01E463346023033F8021B8A42F8D836F85A
S214019FE002EC068840888B1ACEEB020E1FFA8EF121
S214019FF09BB203FB06F60B449BB200FB0161B1FB6F
S21401A000F3F31BB207EE903AF8EEE77AB4EEE70AFE
S21401A010F1EE10FA68D5F5EEC0AADFED507A9FEDA5
S21401A020507AF1EE10FAB8BFF0EE477A4D4E9FED3A
S21401A0304E7AD6ED006A77EEA67AF4EEC77AF1EE9E
S21401A04010FA0DDD9FED497ADFF858A177EEC77A51
S21401A05017EE900AF8F730FB454BC3E90001D9E447
S21401A0609FED447AF4EEC77AF1EE10FA27D59FED0C
S21401A0703F7ADFF830A177EE877A17EE900AF8F785
S21401A0801BFB3B4BC3E90001C4E4DFED3B7AB4EEB6
S21401A090E70AF1EE10FABED4DFED387AB4EEE70A3D
S21401A0A0F1EE10FA1DDDF5EEC0AAF1EE10FAFAEEA9
S21401A0B00E7AB2EE0E7AB8BFF0EE477AB6E717EE32
S21401A0C0900AF8F7F9FA2A4BDFF8D8A0C3E900019D
S21401A0D0A0E4DFED2B7AB4EEE70AF1EE10FA9AD49B
S21401A0E0DAE7DFED287AA1E7642A25D9264E274844
S21401A0F000E01E463346023033F8021B8A42F8D887
S21401A10036F802EC068840888B1ACEEB020E1FFA50
S21401A1108EF29BB203FB06F613449BB200FB02626F
S21401A120B2FBF3F31BB207EE903AF8EEE77AB5E727
S21401A130174E0948642152E7164E14486421DFE79A
S21401A1409FED157ADFED157A28EE078AA8EEA78A25
S21401A1502AE400BF00AE020084D80200000070426C
S21401A160000070C2C4030020000034430000B44362
S21401A170A8030020000034C30000344200003E4320
S21401A1800000B44200000000E8AD02006CD80200F6
S21401A190FEAD0200E6AD02006666663FCDCCCC3D64
S21401A1A0C8030020C00300204FF0E02230B4D2F8EC
S21401A1B0881D0C4B0C4D0D480D4C41F47001C2F836
S21401A1C0881DD2F8341F21F08041C2F8341F5D602B
S21401A1D042F220114FF6FF725D6819609A600460C2
S21401A1E030BC70470020054020C528D9002008E073
S21401A1F0010000854FF0E021034BD1F80C2D92B2FF
S21401A2001343C1F80C3D70470400FA0508B5184918
S21401A210184B8B4207D0184A920804D01846920071
S21401A220F9F79EF80346154A15491360154A9142F7
S21401A23003D0521A1448F9F793F81449144A914274
S21401A24003D0521A1348F9F78BF81348134A904271
S21401A25003D0121A00210AF0A5FE1149114A9142B3
S21401A26005D0521A1048BDE80840F9F779B808BD7C
S21401A2700000010000A0FF1F0004000008ED00E040
S21401A280C4DF0200FCF3020000A4FF1FFCF302007F
S21401A29070F4020038B8FF1F000000207010002084
S21401A2A0ECDE0200C4DF02000080FF1FFAF7DAB816
S21401A2B000F06ABA00F076BA00F052BD00F038BD80
S21401A2C038B504460D4600F0CDFD042C13D8DFE862
S21401A2D004F0030303080D002846BDE8384000F0EB
S21401A2E011BD0420BDE8384000F00CBD0520BDE8D6
S21401A2F0384000F007BD38BD00F01CBD00F0AABC18
S21401A30010B5044600F0B4FD032804D02046BDE88D
S21401A310104000F09DBA0A2CF8D1024B986C80B21E
S21401A32010BD00BF0070024000F094BA00F0F2BB0E
S21401A33000F074BD00F074BD00F074BD00F08EBD79
S21401A34000F08EBD00F0C2BC00F0DABC00F064BDC7
S21401A350FAF78EBAFAF7E2B808B5FAF7C1F8BDE827
S21401A3600840FCF787BE00BF024B33F8100080B2EE
S21401A370704700BFE403002000F080BD00F086BDFA
S21401A38000F094BD38B5094B094C83ED000A05462B
S21401A39019462046C3ED010A83ED021AF7F734FB8E
S21401A3A023682B6063686B6038BD00BFB40400206F
S21401A3B08C040020F8B50B4F0B4D0C4C026843681B
S21401A3C06B600E4638460A492A60F7F739F939466E
S21401A3D02A462046F7F746FD2368336063687360B4
S21401A3E0F8BD00BF0C0400209C040020940400204B
S21401A3F050520200F8B50B4F0B4D0C4C02684368E7
S21401A4006B600E4638460A492A60F7F719F939464D
S21401A4102A462046F7F7BEFC2368336063687360FC
S21401A420F8BD00BF1C040020AC040020E40400209A
S21401A4305052020038B5094B094C056842681D6048
S21401A44020460D4619465A60F7F7ECFE23682B6046
S21401A45063686B60A368AB60C0B238BDA40400201B
S21401A460F40400200A4A0B4B70B582ED010A0A4C2F
S21401A470C2ED000A056846681D6020460D4619466D
S21401A4805E60F7F7B1FB23682B6063686B6070BD95
S21401A4907C040020040400208404002090ED035A6C
S21401A4A090ED027AD0ED004A90ED016AD0ED057A82
S21401A4B0D0ED045A90ED064A234865EE076AF0EEA1
S21401A4C0003AB0EE663AA4EEA33AD4EEA36A25EEBD
S21401A4D0066AC5EE032AC6EE836A86EE036A67EE4F
S21401A4E0A55A67EEA77A64EEA55A67EEA47A95EEAA
S21401A4F0A37A67EE857AB6EE005AF0EE475A97EEE3
S21401A500857AE7EE855AF0EE477AB1EE447AC0EDE9
S21401A510045AC0ED057AC0ED0A5AC0ED0B7A80EDFB
S21401A520084A80ED0E4A80ED097A80ED0F7AC0ED7B
S21401A530126AC0ED132AC0ED152A80ED146A01B91E
S21401A5407047F6F7ABBA00BF24040020F8B5174BE6
S21401A550174D184E0268D0F804C0D0F808E0C76856
S21401A560D0ED050A90ED040A32600C4618462A46DC
S21401A5703146C3F800E05F60C6F804C0F6F798FA03
S21401A58084ED000AD5ED010A95ED000AC4ED030A33
S21401A59084ED020AF1EE600AF6F7C2FC84ED010AC8
S21401A5A0AA68EB6822616361F8BD00BF140400204D
S21401A5B024040020FC03002090ED027AD0ED006A0E
S21401A5C090ED015A90ED036A124867EE077AF6EEAF
S21401A5D0005A67EEA67A27EE057A67EEA57AB0EE00
S21401A5E0005AF0EE674AE7EE054AE7EE457A66EE70
S21401A5F0A56AB1EE467AC0ED086A80ED046A80ED80
S21401A600057AC0ED004AC0ED017A01B97047F6F748
S21401A610FDBA00BFC0040020011D014AF6F7FCBACE
S21401A620C0040020F8B50E4C0E4B0F4E0268D0F851
S21401A63004E01A600D460027194620463246C3F844
S21401A64004E02760676086ED000AF7F77FF9236864
S21401A6502B6063686B60003018BF0120F8BD00BF37
S21401A660EC04002000050020F803002000F07EBC6A
S21401A6700D4B23F81010072815D8DFE800F0060860
S21401A6800A0C0E101204FCF7EFBAF9F79FBEF9F7A1
S21401A690BDBEF9F7BDBEF9F787BEF9F78DBEFCF76B
S21401A6A0E7BCFCF7DFBA7047E403002003280BD8A9
S21401A6B0DFE800F008060402FCF7DEBAFCF7DABAB7
S21401A6C0FCF7D6BAFCF7D2BA704700BFF9F77CBEE2
S21401A6D0F9F7BEBEF9F7C4BE704700BF704700BFAA
S21401A6E0FFF736BE10B50A4C207858B1002001217C
S21401A6F002F082F8074B93F9000004F0CDFD002329
S21401A700237010BD014602F077F80123237010BDB7
S21401A7101D0500200805002008B502F075FB02F0B3
S21401A72089F902F007F901F081F902F079FF02F0E8
S21401A730A1FF01F0D7FF02F051F800F0A9FF01F0E8
S21401A74043FE00F065FD02F043FE01F03FFA01F022
S21401A750C3FC01F0A5FB01F09FFC02F0B7F902F083
S21401A76025FEBDE8084002F0AFBF00BF08B502F005
S21401A770C3FF01F085FB01F087FCBDE8084001F04E
S21401A7808DBA00BF04F036B92BB1012B10B404D139
S21401A7905DF8044B002301F01BB800205DF8044B64
S21401A7A0704700BFF8B50D4C07460D460C482146CC
S21401A7B0164604F0BFF880B123683B60237B3370F4
S21401A7C0237B43B10023E218591C1279EA54227BF9
S21401A7D0CBB29A42F7D80120F8BDF8BD0C0500208F
S21401A7E03806002008B503F04DF8104803F0D8F8F5
S21401A7F00F4803F0DBF801210E4804F015FD012196
S21401A8000D4804F011FD0D4B187004F045FD0C4881
S21401A8100C49102204F070F804F066FC04F0DCFD2C
S21401A82004F026FDBDE8084004F01CBDD9A60100D1
S21401A830DDA60100E1A60100E5A60100080500204D
S21401A840380600202005002002F0FABEFFF72EBDD4
S21401A85000F0FABCF0B5002952D001294FD1A74B20
S21401A8601B78002B40F00581A54BDFF8A0E21C8E7B
S21401A8709F89DEED002A198EDE899EED003A1A8E3A
S21401A8809D8CDEED003AA4B207EE904ABFB2F8EE18
S21401A890674A07EE907A89B2B8EE675A07EE901AC1
S21401A8A0B6B2F8EE675A07EE906A92B2B8EE674A09
S21401A8B007EE902AADB2F8EE676A07EE905AF8EE08
S21401A8C0677A35EEC46A36EEE77A34EEC55AF1EEAB
S21401A8D0047A66EE276A65EE275A67EE277A85EED2
S21401A8E0A26A86EE837AC7EEA37A80ED006A80EDCF
S21401A8F0017AC0ED027A198A5A8A1B8D4EE0F0BDA4
S21401A9007E4B1B78002B6FD17D4BDFF800E21C8E4F
S21401A9101F88DEED002A198E5E889EED003A1A8E9B
S21401A9209D8ADEED003AA4B207EE904ABFB2F8EE79
S21401A930674A07EE907A89B2B8EE675A07EE901A20
S21401A940B6B2F8EE675A07EE906A92B2B8EE674A68
S21401A95007EE902AADB2F8EE676A07EE905AF8EE67
S21401A960677A35EEC46A36EEE77A34EEC55AF1EE0A
S21401A970047A66EE276A65EE275A67EE277A85EE31
S21401A980A26A86EE837AC7EEA37A80ED006A80ED2E
S21401A990017AC0ED027A9988DA881B8BDFED597A45
S21401A9A0DFED595A92B207EE102A89B29BB2F8EE41
S21401A9B0476A06EE101A07EE103AB8EE466AB8EE87
S21401A9C0477A26EE276A66EEA76A67EE277A26EEAC
S21401A9D0256A26EEA57A67EEA57A80ED036A80EDF4
S21401A9E0047AC0ED057AF0BD454B484D484E1C88AB
S21401A9F0D5ED003A5988378895ED004A9A8AD5ED03
S21401AA00004A89B205EE907A07EE901A7788B688E2
S21401AA10A4B292B2B8EE675A06EE907A07EE106AC2
S21401AA2006EE104A07EE902AB8EE466AF8EE677A06
S21401AA30F8EE655AF8EE666AB8EE477A35EEC66AFB
S21401AA4037EE677A76EEC56AF1EE047A26EE276A65
S21401AA5066EEA76A67EE277A86EE236A86EE847A22
S21401AA60C7EEA47A80ED006A80ED017AC0ED027A25
S21401AA7091E7234B254D264E9C89D5ED003AD98981
S21401AA80378895ED004A9A8CD5ED004A89B205EED5
S21401AA90907A07EE901A7788B688A4B292B2B8EE8A
S21401AAA0675A06EE907A07EE106A06EE104A07EE2F
S21401AAB0902AB8EE466AF8EE677AF8EE655AF8EE2E
S21401AAC0666AB8EE477A35EEC66A37EE677A76EE8C
S21401AAD0C56AF1EE047A26EE276A66EEA76A67EE85
S21401AAE0277A86EE236A86EE847AC7EEA47A80ED0C
S21401AAF0006A80ED017AC0ED027AFCE6400600208D
S21401AB00BC0A0020666698420000803958A8FF1FDC
S21401AB10300600204A4B1B78F0B4002B48D1494B35
S21401AB20494F198E1E88D7ED002A1A8E474C5D882C
S21401AB3097ED003A1B8EA46CD7ED003A89B207EE6A
S21401AB40101AB6B2F8EE474A07EE106A92B2B8EE9D
S21401AB50475A07EE102AADB2F8EE475A07EE105ADA
S21401AB60A4B29BB207EE904AB8EE474A07EE103AF7
S21401AB70F8EE677AF8EE476A35EEC46A36EEE77A9B
S21401AB8034EEC55AF1EE047A66EE276A65EE275A68
S21401AB9067EE277A85EEA26AF0BC86EE837AC7EE68
S21401ABA0A37A80ED006A80ED017AC0ED027A7047E3
S21401ABB0254C244B264D254E1988D4ED003A5A884B
S21401ABC094ED004AB36C2E88D4ED004A05EE906AE7
S21401ABD06E88AD8889B292B29BB206EE906A07EE95
S21401ABE0105A06EE101A07EE903A05EE102AF8EE05
S21401ABF0677AB8EE466AF8EE655AB8EE455AF8EE48
S21401AC00666AB8EE477A35EEC66A37EE677A76EE4A
S21401AC10C56AF1EE047A26EE276A66EEA76A67EE43
S21401AC20277A86EE236AF0BC86EE847AC7EEA47A8B
S21401AC3080ED006A80ED017AC0ED027A704700BFB0
S21401AC4040060020BC0A002058A8FF1F00700240E2
S21401AC503006002008B51A4B1B782DED028B0B2011
S21401AC6083B100F0F1FA07EE900ABDEC028B9FED7E
S21401AC70150A9FED157AF8EE677A67EE807A27EE69
S21401AC80870A08BD00F0E0FA07EE900A1320B8EE36
S21401AC90678A00F0D9FA07EE900AB8EE677AF6EE00
S21401ACA0007A37EE087ABDEC028B9FED060ADFEDDF
S21401ACB0066A67EE277A67EE807A27EEA60A08BD4F
S21401ACC041060020000070420000803908B568B1D6
S21401ACD0012809D1042000F0B7FA42F2107303FBF1
S21401ACE000F0C0F30F3008BD002008BD0D2000F0B5
S21401ACF0ABFA42F2107303FB00F0C0F30F3008BD4D
S21401AD0004F03CBA38B5094D2B78042B044605D01F
S21401AD100120214601F000FA2C7038BD0428F7D036
S21401AD2001F004FA01F0ACF82C7038BD1C050020C7
S21401AD3000F0E8BF064B0188064A10B44488198023
S21401AD4080885C800121988011705DF8044B704703
S21401AD50300600204006002002F0A6BCFFF7FABA33
S21401AD6010B1012802D1002000F028BD704700BFB5
S21401AD7010B54FF42054013CA4B202F095FC002C0F
S21401AD80F9D106F067FE49F63054013CA4B202F050
S21401AD908BFC002CF9D1FFF72DFAFEE710B51B4C02
S21401ADA003F042FD2046002100F0D0FD50B123689B
S21401ADB040F20222934215D0FF2B1BD0B3F5407F01
S21401ADC00CD018B9BDE81040FFF7C6BA10480F49B5
S21401ADD003F098FDBDE81040FFF7BEBA0D4803F03A
S21401ADE015FFEFE7201D02F0E7FD03F08BF923685E
S21401ADF00020E1E7AA23074923710122002340F23C
S21401AE000F1000F0E5FCFFF7B3FF00BF200600209F
S21401AE10380600202406002001F0BCBE01F042BD29
S21401AE2001F05CBD10B501460446022001F0E4FCC9
S21401AE302146002001F0E0FC2146012001F0DCFC67
S21401AE402146032001F0D8FC1CB9BDE8104001F0F2
S21401AE501FB8BDE8104000F021BF00BF04F080B964
S21401AE6004F086B9014B1870704700BF41060020F8
S21401AE70014B1878704700BF41060020024B93F93A
S21401AE80000004F013BA00BF0805002081EE201A66
S21401AE90044BDFED050A21EE000A20EE200A83EDC1
S21401AEA0000A704758A8FF1F000080452C4A1178F9
S21401AEB00329034604D01278042A01D000F0F6BE16
S21401AEC01A78002A25D1274A4FF4004191605A7812
S21401AED0002A25D0234A4FF4803151609A78002AFF
S21401AEE025D0204A01215160DA78002A25D01D4A52
S21401AEF0022151601A79002A25D01B4A4FF480316D
S21401AF0051605B79002B25D0174B4FF400325A6005
S21401AF107047144A4FF4004151605A78002AD9D13B
S21401AF20104A4FF4803191609A78002AD9D10D4A9F
S21401AF3001219160DA78002AD9D10A4A022191606A
S21401AF401A79002AD9D1084A4FF4803191605B7989
S21401AF50002BD9D1044B4FF400329A60704700BFE2
S21401AF6041060020C0F00F4040F00F4001F004B849
S21401AF70FFF77EBBFFF79ABB014B1870FFF7A6BB26
S21401AF8036060020FFF7A4BBFFF7A4BB364B1F22F3
S21401AF90F0B41A605A609A60DA601A615A611A62ED
S21401AFA05A629A62DA621A6822F040021A605A6895
S21401AFB022F040025A609A6822F040029A60DA68EB
S21401AFC022F04002DA601A6922F040021A615A69D8
S21401AFD022F040025A611A6A22F040021A625A6A44
S21401AFE022F040025A629A6A22F040029A62D96AB4
S21401AFF0002221F0400144250C248720D9621D64DB
S21401B00019465C64C3F8B420C3F8B820C3F8BC2062
S21401B010C3F8C020C3F8C420C3F8C820C3F8CC20A6
S21401B020C3F894000A68104B1206FBD500222420B0
S21401B0300C21C3F8942018645964D3F890100125A4
S21401B040022403200827092641F04001C3F8901086
S21401B0501D605A609C60D8601F615E611D625A6205
S21401B0609C62D862F0BC704700B00340094A0A4BA4
S21401B070D2F88410526E10B441F23C0041F21C0426
S21401B08041F25C0101221A531A525DF8044B5A52DE
S21401B090704700BF00700240008000402DE9F84F65
S21401B0A0594B1F221A605A609A60DA601A615A6117
S21401B0B09A61DA611A625A629A62DA621A635A63AA
S21401B0C09A63DA631A6822F040021A605A6822F01C
S21401B0D040025A609A6822F040029A60DA6822F0CA
S21401B0E04002DA601A6922F040021A615A6922F0B7
S21401B0F040025A619A6922F040029A61DA6922F0A6
S21401B1004002DA611A6A22F040021A625A6A22F092
S21401B11040025A629A6A22F040029A62DA6A22F081
S21401B1204002DA621A6B22F040021A635A6B22F06E
S21401B13040025A639A6B402122F040029A63D96317
S21401B140196C002241F044010C24872019645C64C8
S21401B1501946C3F8B420C3F8B820C3F8BC20C3F816
S21401B160C020C3F8C420C3F8C820C3F8CC20C3F855
S21401B17094000A68244B1206FBD500240C202422D6
S21401B180C3F894401A645864D3F890201F490927DD
S21401B19008260E2542F040024FF0020BC3F890201D
S21401B1A04FF0070E1F604FF0060C5E604FF0030A6B
S21401B1B09D604FF00409C3F80CB04FF005080A2251
S21401B1C04FF00B0BC3F810A0C3F81490C3F8188007
S21401B1D0C3F81CC01F625E629D62C3F82CE01A634E
S21401B1E0C3F834B09863DA6B42F00D02DA632820B4
S21401B1F0224606F0F7FB2146282006F033FC2820DD
S21401B200BDE8F84F06F002BC007002406DB00100C8
S21401B2100A4A08B5536843F00F035360FFF7B6FEBA
S21401B220FFF73CFF002306491A4621F81320013395
S21401B2301A2BFAD1034B01225A7108BD0080044033
S21401B240BC0A0020100B002019289DBF034B33F8C1
S21401B250100080B24FF6FF70704700BFBC0A002096
S21401B260F0B583B00446FFF703FE3E493E4A3F4B26
S21401B2703F4D002641F21C0C41F23C0E41F25C07A8
S21401B280C2F89460C1F894600122D1F88460496ED6
S21401B29023F80C2023F80E20DA532B78042B15D034
S21401B2A0052C5CD8DFE804F003032424331B2D4A65
S21401B2B0304B00B340210D26D663D161D16941F0F0
S21401B2C00601D1612C70187003B0F0BD042C1ED09D
S21401B2D00190FFF75BFEFFF7E1FE0198E0E72B78B0
S21401B2E0042B244B02D01A78002AEBD11D4AE1E741
S21401B2F01C4A204BDEE706264021D661D163D16B7E
S21401B30041F00D01D1632C70187003B0F0BD154AE1
S21401B3101549184B4FF0060E0D270826C2F81CE0FB
S21401B320D763C2F89460D2F8906026F04006C2F85F
S21401B3309060D1F8906026F04006C1F89060D1F890
S21401B34090604FF0010E46F004060927C1F89060A0
S21401B350C1F800E017602C70187003B0F0BD054B03
S21401B360B0E700BF0070024000B00340008000401C
S21401B3704306002042060020B34A136B9BB210B569
S21401B380002B40F0F780B14A136B13F0FF0F40F02B
S21401B390B880AF4A136B13F0FF0F74D1AA4A136B30
S21401B3A01B0C1B04002B4CD1A84B1A6B12F47F4FBD
S21401B3B028D1A74B1A6B12F47F4F00D110BD1A6B20
S21401B3C0A44C02F47F421A6306F044FBA14B9A7B1D
S21401B3D0013AD2B200219A7399725A7B0132D2B2E3
S21401B3E05A735A7B072A88BF59739B7B03F0FF0267
S21401B3F0002B40F033810123E372A273BDE81040B5
S21401B40006F01CBB1A6B934C02F47F421A6306F0DB
S21401B41021FB637A013B0022DBB263726271237AFD
S21401B4200133DBB22372237A2272637A03F0FF02BE
S21401B430002B40F0F4800123A371627206F0FEFA3D
S21401B440B7E7136B834C1B0C1B04136306F002FB5C
S21401B450804B1A79013AD2B200211A711970DA7842
S21401B4600132D2B2DA70DA780F2A88BFD9701B7926
S21401B47003F0FF02002B40F0BB80012363702271B2
S21401B48006F0DCFA90E7116B734BC9B211639A7B35
S21401B4900132D2B29A739A7B0AB10022DA721A7B0F
S21401B4A06D48120102F1804202F52C32D2F880106A
S21401B4B021F07061C2F880109A7B072A03D9012116
S21401B4C00822817282739A7A634902F0FF00002A89
S21401B4D07FF464AF0A7B0132D2B20A730A7B072A71
S21401B4E088BF08731B7B1B0103F1804303F52C33D4
S21401B4F0D3F8802022F0706242F08062C3F8802088
S21401B5004CE7116B544BC9B211635A7A0132D2B26D
S21401B5105A725A7A0AB100229A71DA794E491201A0
S21401B52002F1804202F514320124D2F8800020F0A4
S21401B5307060C2F880000022587A5C715A725B799A
S21401B54003F0FF02002B7FF424AFCB792344DBB258
S21401B550CB71CB79CA71CB791B0103F1804303F51B
S21401B5601433D3F8802022F0706242F08062C3F870
S21401B57080200EE7116B384B89B211631A790132BC
S21401B580D2B21A711A790AB100225A709A783248E0
S21401B590120102F1402202F50032D2F8801021F0A9
S21401B5A07061C2F880101A790F2A03D9012110227E
S21401B5B0017002711A78284902F0FF00002A7FF410
S21401B5C0E2AE8A780132D2B28A708A780F2A88BFB0
S21401B5D088709B781B0103F1402303F50033D3F8F1
S21401B5E0802022F0706242F08062C3F88020CAE6B2
S21401B5F006F030FA63787BB9E3781033DBB21B01CF
S21401B60003F1402303F50033D3F8802022F0706263
S21401B61042F04062C3F8802006F010FA30E706F0E8
S21401B62019FAA3796BB9237A1B0103F1804303F559
S21401B6301433D3F8802022F0706242F04062C3F8DF
S21401B640802006F0FBF9F9E6004002400050024077
S21401B65000B0024044060020A006002006F0FAF9D9
S21401B660E37A7BB9637B0833DBB21B0103F18043CA
S21401B67003F52C33D3F8802022F0706242F040624A
S21401B680C3F8802006F0DAF9BDE8104006F0D6B916
S21401B69070B500204049414A04F00EFC08BB05463F
S21401B6A00446EEB2002031463D4A034604F056FDFC
S21401B6B0013531463B4A08B10134E4B2002004F0BA
S21401B6C081FD324608B10134E4B20020014603464A
S21401B6D004F0C2FB08B10134E4B2102DE1D1002C14
S21401B6E055D0314B0022DA7000200246014604F0A4
S21401B6F091FB0020012104F071FB2C4B2C499A6A26
S21401B7004FF0FF329A625120002206F06BF90022B8
S21401B7105220274906F066F95120032106F0A2F9C6
S21401B7200321522006F09EF9512006F06FF95220AF
S21401B73006F06CF94F2006F075F91E491E4A0023E3
S21401B74001240B7020464C708B70CB700B711370FC
S21401B75054709370D37013714B718C71CB710B72E3
S21401B7604B7253719471D371137253728B72CC7284
S21401B7700B734B738B739372D472137353739373EC
S21401B78004F050FD0220BDE8704004F04BBD064BAE
S21401B7900122DA70A8E700BF500F00202CB3FF1F6C
S21401B7A0ECDA020054060020100B00200040024094
S21401B7B079B3010044060020A0060020034B01EBEC
S21401B7C0810103EB810104F0B7BA00BF44DA02003D
S21401B7D02DE9F04F9D001C46574F584EEB1856F872
S21401B7E0248017F803E085B0FE18BEF1000F05D1DE
S21401B7F0534B93F800A0BAF1000F22D0D8F82030AE
S21401B8005B0603D5002005B0BDE8F08F25443D4416
S21401B81006F020F96B7873B94A4BEA781B5D13443E
S21401B820DBB208EB0318D8F8803023F0706343F0DE
S21401B8304063C8F8803006F001F9002005B0BDE885
S21401B840F08F03920291019006F004F996F802C077
S21401B850B378DFF8F4E0DFF8EC901EF804E019F8AE
S21401B8600490DFF8D4B00133DBB2B370B37873451C
S21401B87028BF86F802A005EB040A07EB0A06CC44AB
S21401B88033790133DBB23371337901A89E455FFA10
S21401B8908CFC07C804D801230BF80A3086F804E0AC
S21401B8A04B790E7991F807E091F806A01B0443EA5C
S21401B8B0066343EA0E0308EB0C1643EA0A23C6F8AE
S21401B8C08C304B7891F800A091F803E091F802C013
S21401B8D01B0443EA0A61120442F04842254441EA45
S21401B8E00E0142F4800280043D4441EA0C21C6F870
S21401B8F08810C6F88400C6F880206B782BB906F04D
S21401B9009DF8012005B0BDE8F08F00236B7006F0AE
S21401B910A1F86B786BB9EB7899445FFA89F908EB73
S21401B9200918D8F8803023F0706343F04063C8F8F4
S21401B930803006F083F8E2E74406002034DA02009D
S21401B940C309002030DA0200E8DA02002DE9F041EE
S21401B9508F00324D324C7A182A4454F821605378BD
S21401B96003F0FF0E002B55D192F80380D4782D4BAF
S21401B970DFF8B4C05B5C1CF801C00134E4B2D470DB
S21401B980D4784344DBB206EB0313A44598BF82F890
S21401B99003E0D3F88020D3F88420C2F38A42026001
S21401B9A0D3F88020C2F303420273D3F88820120E24
S21401B9B00271D3F88820120C4271D3F88820120A3B
S21401B9C08271D3F88820C271D3F88C20120E0272CD
S21401B9D0D3F88C20120C4272D3F88C20120A827291
S21401B9E03944D3F88C20C2722944D3F88030B36826
S21401B9F00B79013BDBB20B710B7903F0FF0213B934
S21401BA0001234B700A7103F00FFDB0FA80F0400974
S21401BA10BDE8F0810020BDE8F08100BFA00600204F
S21401BA2034DA0200E4DA020040DA020008B5064819
S21401BA30064A0023042106F083FF054BB0FA80F086
S21401BA404009D87208BD00BF80A8FF1F080A002061
S21401BA50100B00201F49204B0A6822F400720A606E
S21401BA601A781AB15A88013292B25A801A791A494A
S21401BA701AB1CA88013292B2CA801A7A16491AB124
S21401BA804A89013292B24A811A7B13491AB1CA898C
S21401BA90013292B2CA811A7C0F491AB14A8A01321E
S21401BAA092B24A821A7D0C491AB1CA8A013292B2FE
S21401BAB0CA821A7E08491AB14A8B013292B24A8367
S21401BAC01B7F054A1BB1D38B01339BB2D383FFF790
S21401BAD059BA00BF009003401807002008B50B4B69
S21401BAE0DA6B110608D4094B5A6C120603D55A6C48
S21401BAF022F080025A6408BDDA6B22F08002DA6313
S21401BB00196C002089B2FFF733FAECE70090034086
S21401BB1008B50F4BDA6A11060FD40D4B5A6B120695
S21401BB2000D408BD5A6B22F080025A63996B052037
S21401BB3089B2BDE80840FFF71BBADA6A22F0800234
S21401BB40DA62196B042089B2FFF712FAE5E700BF43
S21401BB500090034008B50F4BDA6911060FD40D4B60
S21401BB605A6A120600D408BD5A6A22F080025A6246
S21401BB70996A032089B2BDE80840FFF7F9B9DA6986
S21401BB8022F08002DA61196A012089B2FFF7F0F922
S21401BB90E5E700BF009003400B4BDA68110604D5B9
S21401BBA0DA6822F08002DA601B69074B5A691206CE
S21401BBB000D470475A6922F080025A6199690220BE
S21401BBC089B2FFF7D5B900BF009003402E4B2F492D
S21401BBD05A6D42F0040270B55A655A6D2C4D42F00A
S21401BBE001025A659A6D42F002029A659A6D42F018
S21401BBF080029A651A68332042F480721A60586689
S21401BC005A6E42F44C525A66586E0024042240F48E
S21401BC104C1043F2154658669E602C70DC64DA6060
S21401BC205A61DA615A62DA625A631C619C611C626B
S21401BC309C621C639C63D3F8982042F40072C3F89C
S21401BC409820DA6E42F04002DA665A68120C120444
S21401BC5088255A6020469D6606F086FE0D4B88B9FB
S21401BC60DA790AB10122DA7168200B49002205F05F
S21401BC70B9FE6820022105F0F5FE6820BDE8704097
S21401BC8005F0C4BEDC71EFE7008003401CDD020056
S21401BC90B0060020100B002095C30100024A13686D
S21401BCA043F47C131360704700800340F0B5144CD6
S21401BCB0236823F47C132360067847788578C17857
S21401BCC0D4F800E00279437936047F0406F480361E
S21401BCD007F400373E43A80446EA0E0600F4802027
S21401BCE0C904304301F400211205014302F4801215
S21401BCF05B050A4303F4001313432360F0BD00BF42
S21401BD000080034070B52DED048BB7EE009AB4EEBB
S21401BD10490AF1EE10FAF0EE408AF4EE490AB0EE66
S21401BD20608AC8BFF0EE498AF1EE10FAB4EE491AFD
S21401BD304D4CF0EE419AC8BFB0EE498AF1EE10FACA
S21401BD40C8BFF0EE499AC4ED018A84ED028AC4EDBB
S21401BD50039AFFF78DF8022877D02378B7EE001AFA
S21401BD6071EE688A31EE488A31EE691A032B73D870
S21401BD70DFE803F062595002F7EE006A76EEE85A01
S21401BD809FED3A7A78EEA68A76EEC17A36EEC86AE2
S21401BD9031EE261A38EE268A68EE878A65EE875ACD
S21401BDA066EE076A28EE078A67EE877A21EE071A9B
S21401BDB0FCEEE88ABCEEE57A18EE903A17EE100A29
S21401BDC0BCEEC88ABCEEE67AFCEEE77ABCEEC11A97
S21401BDD017EE105A17EE906AC3F34E0211EE101AC0
S21401BDE018EE103AC0F34E00C5F34E05C3F34E03EA
S21401BDF0C6F34E06C1F34E011D4CBDEC048B20610B
S21401BE00A2612562A3622663A163A36D43F080034A
S21401BE10A36570BDF7EE006A76EEE85A9FED157AD7
S21401BE2078EEA68AB0E7F7EE006A76EEE85A9FED5E
S21401BE30127A78EEA68AA7E7F7EE006A76EEE85A57
S21401BE409FED0E7A78EEA68A9EE779EE688A39EE3D
S21401BE50488A79EE699A80E700210E460B460D4620
S21401BE600A460846C8E700BFB006002000007A452B
S21401BE700080034000409C450000FA4500585046AB
S21401BE80024A136843F008031360704700800340BA
S21401BE90024A136823F47C13136070470080034042
S21401BEA008B56E202A49002205F09CFD6920294923
S21401BEB0002205F097FD6A202749002205F092FD31
S21401BEC06B202649002205F08DFD00226C202449B6
S21401BED005F088FD6E20012105F0C4FD69200121D1
S21401BEE005F0C0FD6A20012105F0BCFD6B20012193
S21401BEF005F0B8FD6C20012105F0B4FD01201949BB
S21401BF00194A05F039FCA8B1184B0022DA71184B12
S21401BF1000221A705A801A71DA801A725A811A73BC
S21401BF20DA811A745A821A75DA821A765A831A775D
S21401BF30DA8308BD01200F4904F0B8F90028E3D1DF
S21401BF400A4BDA79002AE2D00122DA71DFE700BF74
S21401BF5055BA010099BB010055BB010011BB010098
S21401BF60DDBA010048AAFF1F38070020100B002089
S21401BF7018070020CCAAFF1F2DE9F043DFF8FC804C
S21401BF80DFF8FCC0D8F80C30DFF8F8E0364F374E53
S21401BF90374D384C384A23F00C03C8F80C30037878
S21401BFA0D8F80C909B0003F00C0343EA0903C8F889
S21401BFB00C30DCF80C3023F00C03CCF80C30437852
S21401BFC0DCF80C809B0003F00C0343EA0803CCF872
S21401BFD00C30DEF80C3023F00C03CEF80C308378EE
S21401BFE0DEF80CC09B0003F00C0343EA0C03CEF80A
S21401BFF00C30FB6823F00C03FB60C378D7F80CE029
S21401C0009B0003F00C0343EA0E03FB60F36823F086
S21401C0100C03F3600379F7689B0003F00C033B43C2
S21401C020F360EB6823F00C03EB604379E8689B0050
S21401C03003F00C030343EB60E36823F00C03E360B7
S21401C040E0680B789B0003F00C030343E360D368BE
S21401C05023F00C03D3604B78D1689B0003F00C03EC
S21401C0600B43D360BDE8F083189003402090034053
S21401C0702890034000A0034008A0034030900340EE
S21401C0801090034008900340024A136843F01803D7
S21401C090136070470090034008B502200A490B4A16
S21401C0A005F06AFB18B10A4B0022DA7108BD0220BE
S21401C0B0084904F07BFE0028F5D1054BDA79002A01
S21401C0C0F4D00122DA7108BDF4A8FF1F9007002002
S21401C0D0100B002008A9FF1F08B503200A490B4AC8
S21401C0E005F04AFB18B10A4B0022DA7108BD03209D
S21401C0F0084904F049FF0028F5D1054BDA79002AF2
S21401C100F4D00122DA7108BD20A9FF1FC006002065
S21401C110100B002034A9FF1F024A034B1170187040
S21401C120704700BFB0060020E8070020F8B5924D22
S21401C130924E2DED048B0446FEF79AFE2B78042BC7
S21401C140074600F0DC80052B00F0BF80022F00F0D0
S21401C150C580012F40F20281052C0DD8DFE814F0CE
S21401C160E900F000F7000600DF00D60000F088FACC
S21401C170834B40F69F729A602046FFF771F820467F
S21401C18001F05EF9D6ED018A96ED028AD6ED039AA4
S21401C190B7EE009AF4EE498AF1EE10FAB4EE498A47
S21401C1A0C8BFF0EE498AF1EE10FAF4EE499AC8BF1C
S21401C1B0B0EE498AF1EE10FAC8BFF0EE499AC6ED24
S21401C1C0018A86ED028AC6ED039AFEF751FE022821
S21401C1D000F08E803378F7EE007A77EEE88A37EE55
S21401C1E0C88A77EEE97A032B00F2BE80DFE803F017
S21401C1F0645B5202B7EE006A36EE685ADFED616A9A
S21401C20078EE868A36EE677A76EE485A77EE867A42
S21401C21038EE068A68EEA68A25EE265A25EEA66A26
S21401C22028EE268A27EE267A67EEA67AFCEEE88ABC
S21401C230FCEEC56A18EE903A16EE900ABCEEC88A75
S21401C240FCEEC66ABCEEC77AFCEEE77A16EE906A9A
S21401C25017EE10EAC3F34E0217EE901A18EE103AD4
S21401C260C0F34E00C6F34E06C3F34E03CEF34E0E96
S21401C270C1F34E01424FBDEC048B3861BA613E6298
S21401C280BB62C7F830E0B963BB6D43F08003BB65A2
S21401C2902C70F8BDB7EE006A36EE685ADFED3A6AE2
S21401C2A078EE868AAEE7B7EE006A36EE685ADFEDBC
S21401C2B0376A78EE868AA5E7B7EE006A36EE685AE0
S21401C2C0DFED336A78EE868A9CE7052C3FF43EAFB5
S21401C2D0347000F061FA022F7FF43BAF284B1A68E6
S21401C2E022F4A8121A601A6842F428121A6033E778
S21401C2F079EE688A39EE488A79EE699A6AE7042CFB
S21401C3003FF424AF347000F047FAE4E700F0B8F9E0
S21401C31000F020FA1A4B41F63F729A602CE7184A51
S21401C320136823F01803136000F098F900F012FA6E
S21401C33022E700F0A5F9124B43F215429A601BE77B
S21401C34000F09EF90E4B41F63F729A6014E700F03A
S21401C35097F90B4B41F287329A600DE7084A13684A
S21401C36043F47C131360F7E600218E460B460E4617
S21401C3700A4608467EE700BFE9070020B00600200F
S21401C3800080034000007A4500409C450000FA45C5
S21401C39000585046094A136810B5094C23F4007337
S21401C3A0136023781BB9BDE81040FEF7D7BC054BD8
S21401C3B01878FFF7BBFE0023237010BD00800340F2
S21401C3C0E8070020B0060020994B41F21C0C8022A1
S21401C3D02DE9F04F1A6033F80C20964F964DDFF892
S21401C3E060A2DFF860E2DFF86092DFF860B222F068
S21401C3F08002120403F58054120C23F80C2041F23B
S21401C40004068E4A226041F2060004249C5341F23F
S21401C410080140F201161E5241F20C0841F21000CA
S21401C4205F5041F214016FF0170743F808701D5072
S21401C43041F216070220585241F218020121D9533F
S21401C4406FF00B079F5041F21E070022D95323F8C5
S21401C4500C2041F23C0703F5815833F807C02CF055
S21401C460800C4FEA0C4C4FEA1C4C23F807C041F2F3
S21401C470240CC8F800A041F2260823F80C4041F22B
S21401C480280C23F8086041F22C0843F80CE041F22E
S21401C490300C6FF00F0E43F808E005F10C0841F27E
S21401C4A0340E43F80C8041F2360C23F80E0041F2AC
S21401C4B0380841F23E0E23F80C106FF0070C43F8D3
S21401C4C008C023F80E1041F25C08DA5333F80870FE
S21401C4D0DFF87CE127F080073F043F0C03F5825A22
S21401C4E023F8087041F24407CAF8009041F2460961
S21401C4F0DC5341F2480723F8096041F24C0943F83E
S21401C50007B06FF03F0A41F2500743F809A005F162
S21401C510140A41F2540943F807A041F2560A23F8D7
S21401C520090041F2580741F25E0923F80A106FF03C
S21401C5301F0A43F807A023F8091041F27C0723F8E5
S21401C540082033F807A0DFF80C91DFF80C812AF0F9
S21401C550800A4FEA0A4A4FEA1A4A03F5835B23F830
S21401C56007A041F2640A354FCBF8007041F2660B22
S21401C57023F80A2041F2680A23F80B6041F26C0B9B
S21401C58041F2700643F80A0041F2740A43F80B20A0
S21401C5909D5141F2760B41F2780641F27E0523F871
S21401C5A00A006FF0030A23F80B0043F806A058535D
S21401C5B041F27C0541F29C065A539D5B25F08005AD
S21401C5C003F5845B2D0441F2840A2D0C9D53CBF8B0
S21401C5D0009041F2860541F2880B41F28C0923F85E
S21401C5E00A4040F2022A23F805A043F80B4041F224
S21401C5F0900A43F809C041F2940541F2960B41F2C4
S21401C600980441F29E094FF02A0C483F43F80A70FD
S21401C6105A5323F80B101A5123F809009A538EF82F
S21401C62003C08EF804C088F80410BDE8F08F00BF80
S21401C630008000400C080080BC0A002048B003407F
S21401C64068B0034008080080487002402008008057
S21401C65000100240FCDA0200100B0020064B0749CE
S21401C660DA7842F08002DA701A79182042F08002F5
S21401C6701A71C860704700BF001002400080004079
S21401C680034B04492A220020DA701A71C8607047E9
S21401C6900010024000800040034A936B43F0807311
S21401C6A093630420FEF768BC00900440064A074BDB
S21401C6B010691B69C0F30020C3F3403353EA4000FE
S21401C6C000D17047FEF758BC80F00F4000F00F40D5
S21401C6D0034A536A43F080735362FEF755BC00BFAA
S21401C6E000D0044008B51549592006F0ABF8144AA5
S21401C6F0B0FA80F301215B091248937002F094FDB1
S21401C7003F201149002205F06DF900223B200F4918
S21401C71005F068F93F20042105F0A4F904213B2027
S21401C72005F0A0F93F2005F071F93B2005F06EF900
S21401C730074B4FF480329A6008BD00BFD4AAFF1F92
S21401C740100B0020ADC60100D1C6010099C601003C
S21401C75000F10F4010B40C4A0C4C0D480D494FF433
S21401C7608073D36313641360536023646364436903
S21401C7705DF8044B43F4C03343F0030343614B6954
S21401C78043F440334B61704700C0044000A00440AE
S21401C790C0F00F4040F00F4010B40C4A0C4C0D484E
S21401C7A00D494FF40073D36313641360536023641D
S21401C7B0636443695DF8044B23F4C03323F0030339
S21401C7C043614B6923F440334B61704700C004401A
S21401C7D000A00440C0F00F4040F00F400449054B54
S21401C7E04FF480404FF4006248605A60704700BFC3
S21401C7F000F10F4080F00F400A280CD8DFE800F067
S21401C8000C13191F242A30363C420600204B4FF4E5
S21401C810803231B99A6070471E4B4FF480720029FE
S21401C820F8D05A6070471B4B4FF400720029F1D0C4
S21401C830F7E7184B4FF400620029EBD0F1E7164BEF
S21401C84010220029E6D0ECE7144B4FF400620029D1
S21401C850E0D0E6E7124B4FF480520029DAD0E0E749
S21401C8600F4B4FF400520029D4D0DAE70C4B4FF4AB
S21401C87000320029CED0D4E7054B4FF400520029F0
S21401C880C8D0CEE7024B4FF480420029C2D0C8E799
S21401C89000F10F4000F00F4040F00F4080F00F40D5
S21401C8A0C0F00F40012810D008D3022805D10A4B4A
S21401C8B04FF4807239B99A6070477047064B4FF44F
S21401C8C000620029F7D05A607047034B4FF480523C
S21401C8D00029F0D05A60704700F10F4040B101289E
S21401C8E005D1074B4FF4005239B99A60704770472B
S21401C8F0034B4FF480520029F7D05A60704700BFAF
S21401C900C0F00F40024A537803F07F03537070471C
S21401C9100000024062B110B40139044611F8013F2B
S21401C92004F8013B231A9BB29342F7D35DF8044BFC
S21401C930704700BF0C4A0D48D2F804340C4943F442
S21401C9407F6310B5C2F8043402F09AFF044608B1BA
S21401C950C0B210BD07492246122005F043F8122046
S21401C96005F054F8204610BD0010004034DD0200EA
S21401C970F40A002005C9010070B50D46064605F00B
S21401C98069F8C5F30B0313B105F58055ED1A0C488C
S21401C99031462A4602F0AEFF044660B93146C5F379
S21401C9A0CF020748012303F025F8044618B905F01D
S21401C9B045F8204670BD05F041F8E0B270BD00BFF5
S21401C9C0F40A0020F0B585B0154607460E4605F078
S21401C9D041F81549154A164B0B60936115F007038C
S21401C9E01CBFC3F1080355FA83F5104839462A4699
S21401C9F0334603F071F8044680B903AC0120009475
S21401CA00019039462A463346084803F0EFF80446B3
S21401CA1020B905F013F8204605B0F0BD05F00EF874
S21401CA20E0B205B0F0BD00BFF00A0020F40A002015
S21401CA3039B8FF1F08B50A480A4A0121002302F047
S21401CA40C3FD18B1084B00221A7008BD012102F07F
S21401CA50C9FD0028F6D1044B01221A7008BD00BF9B
S21401CA60CCA9FF1F200A0020100B0020044B012236
S21401CA70DA609A6A22F001029A620020FEF77ABA18
S21401CA8000700340044B0222DA609A6B22F0010226
S21401CA909A630120FEF76EBA00700340044B04222D
S21401CAA0DA609A6C22F001029A640220FEF762BAFA
S21401CAB000700340044B0822DA609A6D22F00102EE
S21401CAC09A650320FEF756BA0070034010B50020A1
S21401CAD0264904F0F3FF00223020254904F082FFA6
S21401CAE03020002104F0BEFF00200146214A05F057
S21401CAF019F8044618B1204B00225A7210BD22467E
S21401CB0031201E4904F06EFF2146312004F0AAFFB1
S21401CB10204601211A4A05F005F804460028EAD104
S21401CB2022463220174904F05DFF2146322004F0E8
S21401CB3099FF20460221144A04F0F4FF0446002817
S21401CB40D9D122463320114904F04CFF3320214627
S21401CB5004F088FF204603210D4A04F0E3FF002875
S21401CB60C9D1054B01225A7210BD00BF00DD02007B
S21401CB706DCA010094A8FF1F100B002085CA010092
S21401CB80ACA8FF1F9DCA0100C4A8FF1FB5CA0100BB
S21401CB90DCA8FF1F032800D97047030103F1804377
S21401CBA003F55C3330B4821C9C6A0C4D1201C9003B
S21401CBB024F0010402289C62A9500BD0032806D059
S21401CBC0012814BF012302236B6130BC7047082380
S21401CBD06B61FAE704236B61F7E700BF007003405F
S21401CBE0054B4FF03B42DA635FEA0E00EFF3088134
S21401CBF0EFF3098201F066BFACB8FF1F054B4FF09B
S21401CC002A42DA635FEA0E00EFF30881EFF3098246
S21401CC1001F058BFACB8FF1F054B4FF00842DA636E
S21401CC205FEA0E00EFF30881EFF3098201F04ABFD5
S21401CC30ACB8FF1F054B4FF04C42DA635FEA0E00BB
S21401CC40EFF30881EFF3098201F03CBFACB8FF1F98
S21401CC50054B4FF05D42DA635FEA0E00EFF30881A1
S21401CC60EFF3098201F02EBFACB8FF1F054B4FF062
S21401CC706E42DA635FEA0E00EFF30881EFF3098292
S21401CC8001F020BFACB8FF1F054B4FF01942DA6325
S21401CC905FEA0E00EFF30881EFF3098201F012BF9D
S21401CCA0ACB8FF1FFEE700BFFEE700BFFEE700BF10
S21401CCB0FEE700BFFEE700BFFEE700BFFEE700BFDE
S21401CCC0FEE700BFFEE700BFFEE700BFFEE700BFCE
S21401CCD0FEE700BFFEE700BFFEE700BFFEE700BFBE
S21401CCE0FEE700BFFEE700BFFEE700BFFEE700BFAE
S21401CCF0FEE700BFFEE700BFFEE700BFFEE700BF9E
S21401CD00FEE700BFFEE700BFFEE700BFFEE700BF8D
S21401CD10FEE700BFFEE700BFFEE700BFFEE700BF7D
S21401CD20FEE700BFFEE700BFFEE700BFFEE700BF6D
S21401CD30FEE700BFFEE700BFFEE700BFFEE700BF5D
S21401CD40FEE700BFFEE700BFFEE700BFFEE700BF4D
S21401CD50FEE700BFFEE700BFFEE700BFFEE700BF3D
S21401CD60FEE700BFFEE700BFFEE700BFFEE700BF2D
S21401CD70FEE700BFFEE700BFFEE700BFFEE700BF1D
S21401CD80FEE700BFFEE700BFFEE700BFFEE700BF0D
S21401CD90FEE700BFFEE700BFFEE700BFFEE700BFFD
S21401CDA0FEE700BFFEE700BFFEE700BFFEE700BFED
S21401CDB0FEE700BFFEE700BFFEE700BFFEE700BFDD
S21401CDC0FEE700BFFEE700BFFEE700BFFEE700BFCD
S21401CDD0FEE700BFFEE700BFFEE700BFFEE700BFBD
S21401CDE0FEE700BFFEE700BFFEE700BFFEE700BFAD
S21401CDF0FEE700BFFEE700BFFEE700BFFEE700BF9D
S21401CE00FEE700BFFEE700BF08B56FF00D00D4498E
S21401CE10002204F0E7FD6FF00C00D249002204F076
S21401CE20E1FD6FF00B00D049002204F0DBFD6FF04E
S21401CE300A00CE49002204F0D5FD6FF00900CC4966
S21401CE40002204F0CFFD6FF00400CA49002204F06E
S21401CE50C9FD6FF00100C849002204F0C3FD00209F
S21401CE600246C64904F0BEFD0120C549002204F071
S21401CE70B9FD0220C349002204F0B4FD0320C249D3
S21401CE80002204F0AFFD0420C049002204F0AAFDF0
S21401CE900520BF49002204F0A5FD0620BD49002259
S21401CEA004F0A0FD0720BC49002204F09BFD0820E9
S21401CEB0BA49002204F096FD0920B949002204F07F
S21401CEC091FD0A20B749002204F08CFD0B20B649DB
S21401CED0002204F087FD0C20B449002204F082FDF4
S21401CEE00D20B349002204F07DFD0E20B149002239
S21401CEF004F078FD0F20B049002204F073FD1020E5
S21401CF00AE49002204F06EFD1120AD49002204F066
S21401CF1069FD1220AB49002204F064FD1320AA49E2
S21401CF20002204F05FFD1420A849002204F05AFDF7
S21401CF301520A749002204F055FD1620A549002218
S21401CF4004F050FD1720A449002204F04BFD1820E0
S21401CF50A249002204F046FD1920A149002204F04E
S21401CF6041FD1A209F49002204F03CFD1B209E49EA
S21401CF70002204F037FD1C209C49002204F032FDFB
S21401CF801F209B49002204F02DFD212099490022F3
S21401CF9004F028FD23209849002204F023FD2720D1
S21401CFA09649002204F01EFD28209549002204F02F
S21401CFB019FD29209349002204F014FD2C209249E2
S21401CFC0002204F00FFD2D209049002204F00AFDF6
S21401CFD02E208F49002204F005FD2F208D490022C6
S21401CFE004F000FD30208C49002204F0FBFC3120C7
S21401CFF08A49002204F0F6FC32208949002204F016
S21401D000F1FC33208749002204F0ECFC34208649E9
S21401D010002204F0E7FC39208449002204F0E2FCF7
S21401D0203A208349002204F0DDFC3B20814900229E
S21401D03004F0D8FC3C208049002204F0D3FC3D20BB
S21401D0407E49002204F0CEFC3E207D49002204F0F9
S21401D050C9FC3F207B49002204F0C4FC40207A49E9
S21401D060002204F0BFFC44207849002204F0BAFCF8
S21401D07045207749002204F0B5FC4E207549002270
S21401D08004F0B0FC4F207449002204F0ABFC5020A1
S21401D0907249002204F0A6FC51207149002204F0D6
S21401D0A0A1FC52206F49002204F09CFC55206E49D9
S21401D0B0002204F097FC56206C49002204F092FCF2
S21401D0C058206B49002204F08DFC5C20694900223F
S21401D0D004F088FC5D206849002204F083FC5F2090
S21401D0E06649002204F07EFC63206549002204F0B4
S21401D0F079FC64206349002204F074FC65206249CF
S21401D100002204F06FFC66206049002204F06AFCED
S21401D11067205F49002204F065FC68205D49002213
S21401D12004F060FC69205C49002204F05BFC6A2084
S21401D1305A49002204F056FC6B205949002204F09B
S21401D14051FC6C205749002204F04CFC6D205649D6
S21401D150002204F047FC6E2054490022A8E000BFDC
S21401D160E1CB0100FDCB010019CC010035CC01005B
S21401D17051CC01006DCC010089CC0100A5CC010089
S21401D180A9CC0100ADCC0100B1CC0100B5CC0100A9
S21401D190B9CC0100BDCC0100C1CC0100C5CC010059
S21401D1A0C9CC0100CDCC0100D1CC0100D5CC010009
S21401D1B0D9CC0100DDCC0100E1CC0100E5CC0100B9
S21401D1C0E9CC0100EDCC0100F1CC0100F5CC010069
S21401D1D0F9CC0100FDCC010001CD010005CD010017
S21401D1E009CD01000DCD010011CD010015CD0100C5
S21401D1F019CD01001DCD010021CD010025CD010075
S21401D20029CD01002DCD010031CD010035CD010024
S21401D21039CD01003DCD010041CD010045CD0100D4
S21401D22049CD01004DCD010051CD010055CD010084
S21401D23059CD01005DCD010061CD010065CD010034
S21401D24069CD01006DCD010071CD010075CD0100E4
S21401D25079CD01007DCD010081CD010085CD010094
S21401D26089CD01008DCD010091CD010095CD010044
S21401D27099CD01009DCD0100A1CD0100A5CD0100F4
S21401D280A9CD0100ADCD0100B1CD0100B5CD0100A4
S21401D290B9CD0100BDCD0100C1CD0100C5CD010054
S21401D2A0C9CD0100CDCD0100D1CD0100D5CD010004
S21401D2B004F098FB6F201E49002204F093FB7020B7
S21401D2C01C49002204F08EFB71201B49002204F049
S21401D2D089FB72201949002204F084FB7320184947
S21401D2E0002204F07FFB74201649002204F07AFB2A
S21401D2F075201549002204F075FB7620134900229B
S21401D30004F070FB77201249002204F06BFB7820B2
S21401D3101049002204F066FB79200F49002204F030
S21401D32061FB7A200D490022BDE8084004F05ABB93
S21401D330D9CD0100DDCD0100E1CD0100E5CD010033
S21401D340E9CD0100EDCD0100F1CD0100F5CD0100E3
S21401D350F9CD0100FDCD010001CE010005CE010091
S21401D36008B5114B02221A705A709A70DA701A7147
S21401D3705A719A71DA711A725A729A72DA721A7349
S21401D38004F068FBFDF7C8F9FDF72CFAFDF75EFA25
S21401D390FDF75AFA04F052FBFDF7E8F9FDF7FEFC3B
S21401D3A0FDF7DAFCFAE700BF100B002008B50020F5
S21401D3B00449054A04F022FF044BB0FA80F0400904
S21401D3C0187208BD1C0F002014A9FF1F100B0020A7
S21401D3D0154A164B1649DFF860C02DE9F04180204A
S21401D3E0DFF8588010604FF4A05E4FF4F05741F21A
S21401D3F0504641F65065C2F81080C2F838C0C2F8EF
S21401D40018E017641860196199639E611D641168BC
S21401D410084C41F0010111601A6801210A431A60A3
S21401D420A171BDE8F08100BF006003400010034019
S21401D430FFFFFE00100B00200F0F0E003F3F3E00C7
S21401D4402DE9F0470446FDF713FD6D4B1A78042AC3
S21401D45011D06C4D6C492A6822F080022A600A6855
S21401D46022F080020A60052C00F28D80DFE804F0CD
S21401D4705A6F84358B92042C00F0AF806149624A62
S21401D480624DDFF894A1DFF8949180264FF4A058FE
S21401D4904FF4F05C41F2504E41F650670E60C1F811
S21401D4A010A0C1F83890C1F81880C1F840C01660C5
S21401D4B015619563C2F818E017640D6825F08005BC
S21401D4C00D60116821F080011160052C00F2948036
S21401D4D0DFE804F0283D520392944B494C4A494EEA
S21401D4E08A634FF4E66542F6E06E5027494AB56115
S21401D4F0C6F840E08D61CF641C701070414A424B03
S21401D500116841F080011160196841F080011960CD
S21401D510116841F0010111601A6842F001021A60B7
S21401D520BDE8F0873849002847D1364D374A8A6327
S21401D53041F6704E41F2306241F2D06741F6105624
S21401D540AA61C5F840E0334A8F610E64D4E72E49DC
S21401D55000283AD12B4D2D4A8A634FF4965E4FF43C
S21401D56048624FF44D6741F21036AA61C5F840E0B3
S21401D570284A8F61CE64BFE72349254A214E8A6334
S21401D5804FF41165AFE7234A1C70042C1070B5D117
S21401D590BDE8F0871F4A11780029ADD11A49194E06
S21401D5A01B4D8D6345F6C05E4FF470655027B5611F
S21401D5B0C6F840E08D61CF649EE7154A114E8A6336
S21401D5C041F6501545F6C05E8FE7114A0D4E8A6347
S21401D5D04FF4706545F6C05E87E70A4D0A492A682A
S21401D5E00C4E22F080022A600A6822F080020A604D
S21401D5F01C703070BDE8F087064A7DE7054ACDE726
S21401D600EB0700200060034000100340FFFFFE0010
S21401D610F8F0F000EA0700203F3F3E000F0F0E0033
S21401D62008B50020044905F0D5F9044BB0FA80F09E
S21401D6304009587008BD00BF24DD0200100B002011
S21401D6400A490B4B4B600B68180509D4642302E0AA
S21401D65013F0FF0304D00A68120503F1FF33F7D570
S21401D660024A136843F080031360704700200540A8
S21401D67020C528D90A490B4B4B600B68180509D4FD
S21401D680642302E013F0FF0304D00A68120503F1D5
S21401D690FF33F7D5024A136823F0800313607047FF
S21401D6A00020054020C528D9014B024A5A60704720
S21401D6B00020054002A680B408B5002004F022FD33
S21401D6C0BDE80840FDF75EB808B5002002460849E7
S21401D6D004F02AFB3A200749002204F083F93A2095
S21401D6E0082104F0BFF93A20BDE8084004F08EB9DD
S21401D6F004DD0200B9D60100002004F00DBD00BF14
S21401D700174B5A78012A0AD093F83D211449012A69
S21401D7101AD093F87932124A012B09D07047DA8869
S21401D720002AF1D01A89002AEED0013A1A81EBE7D5
S21401D730B2F87E32002BF1D0B2F88032002BEDD059
S21401D740013BA2F88032E9E7B1F84221002AE0D095
S21401D750B1F84421002ADCD0013AA1F84421D8E7E7
S21401D760340B00202DE9F04F83B00027434C444E84
S21401D7700097B8467378012B0ED0009B08F59E786B
S21401D78005370133B8F56D7FFFB2009306F59E7637
S21401D790F0D103B0BDE8F08F3589002DEDD1F388C7
S21401D7A0009A33814FF49E7303FB02F30193019AAF
S21401D7B0C5EB051302EB8303314A134405EB070E51
S21401D7C05B7C5FFA8EFE0BB3591EC9B22BB208EB17
S21401D7D0C101C3EB03139B000831194443441144B0
S21401D7E01344012206E002281ED0042829D008335B
S21401D7F08B420BD0187D0128F5D198690833007843
S21401D800A0548B4202F10102D2B2F3D10023B089B7
S21401D8101A4984F800E00822FDF7DAFF0135B378EB
S21401D820EDB2AB42C3D2A8E7986902F1010C0088B9
S21401D830A0545FFA8CFC0012023204F80C00D2B23B
S21401D840D5E7986902F1010A0068A05402F10209BD
S21401D8505FFA8AFA02F1030C4FEA202B5FFA89F984
S21401D8605FFA8CFC04F80AB004324FEA204A00162C
S21401D87004F809A0D2B204F80C00B8E7EC070020BF
S21401D880340B0020304A314931482DE9F843002451
S21401D890DFF8F8E02F4B304F11604FF4FE5621466B
S21401D8A04FF46D724FF4F8251E608EF800403D600F
S21401D8B007F078FB294A2A4BDFF8D4C0DFF8D4E01A
S21401D8C02849DFF8D490DFF8D480274F14605460DD
S21401D8D0264E1C605C6026480E60CEF80040C9F8F3
S21401D8E00040A8F80040CCF800403C6001F038F851
S21401D8F0204B214E1870214800F04CFF204B214947
S21401D900187008223046FFF705F872681E4B9A42D7
S21401D91001D0BDE8F8837788A7B107EB050815F8AD
S21401D920013B1C44FFF7C0FE4545A4B2F7D133883E
S21401D930A342EED13A4605484FF4F821BDE8F84334
S21401D940FEF7E8BF3C46F2E7240B00200080FF1FED
S21401D950340B0020280B0020EC0E0020EC070020E2
S21401D960FC070020200B0020E80E002000DB020050
S21401D97001D70100040F0020F00E002065D701003A
S21401D980300B0020C0DF07000DD0FECAFC0E0020C1
S21401D9902C0B0020000F0020F80E0020F6070020B8
S21401D9A008B1014B18607047000F002008B1014B09
S21401D9B018607047E80E002082070F4B0AD1021D3F
S21401D9C0191D884238BF934204D390E8060083E8C5
S21401D9D00600704702781A7042785A7082789A70F8
S21401D9E0C278DA7002791A7142795A7182799A711B
S21401D9F0C279DA71704700BFFC0700202DE9F04FAD
S21401DA005849594B8C78C878584ADFF86CE1584D1C
S21401DA108F79CE7991F804C091F8058085B08DF89C
S21401DA200F40187010789EF800304FF49E7404FB77
S21401DA3000F0C3EB031300EB83032B4438045F7C35
S21401DA4000EB066303EB0C0606EB0826FFB1107825
S21401DA509EF800309DF80F7004FB00F0C3EB031333
S21401DA6000EB83032B449B7C3B44072B76DC9DF821
S21401DA700F7013789EF8000004FB03F4C0EB00134C
S21401DA8004EB83032B44987C384498740EE09DF88D
S21401DA900F7013789EF8000004FB03F3C0EB00142C
S21401DAA003EB84042C44A37C3B44A374DFF8CCC072
S21401DAB092F800809EF800309CF800B017789EF827
S21401DAC000409CF800A09DF80F000090107801908F
S21401DAD09EF800009CF8009012789EF800C0C3EBF8
S21401DAE003134FF49E7E0EFB02F2CCEB0C1C9B0044
S21401DAF003EBCB0302EB8C02C4EB0414C0EB001067
S21401DB002A440EFB0838A400019B800004EBCA04DB
S21401DB1000EBC9000EFB0747A8440EFB030E507C22
S21401DB20144CC8F818602F440123754418444FF06C
S21401DB30000E9DF800603E756B75507484F801E028
S21401DB404B78A3700B49FF250822002340F20320DF
S21401DB502570FDF73DFE05B0BDE8F08F054C0123AD
S21401DB606370EDE7FC07002004080020F50700209D
S21401DB70340B0020EC070020F8070020F4070020F3
S21401DB802DE9F041234D244C2A79244E6B79A8784F
S21401DB9027683668E978120402EB03630344B74248
S21401DBA003EB012106D31E4B22681B680A441E4460
S21401DBB0B24219D91B4B22681B68174C9A4219D3DB
S21401DBC0174A2068126808441344984212D889B24A
S21401DBD0206829B101398AB20132002107F0E2F941
S21401DBE0114C0023637008E0206889B2FEF7C4FE7A
S21401DBF00028F5D00C4C322363706B78A370FF2598
S21401DC002570094940F2032008220023BDE8F041AF
S21401DC10FDF7DEBDFC070020F80E0020EC0E00200C
S21401DC20280B0020240B0020EC0700202DE9F041F2
S21401DC302C4A2D4B10681C682C4A8442917806D3D6
S21401DC402B4C1D6824680D442044854228D9294858
S21401DC501C680068244E844222D3254C356824680B
S21401DC600D44204485421BD8306891B1D4780470A5
S21401DC7001291E4C0DD925794570022909D06579EF
S21401DC808570032905D0A579C570042901D0E479EA
S21401DC9004711868184C014400201960607002E095
S21401DCA0154C322161701549527891F8008093F82D
S21401DCB000C093F801E09F78DE78A270FF2584F813
S21401DCC0038084F804C084F805E0A771E671257026
S21401DCD0094940F2032008220023BDE8F041FDF780
S21401DCE077BD00BFEC0E0020F80E0020FC070020D8
S21401DCF0280B0020240B0020EC070020050800203C
S21401DD002DE9F041284B294A19681268914206D339
S21401DD1027491868096806300A44904221D9254ADD
S21401DD2018681268204990421BD321480C68006885
S21401DD3006340244944214D81F4A08689478047042
S21401DD40D4784470147984705479C47094790471C9
S21401DD500D681A4CD6794671A81D002508606570B5
S21401DD6003E0164C144A322161701549527891F835
S21401DD70008093F800C093F801E09F78DE78A270E7
S21401DD80FF2584F8038084F804C084F805E0A771B1
S21401DD90E6712570094940F2032008220023BDE8F8
S21401DDA0F041FDF715BD00BFF80E0020EC0E002077
S21401DDB0280B0020240B0020FC070020EC07002085
S21401DDC0050800202DE9F04F5A4B5B4C1E685B4955
S21401DDD063792079E578A2780F68B6F5F82F81B0D7
S21401DDE010D20026564D6378AB70FF24294640F2C8
S21401DDF00320082200236E702C7001B0BDE8F04F9E
S21401DE00FDF7E6BC1B0603EB0043134403EB0525B5
S21401DE10C5F5FB2202F5F862964236D9494B9E4279
S21401DE20DFD903F5FE5301335B1B9E42D9D8B7F504
S21401DE30F82FD6D39742D4D8DFF814A14249082246
S21401DE405046FEF767FDDAF80420404B9A42C8D1E7
S21401DE50BAF80230002B63D003F5F8294FF000081A
S21401DE604FF4F82B1BF8013B9844FFF71DFCCB45FC
S21401DE701FFA88F8F6D1BAF800304345B1D13046DA
S21401DE8039462A46FEF746FDABE72E4B9F42C5D9DB
S21401DE9003F5FE5301335B1B9F42BFD803F0DAFD47
S21401DEA0FFF702FC4FF4F8204FF4FE51FEF764FD35
S21401DEB028BBFFF7F9FB394630462A46FEF782FDB6
S21401DEC00746FFF7F1FB6FBB03F0B8FD7DB305EB2B
S21401DED0060816F8013B1F44FFF7E6FB4645BFB2AE
S21401DEE0F7D11B4B194E18481F80194608225D8032
S21401DEF05E60FEF767FD78B903F0A0FD71E703F0F9
S21401DF009DFDFFF7D1FB2A4630463946FEF75AFDFE
S21401DF100546FFF7C9FB2DB903F090FD122661E710
S21401DF209846A8E703F08AFD03F088FDF6E72F463A
S21401DF30D7E700BF2C0B0020FC070020F80E0020BE
S21401DF40EC070020FF7FFF1FC0DF07000DD0FECAD1
S21401DF50F00E00202DE9F0413D4DEA78AB7843EA1A
S21401DF600223222B58D0332B15D0112B20D0394C1D
S21401DF701223637000266B78A370FF270125267194
S21401DF802770E5703346334940F203200822BDE886
S21401DF90F041FDF71DBC4FF4F8204FF4FE51FEF79B
S21401DFA0EBFC40B2012837D00130E0D0294CE1E744
S21401DFB003F050FDFFF778FB4FF4F8204FF4FE51C5
S21401DFC0FEF7DAFC60BBFFF76FFB4FF4F82022493F
S21401DFD04FF4FE52FEF7F6FC0446FFF765FB8CBBDA
S21401DFE003F02CFD1D4F4FF4F82616F8013B1C4498
S21401DFF0FFF75AFBBE42A4B2F7D1194B194F1C804A
S21401E00030464FF4FE54194608225C805F60FEF7E6
S21401E010D9FCA0B903F012FD0E4C00236370A9E7EA
S21401E02003F00CFDFFF740FB4FF4F8200A494FF4CC
S21401E030FE52FEF7C7FC0446FFF736FB14B903F0A1
S21401E040FDFC94E703F0FAFC03F0F8FC8FE700BF51
S21401E050FC070020EC0700200080FF1FC0DF070040
S21401E060F00E00200DD0FECA70B51E4C1E4A617916
S21401E0702379128843EA01239A420FD01B4D32239B
S21401E0806B706378AB70FF242C70184940F2032044
S21401E09008220023BDE87040FDF79ABBA378144D13
S21401E0A06B705BB1012B0CD0104D32236B70114B92
S21401E0B01B6803B1984700236B70E2E72B700B4D8A
S21401E0C0F5E700264FF46D7231460B482E70AE70A0
S21401E0D0EE7006F067FF094A094B1660034D1E6095
S21401E0E0E5E700BFFC070020F6070020EC0700204C
S21401E0F0FC0E0020E80E0020340B0020F80E002055
S21401E1002C0B00202DE9F041AB4C237873B3012B87
S21401E1102AD1AA4D2B78013B222B00F29382DFE80D
S21401E12013F05D0071009500AF00CD00E700FC0024
S21401E13000010E019102910223013701610195014F
S21401E140B301B701CD01DE01F0011E02350239022D
S21401E1505B025F02910263029102910291029102B7
S21401E160790289028D022C00BDE8F081934A11786C
S21401E170012900F06D82BDE8F081914E914B326825
S21401E1801B689A4207D3904A3168126806311344D5
S21401E190994240F2E8828D4C32220023627033604D
S21401E1A08B4A6B7892F8008096F800C096F801E0EA
S21401E1B0B778F678E671FF25A37084F8038084F8B3
S21401E1C004C084F805E0A7712570804940F2032059
S21401E1D008220023BDE8F041FDF7FABA7D4AE97846
S21401E1E0AB781288754843EA01239A4200F0A6826A
S21401E1F0794B1A68002323706370002ABBD0BDE8F0
S21401E200F0411047AB79EC792A796879704EA97894
S21401E210EF7837701B0403EB0463134403EB00230E
S21401E220002900F05782012900F09782674C3223BB
S21401E23063706B78A370FF252570644940F2032054
S21401E24008220023BDE8F041FDF7C2BA5C4E5D4BE3
S21401E25032681B68AF789A429DD35B4A3168126870
S21401E26039441344994296D83A4630685B49574C2C
S21401E270F5F776F833681F440023376063708FE73D
S21401E280524C4F4E95F8028031684246E01CF5F735
S21401E29067F833686A78A270002708EB03054FF029
S21401E2A0FF0E356084F800E0677021463B4640F279
S21401E2B003200822BDE8F041FDF78ABA454AE9780D
S21401E2C0AB7812883D4843EA01239A427FF453AF64
S21401E2D03E4C4378A3700025FF26267065702146C4
S21401E2E02B4640F203200822BDE8F041FDF770BA44
S21401E2F0EA783249022A40F2D4813226334C6B78CE
S21401E300A370FF2566702570214640F2032008227F
S21401E3100023BDE8F041FDF75BBABDE8F041FFF729
S21401E320A3BEAB78012B00F0DA812BB92C4A5370CF
S21401E33082F83D3182F87932244C6B78CAE7234C57
S21401E3406B78A3700025FF2626706570E570257131
S21401E3506571A571E57121462B4640F2032008221E
S21401E360BDE8F041FDF734BA184E6B78AF78B3705C
S21401E37000254FF0FF0E86F800E0E7707570314615
S21401E3802B4640F203200822BDE8F041FDF720BAF3
S21401E3900E4E6B78E778B3700024FF25F770357062
S21401E3A07470347174713146234640F2032008229A
S21401E3B0BDE8F041FDF70CBAFC0E0020FC0700207A
S21401E3C0F80E0020240B0020280B0020EC0700206C
S21401E3D005080020F6070020E80E0020FF070020B1
S21401E3E0340B002029796B79AA78EC78C7480904A0
S21401E3F001EB0363134413EB0424066800F0C081A9
S21401E400A719002416F8013B1C44FFF74DF9BE423C
S21401E410A4B2F7D15FFA84FC240ABD4E6B78B370C0
S21401E42000254FF0FF0E022786F804C0747186F8A7
S21401E43000E0F7707570B571F57131462B4640F204
S21401E44003200822BDE8F041FDF7C2B9AB79EE79A9
S21401E4502879AF4C6979AA781B0403EB0663034459
S21401E46003EB0121E01CF4F77BFF00266B78A37019
S21401E470FF25257066702146334640F203200822A8
S21401E480BDE8F041FDF7A4B9BDE8F041FFF778BB60
S21401E490E3789F4E6A78B270002743F001054FF08B
S21401E4A0FF0E86F800E0E570777031463B4640F295
S21401E4B003200822BDE8F041FDF78AB9944C6B7839
S21401E4C0A3700025FF2626706570E57021462B4651
S21401E4D040F203200822BDE8F041FDF779B98C4CE3
S21401E4E06B78A3700025FF2703262770E6706570FA
S21401E4F021462B4640F203200822BDE8F041FDF7F5
S21401E50067B9AE78834C022E00F2C680824F4FF474
S21401E5109E7202FB06770021384606F043FDA1797C
S21401E520E379227960797A4C090401EB0363134499
S21401E53006EB860603EB00230522FB602671E270DC
S21401E54000266B78A370FF256670257033467049E8
S21401E55040F203200822BDE8F041FDF739B96F4BC0
S21401E5606F4A7049AE78EC7828791E70147008707E
S21401E5701B78022B3FF6C1AE1378042B3FF6BDAED7
S21401E5800B78062B8CBF32260026B7E6BDE8F04195
S21401E590FFF734BA644B5E4C1E686B78A370002597
S21401E5A0FF2330462370657006F04AFDDFF85CC134
S21401E5B0E0704FF0020E0327A571E571CCF80060FC
S21401E5C084F804E067712B46214640F203200822B6
S21401E5D0BDE8F041FDF7FCB8BDE8F041FFF726BB0A
S21401E5E0BDE8F041FFF7EEBB494C6B78A370002500
S21401E5F04FF0FF0E0227012684F800E0E77026712F
S21401E600657021462B4640F203200822BDE8F04102
S21401E610FDF7DEB83E4C6B78A370FF2632252670D8
S21401E6206570214640F2032008220023BDE8F04130
S21401E630FDF7CEB8BDE8F041FFF78CBCBDE8F04170
S21401E640FFF75EBB324C6B78A370FF263025E6E7FA
S21401E650364DD67890782D8840EA0620854207D038
S21401E660334A237012686370002A7FF4C8AD82E5CE
S21401E670304D27482D6856782170FF2286704370EA
S21401E680027005B1A84740F2032021490822002361
S21401E690BDE8F041FDF79CB81D4C0023E3702371E3
S21401E6A04EE74C79DFF890C01B4B0E7991F806E0E7
S21401E6B0C8798F783CF814104FF49E7C0CFB02331B
S21401E6C000EB0E229E705F709A80DC70D9801981F3
S21401E6D0002613E60D4A0E4C13606170A9E50E4A3A
S21401E6E05178022908BF537092F83D310A49022B2E
S21401E6F004BF012381F83D3192F87932064A022B94
S21401E7007FF41AAE012382F8793215E6F80E00205E
S21401E710EC070020FC070020340B0020F507002042
S21401E720F8070020F4070020200B0020F607002041
S21401E730E80E0020000F00205CA8FF1F114A124BB4
S21401E740417812689970FF25002001211D705870CC
S21401E7502170002A97D0904795E70C4A0A4C13601F
S21401E7600023637065E50A4932680B6813603368F5
S21401E770054C8988918006330022336062700FE56C
S21401E780A4464AE6000F0020EC0700202C0B0020D0
S21401E790FE07002030B4D0B1224B5A78E2B15A7A43
S21401E7A03AB35A7C42B35A7E4AB393F821204AB30D
S21401E7B093F829204AB393F831204AB393F83920C5
S21401E7C04AB393F8412032B193F8492032B3FF207F
S21401E7D040B230BC70470822144603EBC40103F86C
S21401E7E0342001254860D0B24D708D7040B230BCE7
S21401E7F0704701221446F0E702221446EDE7032291
S21401E8001446EAE704221446E7E705221446E4E73D
S21401E81006221446E1E707221446DEE709221446DB
S21401E820DBE700BF0808002010B5324C637813B14F
S21401E830A378002B42D1637A2E4A13B1937A002B28
S21401E8403FD1637C2B4A13B1937C002B3CD1637E72
S21401E850284A13B1937E002B39D194F82130254AEA
S21401E8601BB192F82230002B34D194F82930214A7A
S21401E8701BB192F82A30002B2FD194F831301D4A63
S21401E88013B192F832305BBB94F83930194A13B1A0
S21401E89092F83A303BBB94F84130164A13B192F8DD
S21401E8A042301BBB94F84930124A13B192F84A30F1
S21401E8B003B910BDD36CBDE810401847636898478C
S21401E8C0B9E7D3689847BCE753699847BFE7D36968
S21401E8D09847C2E7536A9847C7E7D36A9847CCE791
S21401E8E0536B9847D0E7D36B9847D4E7536C984758
S21401E8F0D8E700BF0808002000234280416003706B
S21401E9004370704738B5057890F901206BB29B1AB1
S21401E9100F2B01DD002038BD04464288406805F013
S21401E9200F0505FB0200F4F71BFD23780133237066
S21401E930012038BD38B5437802789A420ED0428815
S21401E9404568044603F00F03084603FB0251F4F73B
S21401E95007FD637801336370012038BD002038BDA0
S21401E96030B4D0B1224B5A78E2B15A7A3AB35A7CD3
S21401E97042B35A7E4AB393F821204AB393F829202A
S21401E9804AB393F831204AB393F839204AB393F83F
S21401E990412032B193F8492032B3FF2040B230BC57
S21401E9A070470822144603EBC40103F834200125FE
S21401E9B04860D0B24D708D7040B230BC70470122B5
S21401E9C01446F0E702221446EDE703221446EAE76E
S21401E9D004221446E7E705221446E4E70622144615
S21401E9E0E1E707221446DEE709221446DBE700BF0B
S21401E9F05808002010B5324C637813B1A378002B69
S21401EA0042D1637A2E4A13B1937A002B3FD1637CAD
S21401EA102B4A13B1937C002B3CD1637E284A13B159
S21401EA20937E002B39D194F82130254A1BB192F8F8
S21401EA302230002B34D194F82930214A1BB192F8A8
S21401EA402A30002B2FD194F831301D4A13B192F899
S21401EA5032305BBB94F83930194A13B192F83A3028
S21401EA603BBB94F84130164A13B192F842301BBBB7
S21401EA7094F84930124A13B192F84A3003B910BDDE
S21401EA80D36CBDE81040184763689847B9E7D36868
S21401EA909847BCE753699847BFE7D3699847C2E7E9
S21401EAA0536A9847C7E7D36A9847CCE7536B9847AA
S21401EAB0D0E7D36B9847D4E7536C9847D8E700BFA5
S21401EAC05808002010F0040F08BF0A462DE9F0414F
S21401EAD092E80051164BD768166955699469D16951
S21401EAE0C3F800804FF0E022C3F804C0C3F808E082
S21401EAF0DF601E615D619C61D961D2F8281D1962D3
S21401EB00D2F82C1D5962D2F8301D9962D2F83C1DFC
S21401EB10D962D2F8341D5963D2F8382D1A634CF6EF
S21401EB20DD4298631A64BDE8F041FBF763BB00BFA2
S21401EB30ACB8FF1F2DE9F04F2B4B850005EB000C01
S21401EB4003EB8C0C0023DCF80C7083B01C46BC4233
S21401EB50814698460193E2461E4604F1010B01A840
S21401EB604FF0040214D0AEB9DAF80030191FDAF803
S21401EB70083003FB0B11FDF7CDFE019B013310D0CE
S21401EB805C46BC4204F1010B01A84FF00402EAD135
S21401EB9004F1FF3874B95FFA88F0013003B0BDE8BC
S21401EBA0F08F24B104F1FF3801265C46E9E701261F
S21401EBB05C46E6E70C4BA94403EB890A01A8DAF8A0
S21401EBC00430DAF80810043B01FB07310422FDF794
S21401EBD0A1FE019B0133DED0B8445FFA88F0013014
S21401EBE003B0BDE8F08F00BF04DB0200034B00EB6F
S21401EBF0800003EB80039868704700BF04DB0200C7
S21401EC0001288CBF00200120704700BF70B51F4C43
S21401EC104378257863773DB11021AA220123A17795
S21401EC20E2776570237070BD052365612370E5602A
S21401EC30037863608378A3602583C378A376A07E78
S21401EC40FFF778FFA368984213D2BB211022012355
S21401EC506570E177A2772370A07E0C4CFFF7D0FF9A
S21401EC6090B91021CC220123A177E277607023703E
S21401EC7070BD0126A07EA677FFF7B8FF0223267097
S21401EC802061E5776370E7E770BD00BFA808002044
S21401EC9003881AB28A42F0B5B0F802E0848838DAFE
S21401ECA024B29DB2661E1FFA8EF316FB035636B2C9
S21401ECB08E4227DD87688C1A0FFA8EF094FBF0F4EB
S21401ECC0E4B214FB03F607EB440E621C2E4412FB5F
S21401ECD003F2AB1832B2BEF9025037F914408A1A61
S21401ECE01BB25B1A05FB02F204FB0321002900EBB1
S21401ECF0D073ACBF01EB6301A1EB630191FBF0F0B4
S21401ED0000B2F0BD04F10044013C836833F91400FD
S21401ED10F0BD8368B3F90000F0BD00BF03881AB2E6
S21401ED208A42F0B5B0F802E0848837DA26B29DB29E
S21401ED30741E1FFA8EF314FB035424B28C4227DD93
S21401ED4087688C1A0FFA8EF094FBF0F4E4B214FB89
S21401ED5003F607EB040E621C2E4412FB03F2AB18FB
S21401ED6032B29EF901503C578A1A1BB25B1A05FB58
S21401ED7002F204FB0321002900EBD073ACBF01EBC8
S21401ED806301A1EB630191FBF0F000B240B2F0BD6C
S21401ED908468344414F9010C40B2F0BD836893F9D9
S21401EDA0000040B2F0BD00BF2DE9F04FB0F90050B1
S21401EDB044898388B0F902E0C788B0F8088089B032
S21401EDC08D420194ACB204949CB202941FFA8EF464
S21401EDD00594BCB20FFA88F9039470DB01210C4646
S21401EDE04FF0000A06911BB22946A34656469645A1
S21401EDF0C0F2828001224FF0000C144607923AB20C
S21401EE0001927246E646D0F80C80049F04FB0989FD
S21401EE103046BDF81840BDF8086008EB0B0514FB3A
S21401EE200674D0443844059F15F90C50BDF80C60A3
S21401EE3018F90CC019F90B8019F90A9024B200B21E
S21401EE40081ABE44611A3C46BDF81C7005FB00F565
S21401EE5017FB064608FB00F00CFB015CB6B209FB8B
S21401EE60010103EBD3794FEA6909BCF1000FA6EB68
S21401EE7002061FFA8EFEACBFCC44C9EB0C0CCEEBDF
S21401EE80020200299CFBF3FC1CFB06FCACBF4944B8
S21401EE90C9EB010191FBF3F313FB02C2019B12B212
S21401EEA003EBD370002AACBF02EB6000A2EB60005C
S21401EEB090FBF3F7B8B240B209B0BDE8F08FBDF8E9
S21401EEC00840049E09F1FF3C1CFB046C0FFA8CFC05
S21401EED08C4547DCA8F10205EDB2AA4615FB04F500
S21401EEE0ACB20AF1010B264696451FFA8BF41BB20B
S21401EEF061460694BFF67EAFBDF90450BDF80CC05E
S21401EF00059C013D15FB0C452DB2954215DC019A79
S21401EF10A2F1020CBDF80C205FFA8CFC1CFB02FE71
S21401EF200CF1010214463AB201922A46A5B218FB28
S21401EF300CFC1FFA8EFE079565E73CB2CEEB020E7F
S21401EF4001949EFBF4FCBDF80C405FFA8CFC1CFBA4
S21401EF5004FE0CF10104A5B21FFA8EFE0CFB09FC9F
S21401EF60079550E7BDF808404D1B1BB295FBF3F51E
S21401EF70EDB2AA4615FB04F5ACB20AF1010B264622
S21401EF801FFA8BF4069432E7B0F9003070B4446887
S21401EF9003F18043013BB4F9002004EB83008A426D
S21401EFA0458834F8233060881EDA1BB28B421EDD9A
S21401EFB0002301339BB21AB2950034F92200814234
S21401EFC0F7DC02F18042013A254434F92240B5F9D2
S21401EFD0026035F9023C0A1B02FB06F2411A01FBEC
S21401EFE00321001B91FBF0F000B270BC704728B201
S21401EFF070BC7047F0B5324E324D83B03446771D43
S21401F00028460021012200F063F904F8010BBC42F6
S21401F01005F10C05F4D12C4C2C48E18B41F28833D8
S21401F02089B203FB01F141F30F31FFF7ADFF238CEA
S21401F03070819BB240F63B72934225D94FF2FA3269
S21401F04063899FED235ADFED236ADFED235A9FED97
S21401F050236AF2809BB207EE903AB8EE677AF1EE39
S21401F060047A27EE277A67EE057AB0EE667AA7EE7F
S21401F070E57A67EE867AC7EE877AFCEEE77A17EED0
S21401F080903A338103B0F0BD238C9FED156A9FED56
S21401F090117ADFED146A9BB203EB830307EE903A15
S21401F0A0FAEECA7AA7EEC67A67EEA67AC7EE877A2E
S21401F0B0FCEEE77ACDED017ABDF80420C0E700BF8B
S21401F0C0CC080020D8080020BC0A0020180900201F
S21401F0D000008039C06E0F4A80BCFE48AA3AA6508E
S21401F0E080DCE84874FD784E2DE9F041134E144C4F
S21401F0F0144D0023F3803381738104F1B408022791
S21401F10028462146243400F0DBF8444505F10C0579
S21401F11006F8017BF4D10C4A0C4B118819800C4A75
S21401F1200C485A60012100F07FF80B4A0B4B107017
S21401F130C043C0F3C0109872BDE8F081CC0800202F
S21401F1402CDB0200D8080020E0DB020018090020B2
S21401F150E4DB0200F5EF010014090020100B00208B
S21401F16004289ABF014B185C02207047CC08002087
S21401F170014BB3F90A007047CC08002001289DBF57
S21401F180024B03EB4000C08800207047CC080020EB
S21401F1900F4B1B78D3B10F4B1B78BBB1591EC9B2AD
S21401F1A00D4B013130B403EB011101251A784AB138
S21401F1B0587838B95A689C680132A2425A6024BF0E
S21401F1C05D70586010338B42F0D130BC704700BF81
S21401F1D06AA8FF1FC1090020200900200F4B1B78D9
S21401F1E0DBB12DE9F041DFF83C8098F8002092B1C0
S21401F1F000240B4D27462301EE18EB5C3BB17378D8
S21401F2002BB1F3681BB1984798F80020777001344A
S21401F210E4B2A242EFD8BDE8F08170476AA8FF1FAA
S21401F22020090020C1090020F0B50C4C2378092BD9
S21401F23012D80B4F1E01BA194FF0010C002503EB33
S21401F2400C0E07F806C0D06091605560557084F8C2
S21401F25000E0D8B240B2F0BDFF20FBE7C1090020B4
S21401F26020090020014B01221A7070476AA8FF1F6F
S21401F27008B50548FFF78EFA044B18700448FFF7E7
S21401F2806FFB044B187008BDDDF10100C0090020BA
S21401F29091F10100C2090020092803DC0001024B9C
S21401F2A000221A54704700BF20090020092803DCF9
S21401F2B00001024B01221A54704700BF20090020AA
S21401F2C0002302228160027103804380704700BFE1
S21401F2D0F0B5044642B183681A78042A04D8DFE8F8
S21401F2E002F0206F5D690700022323711846F0BD06
S21401F2F059691A8B098811423FD12288198C2079C5
S21401F300531C9BB21DB20AB29542238061DB0123D6
S21401F3102180237100284BD1628801321846628011
S21401F320F0BD5A69D3F804C01088DD681A695F8B8E
S21401F33000FB0CF00028B8BF00F2FF3002EB050E10
S21401F34085124FF47A760EFB05F595FBF2F2CCEBBF
S21401F350020C891A9D6806FB02F206FB0CFC92FB66
S21401F360FEF006FB01F19CFBF5F2024491FBF2F282
S21401F370002AB8BF52429742BFDC2288198C2079F6
S21401F380531E9BB20AB21DB252429542238021DC23
S21401F39000234942218023711846F0BD5A69D98B52
S21401F3A012889142E9D9998B9142A6D203232371FF
S21401F3B01846F0BD59691A8B098811429DD1DCE7C0
S21401F3C05A69D98B1288914297D9998B9142EDD37C
S21401F3D0D3E7F0BDF0BD00BF024B4FF6F0721A60E6
S21401F3E0704700BF080F00200146827A31F8020BF1
S21401F3F00023FCF7EDB900BF10B584B00446002128
S21401F4006846FCF7A3FA68B19DF80C20009BA2722F
S21401F410238032B1013AD2B20132A01C01A9F3F71E
S21401F4209FFF012004B010BD0346021D197B008812
S21401F43000F010B8704700BF30B1022803D1044B6A
S21401F44000221A7070477047014B01221A707047EC
S21401F450C309002030B5FF288BB071D0B0F5847F8A
S21401F46024D0FE2802D000200BB030BD544B554AA4
S21401F4701B681968914200F09080002304228DF8E1
S21401F48006208DF807308DF808308DF809308DF894
S21401F4900A304FF48772052301A8ADF804208DF8D1
S21401F4A00E30FFF7A1FF00200BB030BD1378012B03
S21401F4B0D9D102214122FF2301A84FF48C74ADF863
S21401F4C004408DF80E108DF806208DF80730FFF7F2
S21401F4D08BFF0020FFF7B0FF002003F089FA04A895
S21401F4E0FFF78AFF0128F7D1BDF81030B3F5847F06
S21401F4F0F2D19DF81240022CEED12046FFF79CFF78
S21401F5004FF48C714222FF2307A88DF82640ADF8F0
S21401F5101C108DF81E208DF81F30FFF765FF4FF485
S21401F5202054013C0020A4B203F062FA002CF8D16A
S21401F53002F090FAFFF77EFFFAF75CFE012093E7F0
S21401F5401378552B8FD15478FF2C8CD140F20F12A3
S21401F550AA23022501A88DF80740ADF804208DF8EE
S21401F56006308DF80E50FFF73FFF4FF484720123EB
S21401F57007A88DF81F408DF82650ADF81C208DF891
S21401F5801E30FFF731FF4FF42054013C0020A4B297
S21401F59003F02EFA002CF8D1CAE75A79013A42F064
S21401F5A00C028DF806209A798DF80720DA798DF805
S21401F5B008201A7A8DF809201B798DF80A3068E739
S21401F5C0080F0020D71001B010B4054C206021713F
S21401F5D0A2602373637300205DF8044B704700BF7D
S21401F5E0C40900202DE9F047DFF8809182B00F466C
S21401F5F08DF8051080468DF8040002F02BFA99F874
S21401F6000C1089F80D1001238DF8063000293FD023
S21401F610002F00F08B80002634464D4607E0297BFC
S21401F6206C7340F203160134E4B28C4214D223B256
S21401F630D9F8082052F8233001A8002BF3D01A7904
S21401F640022AF0D01A68996890470028E7D1297BEA
S21401F6500134E4B28C42EAD3DEB1012F19D025B2CF
S21401F66000238DF8063001E0DCB225B2D9F8083067
S21401F67053F8253001A813B11A6899689047631E9C
S21401F680002CF1D102F0DAF9304602B0BDE8F0877D
S21401F6900C46D9F80030354D53F8280004F076F9B9
S21401F6A089F8058006460028D9D1297B02238DF8E2
S21401F6B006300029E6D0044647B922E0297B6C7360
S21401F6C04FF482760134E4B28C42DBD223B2D9F80D
S21401F6D0082052F8233001A8002BF3D01A79012A0A
S21401F6E0F0D01A68996890470028E7D1297BE9E7A6
S21401F6F01A6899689047A8B9297B0134E4B28C420C
S21401F700C0D223B2D9F80820184F52F8233001A8E6
S21401F710002BF2D01A79012AEAD10134E4B28C42E4
S21401F720EFD3AFE77C734FF48276ABE73C464E46A9
S21401F73004E0317B0134E4B28C42AAD225B2D9F876
S21401F7400830DFF828A053F8253001A8002BF1D0A7
S21401F7501A79022AEED01A68996890470028E8D0EC
S21401F7608AF80D4040F203167AE700BFC40900206C
S21401F77080B483B000AF78600B46FB70FB78002B3B
S21401F78004D17B684FF48032DA6074E0FB78012B99
S21401F79004D17B684FF0FF32DA606CE0FB78022B15
S21401F7A004D17B684FF0FF32DA6064E0FB78032B0C
S21401F7B004D17B684FF40042DA605CE0FB78042BEE
S21401F7C003D17B680022DA6055E0FB78052B04D173
S21401F7D07B684FF0FF32DA604DE0FB78062B04D1F0
S21401F7E07B684FF0FF32DA6045E0FB78072B04D1E7
S21401F7F07B684FF0FF32DA603DE0FB78082B03D1DF
S21401F8007B680022DA6036E0FB78092B04D17B683E
S21401F8104FF0FF32DA602EE0FB780A2B04D17B68CA
S21401F8204FF48042DA6026E0FB780B2B04D17B682C
S21401F8304FF40042DA601EE0FB780C2B04D17B68A3
S21401F8404FF48032DA6016E0FB780D2B04D17B682A
S21401F8504FF0FF32DA600EE0FB780E2B04D17B68A6
S21401F8604FF0FF32DA6006E0FB780F2B03D17B689E
S21401F8704FF48032DA600C37BD465DF8047B704782
S21401F88080B584B000AF786039600023FB817B6867
S21401F8901A683B681A607B685A683B685A607B68DE
S21401F8A09A683B689A607B68DA683B681A617B688D
S21401F8B01A693B689A610E4BDB6C03F470431B0BB1
S21401F8C07B737B7B38681946FFF752FF3B68DB6822
S21401F8D0B3F5803F04D23B684FF480525A6102E090
S21401F8E03B6800225A61FB8918461037BD4680BD29
S21401F8F00080044080B588B000AFF860B9607A60D7
S21401F9000023FB837B687B61FB689B683B61BA686D
S21401F9103B699A4210D3FB68DA683B691A44BB68B4
S21401F9209A4209D9BA683B69D31A03F50003BB604A
S21401F9304FF40063BB611BE0FB681B683B61BA6860
S21401F9403B699A420ED3FB685A683B691A44BB6806
S21401F9509A4207D9BA683B69D31ABB604FF4805301
S21401F960BB6105E00123FB8300237B610023BB61B0
S21401F970BB695A1E7B691340002B01D00423FB830D
S21401F9802AE01B4B1B78DBB2DBB25BB2002B02DB3F
S21401F9900223FB8320E0164B70221A70144B0922B7
S21401F9A0DA71134ABB681B0CDBB29371104ABB6851
S21401F9B01B0ADBB253710E4BBA68D2B21A71F868E1
S21401F9C00EF082FA0346FB837A69BB69D31A7B6120
S21401F9D0BA68BB691344BB607B69002B02D0FB8B02
S21401F9E0002BCED0FB8B18462037BD4680BD00BF0E
S21401F9F00000024080B586B000AFF860B9601146DD
S21401FA001A460B46FB8013467B710023FB82FB687C
S21401FA109B683B61BA683B699A420DD3FB68DA681A
S21401FA203B691A44BB689A4206D9BA683B69D31A3D
S21401FA3003F50003BB6014E0FB681B683B61BA6812
S21401FA403B699A420BD3FB685A683B691A44BB6808
S21401FA509A4204D9BA683B69D31ABB6001E0012314
S21401FA60FB82FB8A002B2FD11A4B1B78DBB2DBB251
S21401FA705BB2002B02DB0223FB8225E0154B7022D2
S21401FA801A70144B0122DA71124ABB681B0CDBB2E6
S21401FA909371104ABB681B0ADBB253710D4BBA68EF
S21401FAA0D2B21A710B4AFB881B0A9BB2DBB2D37225
S21401FAB0084BFA88D2B29A72064A7B795372F86872
S21401FAC00EF002FA0346FB82FB8A18461837BD463B
S21401FAD080BD00BF0000024080B586B000AFF86070
S21401FAE0B9607A603B600023FB827B6803F0070302
S21401FAF0002B02D00423FB826FE0FB689B683B610E
S21401FB00BA683B699A420DD3FB68DA683B691A44C6
S21401FB10BB689A4206D9BA683B69D31A03F5000353
S21401FB20BB6014E0FB681B683B61BA683B699A429C
S21401FB300BD3FB685A683B691A44BB689A4204D9DE
S21401FB40BA683B69D31ABB6001E00123FB823EE041
S21401FB50244B1B78DBB2DBB25BB2002B02DB022349
S21401FB60FB8234E01F4B70221A701E4B0722DA719B
S21401FB701C4ABB681B0CDBB293711A4ABB681B0A92
S21401FB80DBB25371174BBA68D2B21A7100237B7578
S21401FB900CE07A7D144B13443B613B697A7D3968EE
S21401FBA00A4412781A707B7D01337B757B7D072BA7
S21401FBB0EFD9F8680EF088F90346FB82BB68083374
S21401FBC0BB607B68083B7B603B6808333B607B68B7
S21401FBD0002B02D0FB8A002BBAD0FB8A18461837B6
S21401FBE0BD4680BD000002400800024080B58AB0D4
S21401FBF000AFF860B9607A603B600023FB847B68E5
S21401FC00FB61FB6903F00303002B02D00423FB8492
S21401FC1088E0FB689B683B62BA683B6A9A420DD3F0
S21401FC20FB68DA683B6A1A44BB689A4206D9BA6826
S21401FC303B6AD31A03F50003BB6016E0FB681B683A
S21401FC403B62BA683B6A9A420BD3FB685A683B6AC6
S21401FC501A44BB689A4204D9BA683B6AD31ABB6095
S21401FC6003E00123FB840023FB6158E0304B1B7843
S21401FC70DBB2DBB25BB2002B02DB0223FB844EE07D
S21401FC802B4B70221A702A4B0222DA71284ABB6863
S21401FC901B0CDBB29371264ABB681B0ADBB253719D
S21401FCA0234BBA68D2B21A71214A97F83430D3720C
S21401FCB00023FB760CE0FA7E1E4B13447B617B69C6
S21401FCC0FA7E39680A4412781A70FB7E0133FB7695
S21401FCD0FB7E032BEFD9F8680EF0F6F80346FB849B
S21401FCE0FB8C002B12D0BB68B3F5000F07D3BA68A4
S21401FCF03B6A1344A3F500023B6B1A6004E0BA6842
S21401FD003B6A1A443B6B1A600423FB61FB69043BA4
S21401FD10FB613B6804333B60BB680433BB60FB6933
S21401FD20002BA3D1FB8C18462837BD4680BD00BFEB
S21401FD30000002400C000240F8B5264B53F8204064
S21401FD40266820460D4604F017FD330521D4676862
S21401FD502E68E868A9686A682B694FF6F8753D4011
S21401FD606560676806F0070545EA006009043843E0
S21401FD7001F4E021D204014302F460129B050A4318
S21401FD8003F44003134363602046BDE8F84004F0E3
S21401FD90E7BC95E84B00276D2A690F4D07F0004731
S21401FDA02765276D03F01F0380023B4380B249019C
S21401FDB0034301F47871700505400B4312042B438D
S21401FDC002F4F812134323652046BDE8F84004F018
S21401FDD0C7BC00BF98DC02000000E07F38B50C4BC2
S21401FDE053F820400D46204604F0C6FC23683DB17A
S21401FDF043F4803323602046BDE8384004F0B0BCAD
S21401FE0023F4803323602046BDE8384004F0A8BCC4
S21401FE1098DC02000E4B70B553F820400E46204683
S21401FE20154604F0A9FC4EB1012E04BF25F060452D
S21401FE3025612046BDE8704004F092BC054BAD0438
S21401FE402B4023612046BDE8704004F089BC00BF0A
S21401FE5098DC02000000FC1FF8B5154C54F8204051
S21401FE60204615461E460F4604F086FC236803F01E
S21401FE707F039D4215D25FB90E4BB60405F5087592
S21401FE80334044F82530204604F06AFC0020F8BDD3
S21401FE90012FF8D105F5087526F0604644F825606F
S21401FEA0F1E7204604F05CFC4FF44070F8BD00BF5B
S21401FEB098DC02000000FC1F9F4B2DE9F04753F829
S21401FEC020401746064620460D4604F087FA7B7A00
S21401FED062685B0322F4005203F400531343636029
S21401FEE0204604F067FA204604F046FC204604F05B
S21401FEF081FA23683A7A23F400636AB143F4006313
S21401FF002360236D43F00043236523681B0500F13E
S21401FF10D0800120BDE8F0872360236D2365236828
S21401FF20C3F3C023002BF4D1616B21F48051BA795D
S21401FF300B43022A636303D0236843F40033236030
S21401FF407B79002B40F0BD8097F83430012B06D129
S21401FF5023689900DDD5236843F4004323602046D7
S21401FF60B97904F015FC2046F97904F047FC2046DF
S21401FF70396804F031FB002840F0A18023681A0597
S21401FF8040F1A880236DD7F80CA0D7F810C0D7F899
S21401FF901480D7F81890F969684ADFF8BCE1684818
S21401FFA003F000432365236D4FEA8A2A08F01F08F1
S21401FFB048EA03081FFA8AFA4FEA4C1C0CF4787CCC
S21401FFC04FEA495948EA0A0343EA0C0309EA0202DE
S21401FFD0090401F4F8111A430A432265D4F8049C73
S21401FFE0FB6AD7F820C0796AD7F828803A6B09EA05
S21401FFF00E0EC4F804ECD4F804EC4FEA8C2C08F08E
S214020000070848EA0E080CF4F84C49014FEA035E6A
S214020010C9B248EA0C0312040B430EEA000002F4CB
S214020020E02203431343C4F8043C204604F098FB42
S214020030444B985710F1800F01D001F0E7FC424B79
S214020040424C985701F0E2FC414B985701F0DEFC17
S214020050A05710F1800F01D001F0D8FC344494F977
S214020060030010F1800F01D001F0D0FC05F1040866
S214020070C146002406E0987145F834000134202C6D
S21402008058714BD04846002102F0E4FC09F10809F9
S21402009005EBC4030028EED0002C3FF43AAF1C4612
S2140200A00434404608F1080802F0DEFCA045F8D108
S2140200B02FE7616B4FF4805321F4805137E7BDE898
S2140200C0F0872046397904F067FA00283FF43CAFFF
S2140200D0BDE8F087D4F804C0FB6839697869D7F8B8
S2140200E01880FA694FF6F87E0CEA0E0EC4F804E0A1
S2140200F0D4F804C003F0070E00044EEA0863C904ED
S21402010000F4E02043EA0C0301F460119205034375
S21402011002F440020B431343636086E797F83430D9
S21402012085F8093197F835200A4B85F8082143F8F7
S2140201302650BDE8F08700BF98DC02000000E07F92
S2140201400000F03FA4DC02008CDC020090DC02001F
S21402015088DC0200D4090020188308C02DE9F0418B
S21402016084B004AD164E177856F820605068029098
S2140201700F2445F8104D3046147A8DF804702A463E
S2140201808DF80C4088461F4604F07CF9044610B1F0
S21402019004B0BDE8F081304641462A463B4600940C
S2140201A004F070F90028F3D1304641462A463B4611
S2140201B00424009404F066F904B0BDE8F08100BFA0
S2140201C098DC02002DE9F041144C154B54F82040FF
S2140201D053F8206004EBC1056B7903F0FF0713B1F7
S2140201E00220BDE8F08113464FF0010885F805802D
S2140201F0424644F831303046AF7104F071FA424656
S21402020004464FF48041304604F092FA1CB16F71F6
S2140202102046BDE8F0812046BDE8F081D4090020E2
S21402022098DC02001B4A1C4B70B50446105653F865
S214020230246010F1800F01D001F0F4FB174B184D2B
S214020240185701F0EFFB174B185701F0EBFB285736
S21402025010F1800F01D001F0E5FB254495F903006B
S21402026010F1800F01D001F0DDFB0F4B53F8240094
S21402027004F0B4F8341D002506F58276204602F016
S214020280F3FB0834002818BF0125B442F6D12846ED
S21402029070BD00BFA4DC0200D40900208CDC020082
S2140202A090DC020088DC020098DC02002DE9F04FA8
S2140202B09B4A9C4B52F8209053F820A083B0B9F189
S2140202C0000F02D099F801501DB1012003B0BDE81D
S2140202D0F08FDAF800404E8824F01804CAF800407E
S2140202E0DAF84C40240C2404CAF84C40DAF80840E9
S2140202F0220C12043243CAF80820DAF8002022F050
S2140203002002CAF80020DAF8642022F08002CAF836
S2140203106420DAF8642022F00102CAF864200A781F
S214020320002A5FD08846019007E0012B72D0013583
S21402033098F80030EDB2AB4254D9D8F804302F0109
S214020340DE5D3B4434B209EB840299689161D96858
S2140203509163032E4FEA560B07D89A79002A54D097
S2140203601A795046314601F015FBD8F804301F447E
S2140203707B78002BD9D1DAF864304FEACB0C042212
S21402038002FA0CF20AEBC40423EA0203CAF8643047
S214020390E36823F01003E360E36823F02003E360DE
S2140203A0E268B97822F0040201F0010342EA83020D
S2140203B0E260E368019AC1F3400123F0080343EACE
S2140203C0C103E360E36806EBC206574A43F0400304
S2140203D0E360905701F01AFB013598F80030EDB251
S2140203E0AB42AAD899F80010DAF80020C90001F04A
S2140203F0180122F018020A430020012189F8011090
S214020400CAF8002003B0BDE8F08F5046314601F02E
S214020410C1FAAAE7DAF86430F9794FEACB0C04227B
S21402042002FA0CF21343CAF86430DAF8642008239E
S21402043003FA0CF31343CAF864300AEBC403DA680F
S214020440002934D042F01002DA60DA6842F0200264
S214020450DA60FB78032B34D0012B3ED0042B53D02A
S214020460022B7FF432AF0AEBC404721CE36823F05B
S2140204700403E360E168D2B241F008010AEBC2036A
S214020480E160D96821F00401D960D96841F0080119
S214020490D9600AEBC202019B234906EBC306D36866
S2140204A0885743F04003D36001F0B0FA3FE722F0EA
S2140204B01002DA60DA6842F02002DA60FB78032B78
S2140204C0CAD10AEBC404721CE36843F00403E36077
S2140204D0E168D2B221F00801D0E70AEBC404721C2C
S2140204E0E36843F00403E360E168D2B221F0080156
S2140204F00AEBC203E160D96841F00401D960D96809
S21402050021F00801D960C4E70AEBC404721CE36850
S21402051023F00403E360E168D2B241F00801E7E7A2
S214020520E0090020D4DC0200A8DC02001F4B1B6896
S2140205305A78012A00D070471D4A1268516E490740
S21402054010B418D4D16881F08001C1F3C01102EB57
S214020550C102081D146923F81040D06820F08000FC
S214020560D060D2680A4603EB82039A6BD2B19869CE
S2140205705DF8044B10471069916980B289B28842CF
S21402058084BF94680919091AD06889B2198120F0C3
S2140205908001D160D168516921F0800151615269B0
S2140205A00022E0E75DF8044BC5E700BFE009002043
S2140205B0D4DC02001F4B1B685A78012A00D0704711
S2140205C01D4A1268516E490510B418D4D16911F04B
S2140205D0800F14BF0221032102EBC102081D146919
S2140205E023F81040D06820F08000D060D26803EB79
S2140205F081039A6BD2B198695DF8044B1047106A72
S214020600916A80B289B2884284BF94680919091A2D
S214020610D06989B2998120F08001D161D169516A8D
S21402062021F080015162526A0221E0E75DF8044B34
S214020630C5E700BFE0090020D4DC02001F4B1B68A0
S2140206405A78012A00D070471D4A1268516E490333
S21402065010B418D4D16A11F0800F14BF04210521FA
S21402066002EBC102081D146923F81040D06820F07E
S2140206708000D060D26803EB81039A6BD2B198698E
S2140206805DF8044B1047106B916B80B289B28842BA
S21402069084BF94680919091AD06A89B2198220F0AF
S2140206A08001D162D16A516B21F080015163526B95
S2140206B00421E0E75DF8044BC5E700BFE00900202F
S2140206C0D4DC02001F4B1B685A78012A00D0704700
S2140206D01D4A1268516E490110B418D4D16B11F03C
S2140206E0800F14BF0621072102EBC102081D146900
S2140206F023F81040D06820F08000D060D26803EB68
S21402070081039A6BD2B198695DF8044B1047106C5E
S214020710916C80B289B2884284BF94680919091A1A
S214020720D06B89B2998220F08001D163D16B516C73
S21402073021F080015164526C0621E0E75DF8044B1B
S214020740C5E700BFE0090020D4DC02001F4B5B684F
S2140207505A78012A00D070471D4A5268516E4907DE
S21402076010B418D4D16881F08001C1F3C01102EB35
S214020770C102081D146923F81040D06820F08000DA
S214020780D060D2680A4603EB82039A6BD2B19869AC
S2140207905DF8044B10471069916980B289B28842AD
S2140207A084BF94680919091AD06889B2198120F0A1
S2140207B08001D160D168516921F08001516152698E
S2140207C00022E0E75DF8044BC5E700BFE009002021
S2140207D0D4DC02001F4B5B685A78012A00D07047AF
S2140207E01D4A5268516E490510B418D4D16911F0E9
S2140207F0800F14BF0221032102EBC102081D1469F7
S21402080023F81040D06820F08000D060D26803EB56
S21402081081039A6BD2B198695DF8044B1047106A4F
S214020820916A80B289B2884284BF94680919091A0B
S214020830D06989B2998120F08001D161D169516A6B
S21402084021F080015162526A0221E0E75DF8044B12
S214020850C5E700BFE0090020D4DC02001F4B5B683E
S2140208605A78012A00D070471D4A5268516E4903D1
S21402087010B418D4D16A11F0800F14BF04210521D8
S21402088002EBC102081D146923F81040D06820F05C
S2140208908000D060D26803EB81039A6BD2B198696C
S2140208A05DF8044B1047106B916B80B289B2884298
S2140208B084BF94680919091AD06A89B2198220F08D
S2140208C08001D162D16A516B21F080015163526B73
S2140208D00421E0E75DF8044BC5E700BFE00900200D
S2140208E0D4DC02001F4B5B685A78012A00D070479E
S2140208F01D4A5268516E490110B418D4D16B11F0DA
S214020900800F14BF0621072102EBC102081D1469DD
S21402091023F81040D06820F08000D060D26803EB45
S21402092081039A6BD2B198695DF8044B1047106C3C
S214020930916C80B289B2884284BF94680919091AF8
S214020940D06B89B2998220F08001D163D16B516C51
S21402095021F080015164526C0621E0E75DF8044BF9
S214020960C5E700BFE0090020D4DC02001F4B9B68ED
S2140209705A78012A00D070471D4A9268516E49077C
S21402098010B418D4D16881F08001C1F3C01102EB13
S214020990C102081D146923F81040D06820F08000B8
S2140209A0D060D2680A4603EB82039A6BD2B198698A
S2140209B05DF8044B10471069916980B289B288428B
S2140209C084BF94680919091AD06889B2198120F07F
S2140209D08001D160D168516921F08001516152696C
S2140209E00022E0E75DF8044BC5E700BFE0090020FF
S2140209F0D4DC02001F4B9B685A78012A00D070474D
S214020A001D4A9268516E490510B418D4D16911F086
S214020A10800F14BF0221032102EBC102081D1469D4
S214020A2023F81040D06820F08000D060D26803EB34
S214020A3081039A6BD2B198695DF8044B1047106A2D
S214020A40916A80B289B2884284BF94680919091AE9
S214020A50D06989B2998120F08001D161D169516A49
S214020A6021F080015162526A0221E0E75DF8044BF0
S214020A70C5E700BFE0090020D4DC02001F4B9B68DC
S214020A805A78012A00D070471D4A9268516E49036F
S214020A9010B418D4D16A11F0800F14BF04210521B6
S214020AA002EBC102081D146923F81040D06820F03A
S214020AB08000D060D26803EB81039A6BD2B198694A
S214020AC05DF8044B1047106B916B80B289B2884276
S214020AD084BF94680919091AD06A89B2198220F06B
S214020AE08001D162D16A516B21F080015163526B51
S214020AF00421E0E75DF8044BC5E700BFE0090020EB
S214020B00D4DC02001F4B9B685A78012A00D070473B
S214020B101D4A9268516E490110B418D4D16B11F077
S214020B20800F14BF0621072102EBC102081D1469BB
S214020B3023F81040D06820F08000D060D26803EB23
S214020B4081039A6BD2B198695DF8044B1047106C1A
S214020B50916C80B289B2884284BF94680919091AD6
S214020B60D06B89B2998220F08001D163D16B516C2F
S214020B7021F080015164526C0621E0E75DF8044BD7
S214020B80C5E700BFE0090020D4DC02001F4BDB688B
S214020B905A78012A00D070471D4AD268516E49071A
S214020BA010B418D4D16881F08001C1F3C01102EBF1
S214020BB0C102081D146923F81040D06820F0800096
S214020BC0D060D2680A4603EB82039A6BD2B1986968
S214020BD05DF8044B10471069916980B289B2884269
S214020BE084BF94680919091AD06889B2198120F05D
S214020BF08001D160D168516921F08001516152694A
S214020C000022E0E75DF8044BC5E700BFE0090020DC
S214020C10D4DC02001F4BDB685A78012A00D07047EA
S214020C201D4AD268516E490510B418D4D16911F024
S214020C30800F14BF0221032102EBC102081D1469B2
S214020C4023F81040D06820F08000D060D26803EB12
S214020C5081039A6BD2B198695DF8044B1047106A0B
S214020C60916A80B289B2884284BF94680919091AC7
S214020C70D06989B2998120F08001D161D169516A27
S214020C8021F080015162526A0221E0E75DF8044BCE
S214020C90C5E700BFE0090020D4DC02001F4BDB687A
S214020CA05A78012A00D070471D4AD268516E49030D
S214020CB010B418D4D16A11F0800F14BF0421052194
S214020CC002EBC102081D146923F81040D06820F018
S214020CD08000D060D26803EB81039A6BD2B1986928
S214020CE05DF8044B1047106B916B80B289B2884254
S214020CF084BF94680919091AD06A89B2198220F049
S214020D008001D162D16A516B21F080015163526B2E
S214020D100421E0E75DF8044BC5E700BFE0090020C8
S214020D20D4DC02001F4BDB685A78012A00D07047D9
S214020D301D4AD268516E490110B418D4D16B11F015
S214020D40800F14BF0621072102EBC102081D146999
S214020D5023F81040D06820F08000D060D26803EB01
S214020D6081039A6BD2B198695DF8044B1047106CF8
S214020D70916C80B289B2884284BF94680919091AB4
S214020D80D06B89B2998220F08001D163D16B516C0D
S214020D9021F080015164526C0621E0E75DF8044BB5
S214020DA0C5E700BFE0090020D4DC02003F4A404B02
S214020DB070B552F8206053F82040002E73D0707839
S214020DC0002870D1D4F880200B7822F001020D465C
S214020DD08979C4F88020226822F018022260D4F8AA
S214020DE08020DB0022F0080203F008031343C4F855
S214020DF08030D4F88030002942D123F08003C4F832
S214020E0080306B7A002B47D0D4F8803043F0400312
S214020E10C4F88030AA7A2046012100F0BBFD297A68
S214020E20D4F880306888EA7AAD88490101F020015A
S214020E3023F020030B43C4F88030D4F8801012014C
S214020E4021F0100102F010020A43C4F88020E26C7E
S214020E50120C12040243E264A268130C1B042B4316
S214020E60A36063681B0C1B0403436360D4F88030E2
S214020E70052243F00103C4F880300020727070BD72
S214020E8043F08003C4F880300146EA79204600F039
S214020E9081FD6B7A002BB7D1D4F8803023F0400363
S214020EA0C4F88030BBE7012070BD00BFE009002017
S214020EB0D4DC02002DE9F041314C324D54F820606A
S214020EC055F820507078AC680428A4B243D00328A2
S214020ED003BF0134A4B200200120B2F5004F37D878
S214020EE0B3F5004F34D802FB04FECEF3CF3EB2F584
S214020EF0004F03FB04F308BF0EF1010E4FEAE33383
S214020F0008BF1FFA8EFE18BB4A084FEAC20C01271A
S214020F10D5F8648007FA0CF717EA080F1FD080216D
S214020F206F6E01FA0CF1394227D02968520011F08F
S214020F30180F02F1010203D105EBC201C1F808E065
S214020F40D2B2013205EBC20293607480BDE8F08132
S214020F500120BDE8F0816400A4B20020BDE72B6842
S214020F604A1C9B0605EBC20246BF4FEA5E0393602D
S214020F70C2F808E07480BDE8F08152000132DBE777
S214020F80E0090020D4DC02002DE9F04FC14AC24B32
S214020F9052F8202053F8204083B00192002A00F035
S214020FA0AE8216465278002A40F0A9822368009044
S214020FB023F018030D4689782360236823F4007310
S214020FC023602368636D43F00403636571702B78B6
S214020FD0002B00F0BA80EB6893469E464FF0040959
S214020FE04FF0010A3CE00136F6B2226898F8050096
S214020FF006F110010AFA01F104EBC6060A43226062
S214021000F16800F0010221F0040141EA8201F16078
S214021010F268C0F3400022F0080242EAC002F26020
S214021020F26842F01002F260F26842F02002F260C9
S21402103098F80720012A00F0668298F80820002A0D
S21402104077D1616E1022BA4021EA020262660BF183
S214021050010B2A785FFA8BFB5A4576D99E46EB68D7
S214021060626E0BEB8B014FEA41081EF8116077089F
S214021070FF0009FA07F122EA0101434404EBC60223
S2140210806166D168587921F0040100F0010341EA53
S2140210908301D160D368C0F3400023F0080343EA1B
S2140210A0C003D360D36843F01003D360D36843F021
S2140210B02003D36023686A6906F110010AFA01F177
S2140210C00B43D2782360C644636E002A40F0D9816F
S2140210D04022BA4023EA02036366616E9EF8042049
S2140210E02023BB400B436366636E0AFA07F123EACA
S2140210F001036366616E8023BB4021EA03036366D5
S2140211002046314600F02EFCEB68984498F80620FC
S214021110002A7FF468AF98F80120012A00F0F981CE
S214021120226F0AFA06F10A43226798F80820002A74
S21402113087D0616E1022BA400A4362660BF1010B39
S2140211402A785FFA8BFB5A4588D86B78002B00F01A
S214021150A5804FF000084FF0040B4FF001093AE06B
S214021160606E40238B4020EA03036366606E92F84B
S21402117007E020238B4003436366636E09FA01F09F
S214021180034363668023606E8B40BEF1000F40F01F
S214021190838120EA030363669379002B40F076810D
S2140211A0606E10238B4020EA030363667F00D27AC8
S2140211B03946204600F0D6FB2B691E44791CC9B27C
S2140211C0327B204600F0CEFB08F101086B785FFA0E
S2140211D088F8434562D92A69606E4FEA0816935D1D
S2140211E05F08F9000BFA01FE20EA0E0E324404EB09
S2140211F0C300C4F864E0D0F80CC092F80DA02CF03E
S214021200040E0AF0010C4EEA8C0CC0F80CC0D0F8A2
S2140212100CE0CAF3400A2EF0080E4EEACA0EC0F8D8
S2140212200CE0D0F80CE04EF0100EC0F80CE0D0F84F
S2140212300CE04EF0200EC0F80CE0206892F809E0B0
S21402124003F1100C09FA0CFC4CEA00002060BEF117
S214021250000F40F02481107A012800F04981206FA7
S21402126009FA03FE4EEA000020670133DBB220686B
S214021270103309FA03F320EA030323606B69DB7871
S214021280002B3FF46DAF606E40238B4003436366D2
S2140212906CE700BFE0090020D4DC02006B69616DD8
S2140212A0DA7841F002016165002A00F0838019783D
S2140212B0002940F06381E16F21F40041E1679878EC
S2140212C0E16F000200F4706021F470610143E1678F
S2140212D01979B1B1E16F41F00101E167597900294D
S2140212E000F05B81E16F41F01001E1679979012915
S2140212F0D4F8881014BF41F0010121F00101C4F8AE
S2140213008810D979B1B1E16F41F00201E167197A2B
S214021310002900F04781E16F41F02001E167597A28
S2140213200129D4F8881014BF41F0020121F002010D
S214021330C4F88810997AB1B1E16F41F00401E1670F
S214021340D97A002900F01F81E16F41F04001E16780
S214021350197B0129D4F8881014BF41F0040121F04A
S2140213600401C4F88810597BB1B1E16F41F008015D
S214021370E167997B002900F00B81E16F41F0800163
S214021380E167D97B0129D4F888100CBF21F0080147
S21402139041F00801C4F888105B781BB1636D43F016
S2140213A080036365636D520102F0600223F06003FE
S2140213B01A4362652368A878A96823F020020428E5
S2140213C00CBF2023002313432360009800F074FA16
S2140213D0E36CAA7801991B0C1B044880042AE36478
S2140213E0A36800F0C58001381B0C80B21B041843AA
S2140213F0A0602B78002B00F092800027DDF800809A
S21402140004E001372B78FFB2BB4220D907EB8702F4
S214021410EB68560013F81290334449465A88404601
S2140214200023FFF747FDEB681E44B379002BE8D094
S214021430F379002BE5D109F10101C9B27288404661
S214021440FFF738FD01372B78FFB2BB42DED86B7848
S2140214507BB1009F0026296932018B183846895CC9
S2140214605A889B88FFF726FD01366B78F6B2B342A0
S214021470F1D8002856D0019A0023537003B0BDE875
S214021480F08F4022BA401343636626E6606E10234E
S2140214908B400343636689E6034363667CE6013357
S2140214A0DBB2206892F80EC003F1100E09FA0EFEA7
S2140214B004EBC3034EEA00002060D8680CF0010A71
S2140214C020F0040E4EEA8A00D860D868CCF3400CAE
S2140214D020F0080040EACC00D860937A0220012B64
S2140214E0636E00FA01F00CBF034383436366C5E6EE
S2140214F0D4F870E098402EEA00002067B5E6012096
S21402150003B0BDE8F08F616E0222BA400A436266FB
S21402151093E5216FB24021EA020222678DE56B78DD
S214021520002B96D1A36EEE78019A2979127823F0D1
S2140215303F0006F03F030343A366A36E8901C9B2C8
S21402154023F0C0030B43A366636D43F00103636598
S214021550636D43F0080363652368D20002F0180245
S21402156023F0180313430020236003B0BDE8F08F76
S2140215701B0C1B0443EA5000A0603AE7E16F41F4FB
S2140215800041E1679BE6E16F21F04001E167DFE69B
S214021590E16F21F08001E167F3E6E16F21F01001CF
